S0200000736F635F7468756E646572626F6172645F62726434313636612E73333765
S21400000000000120A5330000A1330000A13300004A
S214000010B9100000A1330000A1330000A133000096
S214000020A1330000A1330000A1330000A13300007B
S214000030A1330000A1330000A1330000A13300006B
S214000040A1330000056C0000A1330000A1330000BE
S2140000506D640000496C0000116C0000156C000017
S214000060096C0000A1330000A1330000A13300009A
S214000070A1330000A1330000A1330000A13300002B
S214000080A1330000A1330000A1330000A13300001B
S214000090A1330000A1330000A1330000A13300000B
S2140000A0A1330000A1330000A1330000A1330000FB
S2140000B04D6C00000D6C0000A1330000896C000040
S2140000C0A133000055540000A1330000A133000006
S2140000D0A1330000A1330000A1330000A1330000CB
S2140000E0A1330000A1330000A1330000A1330000BB
S2140000F0A1330000A1330000A1330000A1330000AB
S214000100A1330000A1330000A133000010B5054C58
S214000110237833B9044B13B10448AFF300800123AE
S214000120237010BDC80000200000000044B400008A
S21400013008B5034B1BB103490348AFF3008008BD65
S21400014000000000CC00002044B40000A3F5803A74
S214000150704700BF174B002B08BF134B9D46FFF799
S214000160F5FF00218B460F461348144A121A08F072
S214000170E5FF0E4B002B00D098470D4B002B00D010
S21400018098470020002104000D000D48002802D0EA
S2140001900C48AFF3008008F09FFF2000290002F013
S2140001A0FBF908F085FF00BF000008000000000013
S2140001B00000000000000120C80000204C180020AD
S2140001C00000000000000000BFF34F8F0549064BFB
S2140001D0CA6802F4E0621343CB60BFF34F8F00BFE0
S2140001E0FDE700BF00ED00E00400FA0510B502468A
S2140001F000B3114B1968888890421BD398889042A8
S21400020081BF0968996001209880998898680024C1
S21400021028B904B198604FF6FF729A8009E08A42C6
S21400022004D00131006889B20124F1E70CB19A804C
S214000230986010BD0020FCE7EC060020114A916A89
S21400024001F1704303F5F813B3F5006F0CD2D2F842
S2140002502838A3F17E62A2F58432B2F5104F03D29D
S2140002600968094A914203D00023037083607047EF
S2140002701968064A9142F7D1012202709A684260D4
S2140002809B69F3E70000E10FAD1007B007B0CD5E45
S21400029010B50C4630B90448FFF7D0FF04300423ED
S2140002A02060A380002010BDA4010020064BD3F8D8
S2140002B02828A2F17E63A3F58433B3F5104F01D24C
S2140002C0536A1847002070470000E10F0D4B10B42A
S2140002D0D3F82848A4F17E63A3F58433B3F5104F12
S2140002E00BD2246BA4F17E63A3F58433B3F5104FD1
S2140002F003D2A36B5DF8044B184740F201105DF87B
S214000300044B70470000E10F0B4BD3F82828A2F1EE
S2140003107E63A3F58433B3F5104F09D2126BA2F1B6
S2140003207E63A3F58433B3F5104F01D2D36B184721
S21400033040F20110704700BF0000E10F024BD3F8F7
S214000340F80080B2800270470081E00F7FB50F4A48
S21400035003466D4602F11006106851682C4603C429
S2140003600832B2422546F7D15A1E0DF10F010F335F
S21400037011F8010912F8014F844204D19A42F7D1CC
S214000380012004B070BD0020FBE700BFD49200003F
S21400039070B5154E306810BB144B154CE41A154B4F
S2140003A01C4424F4FF6424F00704FFF7C7FF8442CC
S2140003B014D2656BA5B1FFF7C1FF854210D2FFF7D7
S2140003C0BDFF05F1400383420AD82846FFF7BEFF6B
S2140003D030B1EB6933F0080302D03460306870BD8A
S2140003E004F50064E1E700BF48010020100000208B
S2140003F0C40000208FBC0000094B40F201121A60B6
S2140004004FF0FF329A6001225A600144814202D1C5
S214000410D869C043704710F8012B9A61F6E700BF11
S21400042000C00140034B044A9979117500221A60F6
S214000430704700BF900D00208406002030B50022D3
S2140004408BB01346D91003F00704415C2141CC075A
S21400045041BF0AA98918013201F8283C0133252B2F
S214000460F0D10E4C0023D91003F00705415C29415A
S214000470C9075FBF0AADB3FBF2F102FB11314919A0
S21400048048BFD9B203F1010358BF11F8281C04F87D
S214000490011B252BE7D10BB030BD00BFAE060020F8
S2140004A010B5034CA01DFFF7C9FF0023236010BD45
S2140004B0900D0020084A10B5136840F2E24404FB91
S2140004C001316043536800F5807001EB5001184419
S2140004D01160506010BD00BF84060020D0B50C4CE3
S2140004E0E38C0A20584308F047FB0646A08C0F46CC
S2140004F008F042FB074B002208F0A8FB02460B461A
S2140005003046394608F0CCFC08F0B2FD2083D0BD5A
S214000510840600200000F43F10B5094CB4F807101C
S214000520A079FFF7C7FFA368064AB4F80D10D18478
S214000530C3F30F239384FFF7D1FF0023236010BD7E
S214000540900D002084060020837DDB0701D5808A7D
S2140005507047D0E901239B1A44BF828A9B1898B241
S21400056070470000084BD3F8F020D3F8F430027040
S214000570110A120C82701A0AC2701A0C1B0E4170F5
S21400058002714371704700BF0081E00F034BD86BC8
S21400059080F04000C0F38010704700BF00300E406F
S2140005A008B5FFF7F3FF20B1024AD2F8C830002B97
S2140005B0FBD108BD0000C64308B5FFF7F1FF024BAC
S2140005C05868C0F3014008BD00300E400C4B9842FE
S2140005D010D90C4B984210D9022201230A490B6409
S2140005E00A49D1F8003123F0807343EA0263C1F868
S2140005F00031704700221346F0E70122FBE700BFF8
S2140006000048E8010090D0030000C84300400E40B8
S2140006100F4B5B680F4B30B500221C46C9B21D79E4
S2140006208D4202D11D6885420DD20132052A03F1A2
S2140006300803F4D1032206494B6823F0407343EACB
S21400064002634B6030BD04EBC2025279F3E700BF91
S21400065000000E401094000038B5054C41F671338A
S214000660256C2364FFF7D4FF0DB10023236438BD47
S21400067000000E4042EA0323B3F5007F39D016D8B7
S214000680B3F5807F31D007D85BB3012B1ED0002294
S214000690134603600A60704740F201129342F6D197
S2140006A0184BD3F824321A0EC3F30743F1E7B3F519
S2140006B0407F22D040F2013293420ED040F2012217
S2140006C09342E4D10F4BD3F8283202E00D4BD3F817
S2140006D02432C3F30722DBB2DBE70A4BD3F8283217
S2140006E0E1E7084BD3F81C32F3E7064BD3F81C328D
S2140006F0D9E7044BD3F82032EBE7024BD3F820328D
S214000700D1E700BF0081E00F2F4B1A6FD96C11F0B4
S214000710010F02F0060242D0002A40D013284FD91B
S214000720143813288CBF102308232749013BCA6CB2
S214000730180322F47F4240EA03231343CB64234B7F
S214000740CA6C1B88C2F303222833013202EB8200F4
S21400075003EB5303B3FBF0F3C86C013B072B28BF36
S214000760072320F0EE6040EA036343F48013CB6473
S214000770174BB3F90030002B10DB2833500800EB82
S214000780420203EB5303B3FBF2F30A6D072B28BFB9
S214000790072322F0700242EA03130B657047D96CF8
S2140007A001F00101114304D1092809D90A380928A2
S2140007B0B8E7DB6C13F00103B7D01AB92728B1E706
S2140007C00423B2E70023B0E700300E400207002003
S2140007D00407002070B51D4DD5F82828A2F17E63C9
S2140007E0A3F58433B3F5104FE0B004D34FF401748F
S2140007F0204660B070BD136B002BF7D05B6A4FF4D9
S214000800C07269460020984704460028F0D140F29E
S2140008100126D5F82828A2F17E63A3F58433B3F524
S214000820104FE3D2126BA2F17E63A3F58433B3F5C7
S214000830104FDBD2936A002168469847B042E8D052
S21400084040F20323984218BF0446D1E70000E10FA8
S214000850104A0B46D2F82818A1F17E62A2F584321F
S214000860B2F5104F10B40FD2096BA1F17E62A2F55B
S2140008708432B2F5104F07D20C69074A0146A446E7
S21400088000205DF8044B60474FF481705DF8044B20
S214000890704700BF0000E10F3407002037B504465C
S2140008A0684680E8060003C8251D85E80500237312
S2140008B0069B0B4A2361BDF81C30A38200232360ED
S2140008C0136853B119461B68002BFBD10C60908847
S2140008D0013080B2908003B030BD1460F7E700BFEF
S2140008E0E406002037B50D461446FFF77FFC70B1CE
S2140008F0036973B1818A4FF6FE72914209D1009561
S214000900ADF8044069460120984703B030BD012089
S214000910FBE70E20F9E7036937B514460D46828AD1
S21400092063B14FF6FE718A4208D100200090ADF800
S21400093004006946984728B103B030BD2B600020FC
S2140009402280F9E7009B2B60BDF804302380F3E794
S21400095038B50D461446FFF749FC40B122462946F5
S214000960FFF7D9FF10B92B6803B9208038BD0120E6
S214000970FCE7000007B503790193054A0368009376
S21400098006CA02230830FFF789FF03B05DF804FBB0
S2140009906C940000034B5A6D12B95865A3F85810B2
S2140009A0704700BF8406002070B50C4690B9FFF76C
S2140009B0EFFC58B1436B084D03F1400618685968C0
S2140009C02A4603C20833B3421546F7D1034B2360C9
S2140009D00423A380002070BD4C0100206C01002081
S2140009E02DE9F04116460546FFF7AEFDB04228BF9A
S2140009F0304686B20F46B046B8F1000F09D12EB188
S214000A00AB7DDA0744BF23F00103AB753046BDE883
S214000A10F0812B68AC8A69681C44641AA4B2444509
S214000A2028BF44462246384608F07AFB6A682B6898
S214000A30A98A2244194427448A4238BF1346A8EBA1
S214000A4004041FFA84F86B60D6E7F8B51F46038ADD
S214000A5004461646EBB9C57DDDB10123013D0B709A
S214000A600222C57500F11001FFF7BAFFE37D9BB1C6
S214000A70228ABA4228BF3A4631462046FFF7B0FFE0
S214000A80238A1B1A2382E37D13B9638A1B1A6382A7
S214000A90F8BD00230B70EBE7638A2382E8E72DE9B5
S214000AA0F04104460F461146FFF74EFDA38A181A7A
S214000AB086B28E4228BF0E46B046B8F1000F0BD164
S214000AC03EB1D4E901329A4202BFA37D43F001034E
S214000AD0A3753046BDE8F0812368A58AA0681D444A
S214000AE02D1AADB2454528BF45462A46394608F078
S214000AF017FBA2682368A18A2A4419442F448A4215
S214000B0038BF1346A8EB05051FFA85F8A360D4E79F
S214000B10F8B5044616461F4611B3FFF715FDA58A1D
S214000B20281A80B2012829D9E37D63B1E068658A76
S214000B3005702D0A07D02268A38A01301344984214
S214000B4028BF1046F4E700236382A368E36002220E
S214000B5004F112012046FFF7A2FFE37D0133E3759F
S214000B603A4631462046FFF79AFF638A034463827B
S214000B70E37D13B9238A03442382F8BD0020FCE7F3
S214000B8013B50379124A03330446019300F1440374
S214000B90009306CA02231430FFF780FE238A0193CF
S214000BA0E368009394E80600237A04F12C00FFF72C
S214000BB075FE237A22792168A4F8450004F14700DF
S214000BC084F8443002B0BDE8104008F0A9BA00BF6F
S214000BD06494000070B50C4C0C4B06460D46D4E9E8
S214000BE0010183E803001846FFF7C4FE084BD4E96A
S214000BF0040102221A7283E80300DE601D82184692
S214000C00BDE87040FFF7BCBF7893000010120020CC
S214000C10CC0400202DE9D34FDDF82890BDF82CA099
S214000C2004460F4690461E46FFF7E0FA8346BBF1A1
S214000C30000F01D0BC4205D94FF6FF74204602B023
S214000C40BDE8D08F9BF808309E421CD1DBF804002C
S214000C503246414608F082FAA8B9B9F1000FEDD045
S214000C600DF1020201A95846FFF755FE58B9019941
S214000C7049B1BDF80230534505D15246484608F002
S214000C806DFA0028DAD00134DBF800B0A4B2CEE763
S214000C9038B50C4611462568AD1A2A46014408F0B8
S214000CA06DFA256038BD00002DE9F84F494F4A4BD4
S214000CB0D7F80090DFF84481A0EB09068246474843
S214000CC0C8F800601B1A4648034423F4FF6323F069
S214000CD007039E4278D3FFF731FB0AEB0204A0F528
S214000CE08050844273D8386800EB020BBBF5806FE7
S214000CF003D93C4B82221A7064E03B4D284408F02E
S214000D000FFA3A4BC7F800B01A6822B9BBF1330F96
S214000D1058D96A6B1A601868864206EB0B041FD80F
S214000D2084421DD900F110039C424BD38144A9EBA9
S214000D300A0A55442E4A2B4605F1100153F8040BB7
S214000D4042F8040B8B42F9D12948FFF7FFFA10B995
S214000D50244B8422CFE71022FF21284608F0EEF924
S214000D60244D254B28680BF0030BA4EB0B041C400A
S214000D7058B906EA0300C0F500612144FFF7C4FA3B
S214000D802C6040B1174B8522B5E7A04203D2211A4A
S214000D9000F50060F2E73A681349D8F80000A2EBC5
S214000DA00B02FFF793FA3A68D8F800300949A2EB2D
S214000DB00B02044613440C48C8F80030FFF768FFDF
S214000DC0002CDFD1BDE8F88F064B872293E7054B52
S214000DD0832290E7C4110020C400002010000020E9
S214000DE08FBC0000390B0020C40D0020C00D002071
S214000DF0B00D0020C811002000F8FFFF3C0B0020BB
S214000E0037B50023114C0093437A6060D0E9002187
S214000E10206802F05AFF238CDB050CD563680C4D66
S214000E201B7A2A789A4206D0012B06D0022B08D0CD
S214000E3063681B7A2B7003B030BD206802F020FF79
S214000E40F6E7206802F022FFF2E700BFCC11002090
S214000E50E106002013B50D4B0D4C1B8BADF804308E
S214000E600128ADF8003004BF02238DF8043001A934
S214000E7008BF0423206808BF8DF8003002F034FE57
S214000E802068694602F046FE02B010BD7893000066
S214000E90CC110020034B00221A611868012203219E
S214000EA002F042BBCC1100201FB502238DF806309D
S214000EB0064B5A8B596918680332ADF804206A4607
S214000EC002F09CFE009805B05DF804FBCC110020F3
S214000ED010B51E4C1946236986B023B3A2F108004C
S214000EE0084322D101AA0321206802F083FE63682A
S214000EF060615B7A23769DF80430DA1F53425341D3
S214000F00627E63F30002039BE361BDF806306276FF
S214000F10638304F1180102202369984720680122A0
S214000F20002102F06DFE06B010BD02F17F400143C5
S214000F3005D10021012006B0BDE81040184712F484
S214000F40A0411ABF00210320FF20F4E7CC110020A7
S214000F50F0B5194C194D87B0637A0133DBB2272BF5
S214000F6088BF252320466372FFF74AFF627D144937
S214000F702868E768667C4FF40073023202F01CFEB5
S214000F806B68104A5B7A06F00106D15C0391304626
S214000F90FFF760FF0123002205930399286800925B
S214000FA004AB049702F0C4FA10B1FFF773FFD3E75F
S214000FB0054B2B6107B0F0BDE4000020CC110020EB
S214000FC0F80000203994000041200000EFF3108064
S214000FD072B670470048704700F049020E49D1F8D3
S214000FE0942002F00702042A0BD8022A0FD811D147
S214000FF00A4BD1F80001C0F304200130B3FBF0F037
S2140010007047074B0748052A08BF0346F1E74FF429
S2140010100043EEE7024BECE700400E4000F04902CA
S214001020C0EA210160F5900008B5FFF7D7FF044B32
S214001030D3F80831C3F308230133B0FBF3F008BD3F
S21400104000400E4013B502460C46FFF79FFAF0B17B
S21400105022B9104BD3F80031FFF7C0FFFFF796FA1E
S214001060A8B1FFF7A9FA90B10A4BD3F80031FFF701
S214001070B5FF094B40221A611CB10190FFF790FAA8
S2140010800198002102B0BDE81040FFF7E5BA02B0B3
S21400109010BD00BF00400E4000300E40044B054A15
S2140010A09A60D3F8882042F47002C3F8882070470C
S2140010B000ED00E00000000008B5FFF785F8704777
S2140010C0FEE7000038B5C0F30323013B04460D4697
S2140010D0092B1CD8DFE803F033231C1B0526291B2D
S2140010E02C30184B0022C4F3043442B11649D1F810
S2140010F04401C00703D4D1F840010242FBD103F1FA
S214001100424303F5801304EBC3039B001D6038BD08
S214001110FFF78AFFFFF75AFA0C4B0022E3E70C4B67
S2140011200022E0E70B4B0122DDE70B4B1022DAE74B
S2140011300A4B4FF48032D6E7094B0022D3E7024B26
S2140011400022D0E7B0400E4000400E40B8400E40AF
S214001150C0400E40E0400E40E8400E40F0400E40DA
S21400116050410E402DE9F84FDFF808A13E4D9AF8A1
S2140011700070814688461646002F38D1FFF7DEF805
S2140011803A4CA0F580502060FFF7D8F8A0F5006034
S214001190606001213648FFF795FF2068082104307B
S2140011A0FFF72AF923681B68984208BF236860681F
S2140011B008BFD3F804B04FF0080100F104000CBFDC
S2140011C00127BB46FFF718F963681B68984205D1EC
S2140011D063685B685B4505D8002304E0002FFBD1FD
S2140011E0FF2300E001232B7001238AF8003095F9D5
S2140011F000305A1C28D01D4ADFF87CA052F8237015
S2140012000C373D464FF6FF7BC5F30A030833B3F5AC
S214001210006F19D2AB885B4516D0A979281D04311A
S214001220FFF7EAF82B68EC889842E4B202D1AB8864
S2140012304B450CD0033404F4FE740834254487EA86
S214001240050313EA0A0FDFD0002030700AE0337877
S214001250A342F9D3224605F10801404607F060FF95
S21400126034700120BDE8F88F10000020F80600203A
S21400127000650A007812002000F8FFFF00F00F005B
S2140012800138072844D8DFE800F0040F1943232D5F
S2140012904335244BD3F8943003F00703023B052B69
S2140012A038D8214AD05C70471E4BD3F8803003F004
S2140012B00703013B032B2FD81C4AF3E7194BD3F83F
S2140012C0843003F00703013B032B25D8184AE9E7CF
S2140012D0144BD3F8883003F00703013B032B1BD8CD
S2140012E0144ADFE70F4B1B6F13F0010F0CBF0720EC
S2140012F0092070470B4BD3F85C3103F03003202BEA
S2140013000CD0302B0CD0102B14BF012007207047B8
S2140013100020704705207047012070470420704762
S2140013200820704700400E409C930000A2930000E7
S214001330A6930000A29300000428F8B56CD8474B8B
S21400134013F800C0464B1D5C464B002970D0464C37
S214001350022834F8106060D15C6A14F0300F5CD15B
S214001360424CE46B5C6AE40705D55F6A27F03007F9
S21400137047F010075F623E4C3A4B25441E66AD00B0
S2140013802B68002BFCD0002A46D06444A4002368B7
S214001390002BFCD002283FD100293DD0314B5A6AA1
S2140013A0D1073CD54FF48062C3F8A82020225A66A5
S2140013B05A6A12F0300F0CBF4FF440024FF400028E
S2140013C0D3F8901032EA0101FAD1520201D5D3F8CF
S2140013D0A030244D012200210220D5F89C70FFF792
S2140013E0ABFFD5F890306A6A224B22F0300242F00A
S2140013F010026A62C7F30A07296BFA0903320F2A3A
S21400140003EA010328BF0F223B4343EA02732B6320
S2140014102E662368002BFCD0F8BD0021ABE75A6A85
S214001420D3F8902002F44002B2F5400FF8D1CEE790
S214001430114931F810101966012101FA05F5D3F8A3
S21400144090102942FBD1002AE6D00124054A04FA6E
S2140014500CF4D2F890302342FBD1DDE7AA930000CB
S214001460AF93000000400E40B493000000300E40E2
S2140014708004F21000F8FF0FBE9300001128F8B5A4
S21400148005460C4611D104290FD16248614E002151
S214001490FFF7D8FD05F00F056B1E072B61D8DFE8B8
S2140014A003F011065C605A7B60860026F2E75A4D10
S2140014B0013C092C55D8DFE804F06D555C545463A4
S2140014C054545452023C0A2C4BD8DFE804F03F3CFC
S2140014D031374A4A4A4A4A06420003200525012275
S2140014E01146FFF729FF4D4C4A48276C41F67133E9
S2140014F023640021FFF78CF80FB1002323640EB19C
S214001500FFF74EF8464B5D67FFF78EFD0446FFF784
S21400151065FDFFF75BF8FFF74FF801462046FFF73B
S2140015209BF8F6B930460121BDE8F840FFF78ABDC2
S2140015303C48FFF74BF802200546D0E73948FFF74E
S21400154045F80320CBE701200325C8E70020042543
S214001550C5E70725C7E7344DAAE7344DA8E70423B7
S2140015602B60F8BD012211460020FFF7E5FE02239E
S214001570F6E7012211461046FFF7DEFE0123EFE7ED
S214001580FFF72CFDFFF722F8294B0122C3F80826A7
S2140015900323E5E70023E3E7072C04D0092CE0D17A
S2140015A01F4B012201E01E4B00221A67D9E7013CBF
S2140015B0072CD6D801A353F824F000BF0F1600005E
S2140015C06315000063150000011600006315000097
S2140015D063150000F3150000DD1500000322104916
S2140015E0D1F85C3123F0300343EA0213C1F85C31D2
S2140015F0B7E7012211460420FFF79EFE0122EEE720
S214001600012211460220FFF797FE0222E7E700229A
S214001610E5E700BF00F0490280400E4000000E40A3
S21400162000400E400148E80188400E4084400E40CD
S2140016300010C84300B962B6704700002DE9F041BB
S2140016400D4F06460D4614460CB9BDE8F081EFF383
S214001650108872B623462A4631463846FFF758FAAF
S21400166003464046FFF7E6FF002BEDD0E41AA4B28F
S2140016701D440026E8E700BF740C002013B50023C5
S21400168001F10804ADF80430ADF8060021461A460C
S21400169051F8080C083170B90BB1ADF804200422DB
S2140016A00DEB020101200834FFF7C8FF54F8101CA8
S2140016B039B902B010BD51F80C3C1A4492B201235D
S2140016C0E6E734F80C2C0020EDE700007FB501308B
S2140016D0002380B2CDE90101CDE904336946044B0D
S2140016E0009304200392FFF7C9FF07B05DF804FBE0
S2140016F0920100200D4AD2F82838A3F17E63A3F5A4
S2140017008433B3F5104F10B50FD2EFF3108072B6D6
S214001710074B197800241C70FFF78CFF29B1D2F80C
S2140017202838BDE810401B6A184710BD0000E10FBE
S2140017308D0D002001282DE9F34740F03E818B886F
S214001740012B40F03C810B681C7814BB9E4B9F4DD0
S2140017501C609F4B1C609F4B1C609F4B1C609F4BEC
S2140017601C609F4B1C709F4B1C609F4B1C602B7813
S214001770022B01D1FFF7BEFF9C4A01232B700023EA
S21400178013709B4A13709B4A1370204602B0BDE844
S214001790F087032C40F0FF80964B8C4E1C78002C74
S2140017A040F08D803378002B00F0E9808C4B1B785E
S2140017B0082B40F08780DFF81082D8F8000090B938
S2140017C08D4DD5F82838A3F17E63A3F58433B3F5A1
S2140017D0104F55D34FF4017041F20804A0420CBFDD
S2140017E0862480246BE010F003071ABFC7F10407B5
S2140017F0FFB2274600EB070ABAF5806F00F2C580F5
S2140018007E4BDFF8E0913A46FF21184407F096FC3D
S2140018107B4AD9F800301268C8F800A00AEB03012A
S214001820914200F2B6806A4A15681D445544DFF8B6
S214001830ACA125F4FF65DAF8000025F0070585421F
S21400184007D9291A00F50060FEF75EFDB0B9CAF8A0
S2140018500050D8F80010D9F80000FEF7F9FFD9F8C4
S2140018600030D8F80020584913440546DB1B63486F
S214001870C9F80030FFF70CFA002DA1D085241EE031
S214001880FEF7A8FF0028A7D1D5F828280190A2F1D6
S2140018907E63A3F58433B3F5104FEFD2126BA2F13B
S2140018A07E63A3F58433B3F5104FE7D29369012125
S2140018B001A898470028E1D14D4B01221A70002359
S2140018C0337062E7002B5CD0484B1B78002B5AD055
S2140018D0454F3B6843B9404B4A4918681022FEF70B
S2140018E0F5FC0028EBD0C9E713F003021CBFC2F1D9
S2140018F00402D2B29D18B5F5806F46D84248DFF88C
S214001900D480FF21184407F019FC404A404B414957
S2140019103D609B1A404A1344D8F800200B4093427F
S21400192035D8FEF70BFD1544A0F58050854230D81B
S2140019303D68DFF8A8902A44D9F8000002EA0105BD
S214001940854208D9291A00F50060FEF7DDFC00285C
S21400195094D1C9F800503A682B49D8F80000FEF731
S214001960B5FCD8F800303A681F49054613442648A7
S214001970C8F80030FFF78CF9002DACD07EE7812444
S2140019809DE784249BE7802499E7822497E78724B1
S21400199095E7832493E7042C13D1204813230221D0
S2140019A043700170FEF7F6FF1D4A1E4B1289053282
S2140019B09A801D4A1A6042789A710024E5E60D2442
S2140019C0E3E60624E1E600BF340B00203A0B0020D5
S2140019D0701200203C0B0020C00D0020C811002013
S2140019E08C010020400B0020C4110020380B002082
S2140019F099010020390B00200000E10F3407002079
S214001A0074120020B00D0020C40D0020100000202D
S214001A10C400002000F8FFFF8FBC0000A40D0020CB
S214001A2084060020900D0020452500000D4AD2F8BF
S214001A302838A3F17E63A3F58433B3F5104F10B5B1
S214001A400FD2EFF3108072B6074B197801241C7082
S214001A50FFF7F0FD29B9D2F82838BDE81040DB6959
S214001A60184710BD0000E10F8D0D00202DE9F04F46
S214001A70012891B004D00024204611B0BDE8F08FB4
S214001A808A88002A00F0D981AA4F97F800A0BAF1F8
S214001A90000F00F0D481A84D2C78002CECD1DFF894
S214001AA0CCB29BF80040002CE5D1A44E306802EB87
S214001AB00009B9F5806F02D982242C70DCE7DFF8C4
S214001AC098820968404407F02BFBBAF1020FC6F86B
S214001AD000903CD0B9F1030FCDD99948FEF7AEFB84
S214001AE00378D8F80020012B47D14368190E012946
S214001AF003D1C3F307430A2B47D9924B9A4240F0CF
S214001B00E8808368DA033ED502233B70FFF78EFF3A
S214001B108D4BD3F82828A2F17E63A3F58433B3F562
S214001B20104F0BD2126BA2F17E63A3F58433B3F58C
S214001B30104F03D2936809A900209847834B099A4F
S214001B401A60834B0A9A1A603B78022B93D1DFF80F
S214001B5020A233689AF80020082A4CD1DFF80082C9
S214001B607B49D8F80000096803F00309C218A2EB05
S214001B7009028A420BD983249FE7724CA2420CBF0B
S214001B808624842499E7862497E7882495E76F4A75
S214001B9017681F4407446F4BA7EB0907186827F41C
S214001BA0FF6727F00707874209D9391A00F5006052
S214001BB0FEF7AAFB674B08B185247EE71F603168F5
S214001BC0D8F80000A1EB0901FEF742FE3268D8F80B
S214001BD000305A49A2EB0902074613445E48C8F88B
S214001BE00030FFF755F8002FE6D19AF80030002BAA
S214001BF07FF441AF01E0002A6DD133687F2B7FF67A
S214001C003AAFDFF86081D8F8000028BB4E4BD3F817
S214001C102838A3F17E63A3F58433B3F5104F15D2AD
S214001C200123CDE90A0009A88DF82430FEF706FB4B
S214001C300A9B1A0E7BD0012A03D1C3F307430A2B53
S214001C4075D9414BD3F828389B6B9847434B18609F
S214001C5007F07CFAC8F800003B4FD7F82828A2F116
S214001C607E63A3F58433B3F5104FA5D2936A3B4A3F
S214001C70D8F800001168984700289DD1D7F8283872
S214001C80A3F17E63A3F58433B3F5104F21D201236D
S214001C90CDE9070032688DF8183006A8D8F800900D
S214001CA00392FEF7CBFA079B190E12D00129039A6E
S214001CB003D1C3F307430A2B0BD9234B05A9D3F84B
S214001CC0283800915F6B244909AB4846B84700287E
S214001CD050D08424F1E622490A681A440A601A4A57
S214001CE0D2F82818A1F17E62A2F58432B2F5104F20
S214001CF013D21C48CF6A184A1B490068B8470746E3
S214001D0032680E491448FEF7C3FF40F203239F4291
S214001D1006D101238BF80030AEE640F20227EFE74B
S214001D2040F201239F423FF460AF8024C5E64FF4A3
S214001D30C0708BE73A0B0020390B0020340B0020D4
S214001D40B0010020EB17A6030000E10F7012002080
S214001D5074120020C811002034070020580B002001
S214001D60400B0020540B0020440B0020380B0020B2
S214001D708C0100209DF824308AF800300393FEF78B
S214001D8007FB039B074648B3D0F83490002B3FF47C
S214001D9073AE0022069204228DF8132006A90DF1D8
S214001DA0130235200393FFF7DDF9069AD30719D5FA
S214001DB0039B082B14D0B9F1000F42D04B461022DB
S214001DC00CA903F12800039307F0C8F920B9039B78
S214001DD00A9A1B6A9A4205D889246EE68146D5E798
S214001DE0364BECE797B14FF400613846FEF78CFAB5
S214001DF000287FF4E1AE29F4FF604FF4006120F084
S214001E000700FEF781FA00287FF4D6AE9AF8003075
S214001E10082B18D12A4B2B4A186820F4FF6323F0AE
S214001E2007034FF400611360FEF76EFA00283FF4D4
S214001E3023AEC1E640F202272FE00D241CE68124E3
S214001E401AE6002FCFD1204F204BDFF890907B6012
S214001E50D9F82828A2F17E63A3F58433B3F5104F92
S214001E60BFF4AAAE936A1A4AD8F8000011689847D9
S214001E7000287FF4A1AED9F82828A2F17E63A3F546
S214001E808433B3F5104FD5D2D2F82C903368114A6C
S214001E90D8F800003946C847074632680E490D484C
S214001EA0FEF7F6FE40F203239F423FF432AF40F2C5
S214001EB001239F423FF4E0AD37E700BFD093000018
S214001EC070120020C8110020440B0020A90C00004E
S214001ED0580B002034070020340B00200000E10FD0
S214001EE008B50F4B0F4C1B784FF000556BB1FFF742
S214001EF09DFD0D4B2B600123A360236823F4E06354
S214001F0043F480632360FEF75FF92B600123A36030
S214001F10236823F4E06343F480632360FEF754F9F8
S214001F209901002000500E4002020FF010B5164C2A
S214001F30A37E5B0626D4FEF7ADFFA18C226840F296
S214001F40E24303FB01222260A37A94F84F20134455
S214001F502522B3FBF2F002FB10332289A372013272
S214001F60636822810A2202FB01336360238B5A1EB8
S214001F7022833BB9A27E42F04002A276034A137047
S214001F80FFF7AEFF10BD00BF84060020E00600206D
S214001F90F0B5254CA37E5A0687B040D4234A218943
S214001FA023F0070343F00103A37613681BB192885E
S214001FB08A4200D19847A37A1D48234493F82A30D2
S214001FC06375FEF71DFFD4E900561A4C1A4A63687B
S214001FD05B7A7708D15C0191A5EB56060120FEF7E7
S214001FE039FF643502964FF4807300260199ADF8E8
S214001FF014303D4402AA2068049533468DF80C60E0
S2140020008DF8166001F0BAFA0122054631462068BE
S21400201001F0F6FD2DB1FFF789FFFFF7B9FF07B016
S214002020F0BD064B2361FAE784060020900D0020E1
S21400203090060020CC11002039940000A921000051
S21400204002282DE9F0411DD002D8012807D0FEE76E
S214002050032800F09E80FF2800F09B80F7E74E4C98
S214002060637C990707D5FEF715FFFEF771FF637CC3
S2140020706FF341036374637CDA0768D4BDE8F0410C
S214002080FEF766BF4B78DB0740F183804C6822780A
S21400209002F00F08B8F1030F5BD0B8F1050F78D146
S2140020A03E498B7B03F00103B3EBD21F4FD10622D0
S2140020B0083104F1080007F051F80646002846D11A
S2140020C0FEF7E8FEFEF7F0FE354D314607465C2289
S2140020D0284607F033F8AB7EA5F8188043F02003B7
S2140020E0AB76627E237E43EA0223AB84627F237F45
S2140020F043EA0223EB8494F82330C3F3040385F801
S2140021004F3094F82330C3F3421385F8503004F16F
S2140021101E001B232B85FEF791F9D4F80E30E27CC7
S214002120EB60A37C2F6043EA0223227D607D43EAB6
S21400213002432B61012695F84F30AB722E75E18A6B
S2140021403144FEF7B7F9FFF723FF164B1E70BDE8C4
S214002150F081124DAB7B03F00103B3EBD21FF6D137
S214002160062205F1080104F1080006F0F7FF002832
S214002170EDD1094C286894F83D204FF400730232E4
S21400218004F13C0101F018FD637C43F00203637424
S214002190DDE7FEF77FFE71E7E4000020CC110020AB
S2140021A084060020E006002002282DE9F34780463A
S2140021B00C460BD003D8012800F0AE81FEE70328BA
S2140021C000F0B081FF2800F0AD81F7E74B78AB4D0B
S2140021D013F0010300F0BC804A68AF7E117892F8D5
S2140021E00090C1F3001161F38207AF76C9F3C00116
S2140021F0C7F30017B94240F0A88009F0030102298E
S21400220000F0A180032918D0012940F09E804FF0ED
S214002210000A567896B19A48818AFEF795F90B1A05
S2140022209BB2BAF1000F04D0022B86BF023B9BB2D2
S21400223000239E428CBF002301231E46A97EC9F3BD
S2140022408009C1F3C002914508D082F00102D20095
S21400225042F0200221F028010A43AA762BB1AB7E79
S21400226087F0010767F30413AB76AB7E854F13F058
S214002270200F11D0696D6FF34513AB76002969D036
S2140022803B7895F858207A7043F003033B70B81CEF
S21400229006F046FF00236B657B487A49FEF754F943
S2140022A0AB7E003818BF012060F34103C3F3C002C1
S2140022B0AB76C3F300139B0043EAC20343EA001065
S2140022C03B787A7823F01C03184338706F4F02323D
S2140022D04FF400733868D2B201F06EFCAB7E6468CF
S2140022E0D90709D56FF30003AB7600236B60FEF7C2
S2140022F0DBFD2860FEF7F2F8002E00F0A1802378C0
S21400230003F00303022B05D0032B3DD0012B40F036
S214002310978000265A486578818AFEF715F9081ACC
S21400232080B226B1022886BF023880B200208542DD
S214002330ABB200F285805248A21C314602B0BDE81E
S214002340F047FEF7E5BB9A4663E70026334675E797
S2140023501E468AE795F828304B48BA1C0DF107014F
S214002360FEF773FB10F0FF000BD09DF80730002B34
S21400237008BF4FF001083B78787068F301033B70A4
S2140023808AE74FF00108F6E7A3780C2B0AD80C2B47
S2140023900AD8DFE803F03F2B580909090909600944
S2140023A009091800142B7FD0394A12782AB1162B47
S2140023B000F09680182B00F0A280364807220270A4
S2140023C0437002210DE033480C234FF0FF320370B8
S2140023D0012343708270037102220023C27043718E
S2140023E0062102B0BDE8F047FEF7D4BA617A237A38
S2140023F0294A43EA012393801346284943F8061BDB
S214002400D4F80310C2F80610B4F807209A80627A4F
S2140024109A7115E0627B237B1F4943EA02238B8077
S2140024200B461F4A43F8062BD4F80320C1F80620B3
S214002430D4F807205A60B4F80B201A81627B9A728F
S21400244002B0BDE8F0872A89134B05329A80154AF8
S2140024501A60E278DCE7D4F803303A8C0D48134073
S21400246003F0FF0322F0FF0213430246092102F89D
S214002470011BC0F8013000235360B2E78406002039
S2140024805C0B00207C120020740C0020CC11002075
S2140024908C0D0020A40D0020900D0020A10400004B
S2140024A01905000045250000B4F80530B4F80320EF
S2140024B02048DB08934228BF13462B8515230021AE
S2140024C06FF004046FF02702037007238170817198
S2140024D04470C27003714471C2710372092180E7AF
S2140024E02279E3781348134003F00303022B18BF46
S2140024F001231722027043708370032171E762790B
S214002500A1790D4B42EA01229A800C4A1A60D4F84F
S2140025100320C3F8062093E7094B9B7E9A078FD4C7
S2140025205B078DD4FFF702FD02B0BDE8F047FFF76A
S2140025302FBD00BFA40D0020900D00202504000034
S21400254084060020054A08B5937E43F04003937640
S214002550034B00221A70FFF7C3FC00BF840600205E
S214002560E0060020EFF3108072B67047FFF762B8FF
S214002570064A074BD3F88039136F23F00703184336
S214002580044B10671888FEF7BFB800BF00300E4037
S2140025900000C643000700202DE98048774B5B68A3
S2140025A05A05A5B01BD44FF0005300221A601CA891
S2140025B0FDF744FEFDF7ECFEC0B1446BFFF736FABC
S2140025C01E9B5B0740F1AF80FDF7E2FEFDF76EFE57
S2140025D00446FFF78FF8002C40F0BC8006E04FF072
S2140025E000531A68022ADED100221A60BFF34F8F0A
S2140025F0BFF36F8F624B634C5A6A634F634922F492
S21400260080325A62D3F8942022F00102C3F8942054
S2140026102068C3F898004FF00052C3F89C20451C71
S2140026205B4AC3F8A0208F42256050D07E1E731AE6
S21400263043EA530343EA930343EA131343EA132399
S21400264043EA13430133B3F5807F38BF4FF48073FA
S214002650C3F1000C0CEA010C03EB0C02974200F2EB
S2140026608A80072BA2EB07024FF001078CBF4FEAC8
S214002670D30E4FF0200EB2FBFEF207FA02F2013A3A
S214002680D2B2A6EB0C06A1EB0C01B6FBFEF6B1FB34
S214002690FEFE3E4407FA0EF7013FB240B3FA83F35C
S2140026A03A4302F0FF07C3F11E02520002F03E0258
S2140026B042EA0722324B42F0407242F001120230E8
S2140026C0C3F89850C3F89CC0C3F8A0202060BFF39E
S2140026D04F8FBFF36F8F2A4B0522C3F894205A6A98
S2140026E042F480325A62BFF34F8FBFF36F8F294B8D
S2140026F001225A64284BD3F8FC20284B120E4FD1E7
S2140027004AF6E851C3F89011D3F8981141F0040145
S214002710C3F89811C3F89021D3F8642142F400520C
S214002720C3F864213EE014B9FEF7E4FF5EE7FDF768
S21400273005FE8442F8D2FDF701FE04F14003834211
S214002740F2D82046FDF702FE0028EDD063696BB98B
S214002750FEF7D0FFFDF71CFE0446FDF719FE084BFA
S214002760986023689D46636898473FE79DF87030F9
S214002770012BEDD128E75B006AE700BF00500E4052
S21400278000ED00E00C120020BC000020BC00002081
S2140027903900011300000E400081E00F00300E40AB
S2140027A0012AB9D0B94A136A23F4441343F48813B0
S2140027B01362A2F58042136843F480731360B44B2F
S2140027C0D3F8A42142F4F842C3F8A42102229A6363
S2140027D09A6B02F00F02022A40F0EC80DA6C22F0CC
S2140027E0405222F0010242F00102DA64D3F8EC20F3
S2140027F042F44072C3F8EC20A64A0F211180DA6E2C
S21400280042F08072DA66A44BD3F8800900B1042047
S214002810FFF7AEFEA14B9E4DC8221A80A04BA02209
S2140028200F2000241A80FDF76FFF9E4BAB65CDE9A5
S2140028301444CDE91C449C4BD3F81832C3F307224A
S214002840DBB21E921693EE6CC6F301762246334632
S2140028501CA914A8FDF70EFFD5F8EC50C5F301250A
S21400286022462B461DA915A8FDF704FF1E98169BA9
S2140028704FF41672C11A5143B1FBF2F29B1828BFEF
S21400288001249842C0F09680002C40F093801D9A58
S214002890159C4FF41677101B7843B0FBF7F02418FE
S2140028A02CBF01210021A242C0F08480002940F004
S2140028B081801C981499421A7A43B2FBF7F2891861
S2140028C02CBF01220022884274D3002A72D170489D
S2140028D0C26D22F4FE4222F0020242EA0322724B4A
S2140028E0C265022ED3F8302200F0FC80032E00F0E2
S2140028F0FC80012E14BFD2B2C2F30722120312F4D8
S214002900702F57D16248C36E23F470431A43664B48
S214002910C266022DD3F8302200F0E980032D00F0C5
S214002920E980012D14BFD2B2C2F30722120312F4BB
S214002930702F3FD1564BD3F8EC0020F47040024382
S214002940C3F8EC205A6EA14238BF2146E72922F48C
S214002950FF7228BFE72122F0010242EA41025A66CE
S214002960DA6B42F48062DA634AF6E852596B5A63CD
S2140029709A6FD707FCD41B6C474A13F0030300F08A
S214002980E5840123C2F8B43A414B9A6FD607FCD4CB
S2140029901A6C22F003021A649A6F12F00102FBD13D
S2140029A03D480129C0F8B42A08BF5A633A4B0122B1
S2140029B0C3F89427354C3D4E1120FEF75FFC0021EE
S2140029C001220220FEF7B8FC636A23F0010363626B
S2140029D0374B0025C3F8A054A36A23F0070343F03F
S2140029E00603A362334BE362226B334B02F07F6233
S2140029F013432363314B636304211120FEF73EFD2E
S214002A00234B304601211B68FEF71CFBFDF7D4FD67
S214002A1001463046FDF720FED4F80001C0F304203E
S214002A200130B6FBF0F0FDF7D1FD01221146022081
S214002A30FEF782FC636A224E43F040536362D4F88A
S214002A40C83043F00103C4F8C830174BD3F8D83069
S214002A50B365042406AA08A935208DF81840089501
S214002A60FEF780FB089A8DF81640062312F4803F86
S214002A708DF8173009AC40F095820DF1170221460B
S214002A802C20FEF76FFB002849D01BE000400E40CC
S214002A9000300E40000700200000C643020700205A
S214002AA004070020372110B70081E00F00F049022C
S214002AB00000C8432000050007450BD047A00200D1
S214002AC0005008400DF1160207A93C20FEF74AFB0D
S214002AD018B19DF81C0000F001009DF82A3060F344
S214002AE0000318E0C2F3074208E7120E06E7C2F337
S214002AF007421BE7120E19E7B16D02F8011B013BF6
S214002B00FAD29DF8293063F03F038DF829309DF8FE
S214002B102A3043F001038DF82A30BF4B5C60BF4B70
S214002B20BF4A9A6000244FF48071C3E900225961BD
S214002B301C82BC4BBC4A5961BC489A60C3E900225F
S214002B401C8200F045FCBA48BA4B03602146BA4BDB
S214002B50436000F0C3FCAEA3D3E90023B74EB84DE4
S214002B603060CDE900234FF0FF334FF0FF3200F026
S214002B70D3FF02224FF0FF31306800F0CFFF0DF197
S214002B80700A3C239422CDE91C321E9351469623AC
S214002B9030682294CDE920441F9300F089FD306808
S214002BA02C70294600F0E2FF28B1012330682B7014
S214002BB0294600F0DBFF984C3068DFF81C9301F0E4
S214002BC05CF8B4F900202978306800F011FC014662
S214002BD0306800F0B8FF6468002C40F0E581484695
S214002BE0FDF7C0FCB37B64F30003B373954B964CC0
S214002BF0964DDFF8E882202783F801735C2283F87D
S214002C000473002183F8067304F1080083F8077341
S214002C1083F8057383F8087383F81D7306F08EFA3D
S214002C2042F21073E3608A4B8A4AC4E9005342F2C8
S214002C30015323814FF49073338401231370864D20
S214002C408DF814300022C8F800201B222A800DF1CF
S214002C50150105AA3E20FEF785FA11230DF1130291
S214002C600FA936208DF81330FEF77CFA0DF112020C
S214002C70514639208DF81270FEF774FA90BB774BE8
S214002C809DF8132018681B791C908AF80430002AD7
S214002C9000F093811B2A28BF1B22531D8DF812308B
S214002CA00FA9531C0DF175008DF8733006F038FA35
S214002CB014A8FDF757FC6A4A9DF8123012882AF8C5
S214002CC0032024A99A1C51FA82F20021149802F8D3
S214002CD0201C0933BDF8541042F81F0C22F81B1CA8
S214002CE08DF8123020230DF1110214A93A208DF828
S214002CF01130FEF737FA48B95A4B5A8B1B7F8DF8BE
S214002D0052300323ADF850208DF81130564B5748FB
S214002D1000220227C3E90022554B03600771FDF726
S214002D2029FE5448544B0360102303720771FDF7C5
S214002D3027FF5248524B0360524B0771C36007721D
S214002D400782CDE900373B4690E806001430FDF7D1
S214002D50A5FD9DF81310002900F03A810FA8FDF795
S214002D6039FF4948494B036010270771FDF702FEFB
S214002D704748484B484A03604FF6FE7B08230372D9
S214002D80C260A0F810B00771FDF7FAFE4348444A47
S214002D9002600C220272434AC260A0F810B00771AB
S214002DA0FDF7EEFE4048414A02604FF0020B404AF3
S214002DB0C26008230382077180F808B0FDF7E0FEC2
S214002DC03C483D4B03603D4BC360012303820771C3
S214002DD080F808B0FDF7D4FE39483A4B03603A4B0A
S214002DE0C3604FF6FE730382077180F808B0FDF7E4
S214002DF0C7FE3648364B0360364BC3604FF6FE734D
S214002E000382077180F808B0FDF7BAFE68E000BFDD
S214002E1008550051000000009C010020740C0020A2
S214002E208C0C00205C0B0020740B002074940000B7
S214002E30FC110020D10E0000F0110020CC11002063
S214002E401400002000E100E0E4000020D6BE898ED9
S214002E50555555008C0D00208E010020E59200008F
S214002E60EF92000078930000E40600203012002065
S214002E70F292000024050020F592000008070020CA
S214002E80F89200009693000050120020FB9200007B
S214002E907C0500200C93000035170000D4050020A8
S214002EA01D9300006D1A00001C0400202E930000E5
S214002EB0C89300002C0600203F93000038940000C2
S214002EC0740400205093000091020000C403002008
S214002ED061930000A9090000D4110020C00300205F
S214002EE0B14BB24A1A604FF6FF729A809DF81220D4
S214002EF0202A05D8931DAE486375514606F010F992
S214002F009DF81120202A06D8931DAA4884F83D3043
S214002F1014A906F005F9FDF7BDFF227C617CB2FA24
S214002F2082F35B0963F30001237D617462F303039C
S214002F30B27B02F0010262F386132375637D0BB940
S214002F40062363759C4BB9F80410B068C4F81600E5
S214002F50998094F83C30042161F3030362F38613EE
S214002F6084F83C3094F83D3013B9062384F83D309D
S214002F70924BB068B9F80420C4F83E009A80FDF77A
S214002F80E7FF8F4E8F4B1B782BB1DFF848924846F1
S214002F90FDF7DAFAF8B98C4A136923F004031361D3
S214002FA030BFEFE72246AAE52068B060A288A37982
S214002FB089F80630A9F8042018E608238DF81230A0
S214002FC0824B1A889B78ADF875208DF877306FE6BF
S214002FD07E480321C3E6EFF3108472B600231A4638
S214002FE00DF119014846FDF730FD2046FEF722FB9D
S214002FF09DF8193013B10023C8F80030D8F8002027
S214003000EFF3108472B6C2F501739BB232440DF131
S21400301019014846FDF719FD03462046FEF70AFB50
S214003020D8F8000018440328C8F80000AFD9348840
S214003030231D9842ABD307D8708804284FF00003AE
S21400304006D0062800F078810023C8F800309EE7F6
S21400305032796B8004F1FF3A122A1FFA8AFA18D8DE
S214003060012A19D9931E5A4F102B15D8DFE813F0F2
S214003070160014002C00140046001400F100140082
S2140030807A00140014001400140014001E0114002A
S214003090C400522A00F0CA800622A4E0BAF1020F49
S2140030A040F04881B6F805400022B4F5007F28BFFE
S2140030B04FF400740323114650463B70A7F80140B6
S2140030C0FEF704FB2C80BFE7BAF1040F40F08B80BC
S2140030D0B6F80540A0B2FDF789F860B1027A7C80A8
S2140030E0022A4FF005010CBF012302233970416804
S2140030F07B70032055E06C800A2274E0073CDFF802
S214003100D8B0CDF800B0A4B20194B6F80710B6F85F
S21400311005000223ABF10202FDF77CFD4FF6FF7AB5
S2140031205045044604D17368C3F30F236B80E3E76E
S21400313000230130CDE90033ABF1020202235146F1
S21400314080B2FDF767FD50451CBF00F1FF3080B22E
S21400315007233B70A7F80140A7F80300002211469A
S21400316004201EE0BAF1020F40F0E480B6F8050035
S214003170FDF73CF8002855D0037B99072ED52B8801
S214003180013BADF81A300DF11A02B6F805000BA98E
S214003190FDF7DEFB024610BB0B23BDF81A200B9989
S2140031A03B70FEF793FA4FE7EC060020E40600209B
S2140031B00001002028010020FA0000202201002043
S2140031C0BC010020E006002000ED00E0EB920000CD
S2140031D0920100205C0B0020C70100205246736855
S2140031E0C3F30F236B805B4B3079698858700124DA
S2140031F01C7059801A71B1E7B6F80500FCF7F6FFA7
S21400320080B1037B1A070FD5E21E92B25249B6F878
S2140032100500FDF767FB02460028E0D113233B704C
S2140032200146BEE70122DAE70322D8E7B6F8050032
S214003230FCF7DCFF00283FF407AF037B5B077FF556
S21400324003AFE21E4449B6F8050092B2FDF74AFB0A
S214003250FAE6631F9BB2022B01D0102B6AD1002224
S214003260CDE90022DBB23D4AB6F80710B6F80500F5
S214003270FDF7D0FC4FF6FF73984204463FF453AF79
S2140032802B880DF11A02043B0BA9ADF81A30FDF796
S2140032905FFB024608B16C80A5E7BDF81A200B99C3
S2140032A07C8009233B70931C7B7022E7631F9BB2D4
S2140032B0022B01D0102B3DD14FF0000ACDE900AA19
S2140032C0DBB20393254AB6F80710B6F80500FDF7FB
S2140032D0A1FC4FF6FF7B5845039B04463FF423AF03
S2140032E00130CDE900AA1D4A594680B2FDF792FC8E
S2140032F02B8858458246A3F1060318BF00F1FF3A13
S2140033000DF11A020BA9204618BF1FFA8AFAADF86B
S2140033101A30FDF71DFB02460028BCD1BDF81A2066
S2140033200B997C8011233B70131D7B70A7F804A0BB
S214003330052036E7042256E7CDE90D33084B0B93FC
S2140033400BA902230C93FEF799F97DE6C2F8B43A6E
S214003350FFF72CBB92010020C3010020C50100200E
S214003360110000200D4AD2F8E430D2F8E0109B009D
S21400337003F03C03C1F381110B438370D2F8E030B5
S21400338003F03F034370D2F8E830D2F8EC2003F0A5
S214003390F003C2F3031213430370704700FF0FE0FD
S2140033A0FEE7000008B5FDF779FE064B0649074A1A
S2140033B08B4201D3FCF7CEFE52F8040B43F8040B05
S2140033C0F6E700BF10000020C400002050B4000044
S2140033D038B5044600F0DBFB0FCC044D0FC594E86F
S2140033E00F0085E80F00002038BD00BF7C130020CA
S2140033F047F6FF739A42F0B569D0022969D8364B72
S21400340003EBC105CF00A87813F83110012838BFA8
S21400341001200129044613D1EB781B1A002098429C
S21400342002D3E018C0B2F0BD191AA3EB51016E68C2
S21400343036F911609642CCBF01F1FF330846EEE73D
S21400344068680028EFD0B0F90010914204DBB0F9AC
S21400345002109142B8BF114682883B44FF2A08BF3B
S214003460B0F906205F7807BFB0F90860012500258F
S214003470C82207F1FF3318BF2826521A92FBF6F22D
S2140034802A44934228BF134600EBC3054FF47A7EC6
S214003490AE68EA8811FB02621E46013322EAE27237
S2140034A09F4202F5FA72AC46B2FBFEF205D9BCF8B2
S2140034B00CC0944505F10805EAD200EBC6008088EA
S2140034C0904228BF1046A04238BF2046AAE7FF20F9
S2140034D0A9E70020A7E700BF7C130020F8B50D463B
S2140034E010B900242046F8BD0E4F3E68002EF8D1D5
S2140034F000F082F804460028F3D0386000F0B0F8F8
S214003500204600F0A2F838B130463E6000F0A8F839
S214003510204600F095F8E4E7002DE3D02046A847C3
S214003520E0E700BF9C1300200846114600F0AAB84A
S214003530F7B5114D04466E680F4600200121CDE90F
S2140035400032B047DDE9003206463946204604F030
S21400355049FD044618B92B680120984704463EB139
S21400356000F0C6FB00B91CB100216B6808469847FE
S214003570204603B0F0BD00BF28000020F7B5104D70
S214003580019204466B680F46002001219847019A75
S21400359006463946204600F0C3FA044618B92B689A
S2140035A00120984704463EB100F0A2FB00B91CB1CA
S2140035B000216B6808469847204603B0F0BD00BF60
S2140035C02800002070470000431E033306D8044B33
S2140035D0984228BF1846642838BF6420704700BF4A
S2140035E040420F00431E012B03D9031F5842584187
S2140035F07047012070470000F8B50546FDF7E6FC69
S2140036000E4B1E68074626B93846FEF713F83446B2
S21400361010E0B46884B1237C9C46DB070CD495E8A4
S2140036200F004CF0010C84E80F0084F810C03846F8
S214003630FEF700F82046F8BD3668E4E71C000020D8
S2140036404FF4A472002105F079BD10B500210446A0
S21400365000F077FA2046BDE8104004F00FBB0000EB
S21400366010B5044618B9054B054A136010BD03F0A3
S214003670C7FCD4F89430002BF6D1F4E7C53500002B
S2140036802000002010B50C4603F0D0FC1CB103F05F
S21400369023FD0128FBD1034BBDE810405B680021E9
S2140036A0032018472800002003F02CBE03F040BE7D
S2140036B008B502460868FFF787FF08604868FFF706
S2140036C083FF48608868FFF77FFF8860C868FFF759
S2140036D07BFF0B69C860581C03D00B48834228BF89
S2140036E003460B614B69581C03D00748834228BF2A
S2140036F0034688694B61FFF767FFBDE808408861AD
S214003700104604F011BB00BF40420F002DE9F84FF1
S214003710D0F88C3007460E4613B1038B8B4246D04A
S214003720D7F888B0BBF1000F44D0DBF80830002B88
S21400373040D0DBF80C20002A3CD0D7F89CA0BAF189
S214003740000F3AD04FF000094D46C84601E0DBF8BE
S2140037500830C5EBC50403EB84040135E389B342A6
S21400376016D8238AB342384612D3B4F91230B7F9C2
S21400377024109942A04603EAE37250DD97F8D4106D
S214003780FFF736FE7B7D8342814648D9DBF80C2066
S2140037909542DCD3B8F1000F29D0002342461946E3
S2140037A03846D0473E83C7F88C8087F8DD900020E7
S2140037B0BDE8F88F0320BDE8F88FD1465446514641
S2140037C047F6FF75C4EBC40803EB8808B8F80E305C
S2140037D0B3421AD8B8F81030B34216D3B8F912204C
S2140037E0AA4202EAE27204D14FF0FF09DAE70120AA
S2140037F0DEE797F8D4103846FFF7FAFD7B7D834264
S21400380081464146CED9DBF80C200134A24202D9CB
S214003810DBF80830D6E70029E9D08846C2E7A0469C
S214003820BBE700BF2DE9F041D0F89C8082B004468B
S2140038301E460D4617468DF80730B8F1000F2ED0FD
S21400384000220DF107031146C0471A491A4A0D60B7
S2140038501A4BD4F8881011602046D4F88C201A60D1
S21400386003F0B0FE05461FB9284602B0BDE8F08159
S214003870B0FA80F040F20D323321400900F0D8F95A
S2140038803146204604F044F90D4BD4F88C101B68E2
S214003890054620469847284602B0BDE8F081417D9F
S2140038A090F8DD30994228BF1946324603F01FFED5
S2140038B0CBE700BFA0130020A4130020A81300200D
S2140038C0200000202DE9F04383B005460E4614463E
S2140038D01F4604F094FB04F09BFB00283CD1DFF865
S2140038E01481D8F800301BB1D5F88820934220D038
S2140038F003F0F2FB01283FD1D8F80030002B37D078
S2140039001A68002A34D0D5F8881009688A4245D04B
S214003910D5F88C301A68284604F0EEF828BB012447
S2140039203B4622463146284603B0BDE8F043FFF743
S21400393079BF2D4B1B68002BDAD0D5F88C2093422C
S214003940D6D12A4B1B689E420CD003F0C5FB01283B
S214003950E6D04FF0010911E0234B00221A6004F074
S2140039604FFBBCE707B124BB002003B0BDE8F083E3
S214003970D5F888301968CBE74FF00009012003F02E
S21400398055FB03F0A9FB0128FBD1194B00215B680E
S21400399003209847B9F1000FAED0C1E7124A12686B
S2140039A0A2B11168D5F88C2012689142B7D0596838
S2140039B0B1E7D5F89C4001228DF8072054B10022CB
S2140039C00DF1070311462846A047CDE7D5F88C2011
S2140039D01268ECE7697D95F8DD30994228BF1946F4
S2140039E0284603F084FDBFE7A8130020A01300209C
S2140039F028000020A4130020F8B505460E46FDF763
S214003A00E5FA314607462846FFF780FE044620B111
S214003A103846FDF70FFE2046F8BD034602463146FF
S214003A202846FFF74FFF04463846FDF703FE2046BC
S214003A30F8BD00BFF8B506460C4659B30B6843B14F
S214003A401B68013326D0CB681BB18B68003B18BFC0
S214003A5001231846CB22412100F0EAF8204600F068
S214003A6086FC002386F8E030C6E92243E7684FF676
S214003A70FF724FF01C0CD8B287420DD815460C4A80
S214003A80002313600B4A294630461360FFF7B4FF45
S214003A902846F8BD0023DCE7A1680CFB0011CD89A1
S214003AA0954202D2002DEAD02A460133E3E700BF52
S214003AB0A4130020A8130020008B70470A7838B59E
S214003AC005461046FFF78EFD60B14C782046FFF79E
S214003AD089FD38B12243530704D42846BDE8384050
S214003AE003F042BC012038BDFFF7E8BF10B504461E
S214003AF00878FFF777FD58B14A781046FFF772FD51
S214003B0030B1042A04D02046BDE8104003F064BC5F
S214003B10012010BDFFF7EABF03F032BA03F07EBB08
S214003B2037B504460D460192FFF766FF38B9019A8D
S214003B302946204603B0BDE8304003F057BB03B02B
S214003B4030BD04F06DBA13B504460020019100F0B4
S214003B500CFCD4F89C3033B90199204602B0BDE87D
S214003B60104003F0FABC022002B010BD38B504467F
S214003B7048880D4600F0F9FBD4F89C302BB929464E
S214003B802046BDE8384003F071BC022038BD00F086
S214003B90EDBB38B505460C46FDF718FA296BEB6AFF
S214003BA00C402343EB62FDF745FD00200CB90021D5
S214003BB038BD4FF40071FBE703F03BBF03F055BF81
S214003BC007B54FF400730A49ADF806300DF106024A
S214003BD0FFF7F4FFBDF80630B3F5007F05D10228E5
S214003BE008BF002003B05DF804FB0120FAE700BF21
S214003BF0F81400200846114600F0D6BA03F006BFB7
S214003C0038B50446154609B103F04CFF25B12046E9
S214003C10BDE8384003F048BF38BD0000024B1960CD
S214003C20024B1860FEE700BF24000020FC160020B0
S214003C3008B550B90548064B01601A60054B1A686E
S214003C40054B1A601868FFF7E9FF08BD240000203E
S214003C50F81600209C130020FC160020837C03B17D
S214003C6008470220704710B5044604F02FFA204695
S214003C700321BDE8104003F045BAFFF7F4BF00008B
S214003C800149FFF7EBBF00BFA18000000149FFF725
S214003C90E5BF00BF7580000010B5837C0C4693B16D
S214003CA04968002204F01CFA206890FAA0F0000A86
S214003CB003F0DAFBA17A2089002281F0010104F0EA
S214003CC05BFA002010BD0220FCE71FB5CDE901120B
S214003CD0ADF80C3001A99DF818308DF80E30FFF7BE
S214003CE0DBFF05B05DF804FB00207047002070473E
S214003CF0014B1878704700BF001700202DE9F74FDA
S214003D0006681C4606F007069DF830300193B31D82
S214003D1001269E400546174606F1FF380B46A1B120
S214003D20416804EA080BA6EB0B0A41F0005952451D
S214003D3009EB0B0118D95246184605F0F1F9BA1BE3
S214003D405A444946504405F0EBF9019B4BB13C44BC
S214003D5048EA06063440EC60AB68A3421CBF022368
S214003D60AB6203B0BDE8F08F1846ECE70D4BD3F816
S214003D70E020D20314D50C494FF48032C3F8E82073
S214003D80C1F8EC209A6BD1B2C2F3072299679A6702
S214003D9004229A6700229A679A679A679A679A67D0
S214003DA0704700BF001008400010084638B50C4C9D
S214003DB0226060600D46FDF709F9D4F8E0305B0735
S214003DC058BF04234FF00102A262A56058BFC4F892
S214003DD0E830FDF72FFC0DB10223A36238BD00BF0B
S214003DE000100840044B1860044B40F6FF7219633D
S214003DF058635A65704700BF04170020001008403B
S214003E002DE9F04F042A83B005463AD90B78836132
S214003E104B7883618B788361CB7883610068D5F8B3
S214003E2008B06E6800F007004FF00108063008FA88
S214003E3000F808F1FF3909EA0B07A2F1040AA8EB1B
S214003E400702924501F1040446F000560DD8F01919
S214003E502146524605F064F90AEB0B0348EA0902CC
S214003E601340AB6003B0BDE8F08F2146F019019215
S214003E7005F056F9019AA118AAEB080230463A4412
S214003E80E8E7013A032AEDD8DFE802F00B0805025E
S214003E9011F8013B836111F8013BAB6111F8013B5E
S214003EA0AB610B78AB6103B0BDE8F08F37B500258A
S214003EB000951446FFF722FF204603B030BD0000F1
S214003EC0402938B514464FF001020DD8084DC5F804
S214003ED0B8200A4601460748FFF792FF34B104238C
S214003EE0C5F8B830002038BD1046FCE72046FAE793
S214003EF0001008409010084010B5FDF767F81B4BFF
S214003F001B491C4C01229A65C3F888201A6659661C
S214003F100721C3F884102180174C002121804FF41C
S214003F20A024C3F8E84003F1C063C3F8EC40134B89
S214003F301960134BD3F888305C0213D5114B124925
S214003F401B684FF48004C1F88840596B090609D4F1
S214003F5093F8C6300D494FF400148C6113B10C4B26
S214003F60C3F8F820BDE81040FDF764BB0010084019
S214003F70081700208A170020881700208C170020BA
S214003F80004008409C13002000400844006008449D
S214003F90006008460D4B07221A800D4B00221A803F
S214003FA00C4BC3F890204FF40052C3F89400C3F8AB
S214003FB0B420094AF021116402F10072A0211164B4
S214003FC00122C3F8B820FFF797BF00BF8A1700206A
S214003FD08817002000100840000008442DE9F04132
S214003FE00446A0B1404E414FFCF7F0FF3188404BED
S214003FF001F07802032C054601F07F0E1A4460D1CA
S214004000D7F800C0BCF1000F03D1FDF713FB032067
S21400401055E02CF00104386820F00100A04255D18C
S21400402000233B6023886FEA43436FEA534394427E
S214004030238040D12F4FDFF8D8C03B88ACF18008F2
S214004040CC18083B9BB202F10801E01A614528BF74
S2140040504146082B80B204D9B1F900E0BEF1000F4A
S2140040603FDB9478128824493B80C2F30C02C0B22E
S214004070CA6304F007043080C866C1F88430FFF7CE
S21400408075FE042C17D11D4B1D4AD3F888301D4BE6
S2140040904FF480011B68C2F888105A6B12060AD4C7
S2140040A093F8C630184A4FF4001191611BB1174BB4
S2140040B00122C3F8F8202846FDF7BCFA0020BDE828
S2140040C0F081601E012898BF1446A4E7094873448F
S2140040D00088E31A48BF803308389842A2DC284696
S2140040E093E70A46ADE700BF881700208C1700202C
S2140040F0081700208A1700200010084000400840DB
S214004100004008449C1300200060084400600846F5
S214004110881700200E480F4A038812880E491A4452
S214004120073A02F078020A4408339BB2038090787C
S2140041300A4900F007000428C1F8843004D101F5CC
S21400414040514B681B03FCD4054B1A60704700BFF8
S2140041508A17002088170020081700200010084043
S2140041608C17002010B5054C206828B1C30701D471
S214004170FFF734FF0023236010BD00BF8C1700201C
S214004180084B4FF48032C3F8EC2003F17C43C3F8AD
S214004190E420D3F88030C3F30C03782B01D8FFF764
S2140041A0E5BD7047001008442DE9F04705460E4669
S2140041B0FCF70CFF534B544C1A888146534802F0C8
S2140041C07801032D078802F07F03214417D1504859
S2140041D005688DB9D519073D05F0780525442344B3
S2140041E0EB1A48BF8033BB4210DB4846FDF722FA85
S2140041F000252846BDE8F08725F00105EFE7012DEC
S21400420002D0022DEBD1083F0D46E8E7002E48D03D
S2140042108D424AD13F4AD76BBFB23E490A6B02F085
S214004220070A0AF106024FF0010A0AFA02FAD1F862
S2140042308020C2F30C029A421FFA8AF847DDB5F9CD
S21400424000302C88002BD0DBAB78C4F30C0408F1CC
S214004250FF3203F00703E41B48EA02021440052B72
S2140042603370A4B22BD824B2E04340F2BB32042110
S214004270C00FFFF7DDFC7480EB78337408F1FF3372
S2140042801F40254B1B68DA19B260A2B217FA84F4F5
S2140042905445CBBFA8EB07080023A6F80480B280DD
S2140042A0F3604846FDF7C6F9A3E7A5F10802A24267
S2140042B038BF05F178021788C7F30C07ADE7174B30
S2140042C0DB6C002B0CBF00230623E41ACBE78B6BBA
S2140042D0134A08F1FF34DB1B48EA04041C40A1B271
S2140042E0536824B259B9C3F30363032B0CBF0823E6
S2140042F000233370D2F8903071801B0ABDE7082384
S214004300F7E700BF88170020081700208A1700204C
S2140043108C170020001008400417002000000840FA
S21400432000400840431C08D00449D1F83C311B0C1F
S2140043301B0480B20343C1F83C317047004008407C
S21400434010B5044608680A46FFF7ECFFD4F88C3030
S2140043504BB15B693BB11168013104BF6FF00101DD
S214004360116012681A60002010BD704770477422F2
S21400437031210120FFF75CBC38B50D46044600F03D
S21400438039FFAC4042F2107364095C436423B0FB0F
S214004390F3F0B4FBF0F038BD034B1A689B8802605C
S2140043A083800020704700BF360000200F4B022895
S2140043B0D3F8883104D183F40010C0F3405070471E
S2140043C0012805D113F4400F0CBF012000207047D0
S2140043D050B9074AD2F8D40010F0010005D083F493
S2140043E08000C0F3805070470020704700400E40A9
S2140043F00081E00F0B4B5B88B3F5E16F8BBF5A2350
S214004400C8235022782298428CBF172310230B70A3
S214004410054B1B7823B1904294BF002001207047C3
S21400442018467047360000203400002013B5234B92
S2140044301B78032B04463ED00DF10701FFF7DAFF89
S2140044401E2C8CBF1E491F499DF807204FF0010304
S2140044508CBF01240024C1F8083170B1194B4DF609
S2140044600171C3F80411120203F1007342F44042D2
S214004470C3F80421144BA3F8D420134991F8D8208C
S21400448022F00102024322F0020242EA4402D3B2C0
S2140044900E4A81F8D83012786AB9B1F8D420A1F85B
S2140044A0D62023F0040242EA800323F0080343EAFE
S2140044B0C40381F8D83002B010BD00BF360000201B
S2140044C00040084600400844001F002192170020C4
S2140044D0084B094AD3F88831DB4303F4FE1343F450
S2140044E00053B3FA83F30E33A3EB4313013B13706D
S2140044F0704700BF00400E403E00002001280CD050
S214004500022802D020B100207047054B187870476B
S214004510034B18780430C0B270470720704700BFBE
S2140045203E00002002289ABF014B185CFF2070470F
S2140045303895000030B51F23B0FBF3F35C1CE5B2E2
S214004540C3EB43134FF0FF34AC40C01AE4430130D2
S214004550E4B2C0B21460086030BD00002DE9F74335
S214004560404E414F96F800901546404AD2F8C82073
S214004570B9F1010F0446884607EA020706D147EA62
S214004580006788F8000000232B6052E0384A127853
S214004590904228BF1446002B14BF04230023234454
S2140045A00B708CB3013CE4B24FF030632B606A466C
S2140045B0204601A9FFF7BEFFDDE900302D4A98F836
S2140045C000C0127847EA006747EA833747F47F5708
S2140045D047F00807D2B1284A2849B3FA83F3B9F15D
S2140045E0020F18BF0A46202BC3F11F0012D0135C1F
S2140045F0D9B22A6822F07F43BCF1000F0CD143F0F9
S214004600306343F00403BFE71D4BCFE7FF214FF0B5
S214004610FF30EEE7FF21ECE7013003D0481EC0B2C2
S214004620FD281BD922F07F4222F0040242F07F428E
S2140046302A607288B2F5E16F8CBF5A22C82227F42E
S2140046407F57944227F008079ABF380A00F47F5035
S21400465043F6C870384303B0BDE8F08343EA01630D
S214004660CFE700BF360000203F00C0E0001F00215B
S2140046703E00002095170020B083E00FB883E00FBF
S2140046800400000B73B50446C820FFF7CFFE2C4B82
S2140046902C4D1878032801D0FF2C03D1FF2028705A
S2140046A002B070BD01282CD1072C204628BF072059
S2140046B001284FF0000301AA0DF1030138BF0120C5
S2140046C0FFF74CFF0446204B204E019AC3F85821B2
S2140046D0C6F8C8409DF803002870FFF7A7FE019AA9
S2140046E0130203F4E06343EA1263194AA6F8D030D3
S2140046F012781AB9C6F8CC40A6F8D2309DF8030056
S214004700CEE790B9042C14D803460646201A01AA10
S2140047100DF10301C0B2FFF721FF4FF480030446FA
S2140047205EB10C4AC2F80831CDE700231E46184693
S214004730ECE701231E460420E8E7074AF2E700BF3D
S214004740360000203500002000400840001F0021F1
S21400475092170020004008460040084408B500F0C4
S214004760BFFF094B094A002808BF1A46136823F4FE
S2140047707F115B0803F4FE130B431360044B4FF0EA
S2140047800072DA6108BD00BF1841084000410840C9
S2140047900040084008B500F0A3FF064B4FF4001297
S2140047A028B1C3F800214FF000621A6208BDC3F8B2
S2140047B01821F8E700400844014B1868704700BF0E
S2140047C09817002070B505460E46C0B201F00F01DE
S2140047D0FFF7D2FDC6F303110446C5F30720FFF723
S2140047E0CBFDC6F303210444C5F30740FFF7C4FD21
S2140047F0204470BD436C012B38BF01232DE9F047E0
S2140048009A46454B454F9B69454E464D03F4E0732B
S214004810A3F5C07280464448514251410268524551
S214004820424A0FD114788C420CD198F8D4C03C7808
S214004830A44507D198F816C03478A44502D1A888B4
S214004840BDE8F087B3F5C07FC0F800A011704AD16C
S214004850D8F8904024B12368082B58D994F83840EB
S2140048600F212046FFF788FDBAFA8AF3B0FA80F2E5
S2140048709B1A002BC4BFC3F10F09D840264BD8BFE4
S2140048804FF00F0982454FEA0440C3F8BC0003F11D
S214004890806340F6FF7238BF09F1FF39C3F8B820CD
S2140048A003F100734FEA0921C3F8B810FFF78AFF37
S2140048B0A88000F09FFC09F01F094FF4FA7304FA71
S2140048C009F45C4341F66A03B0FBF3F0184BB4FB03
S2140048D0F0F40A2044431C6098F8D4303B7098F8F3
S2140048E016303370ABE798F8D430022B06D1114B54
S2140048F01B78002B14BFC8249624B1E7012B08D0E0
S2140049000C4B1B78002B14BFF024B424A8E700241B
S214004910A6E73224A4E700BF006008403D00002060
S2140049203C000020360000203000002090170020B9
S2140049309817002095170020FF290DD00F4B104820
S214004940C3F850010B04090503F4E02301F0F871E5
S21400495019430C4BC3F85011FF2A0DD0074B40F2F9
S214004960F711C3F85011130103F4F87302F00702AD
S2140049701A43044BC3F85021704700BF0040084458
S2140049800000F70100400846F8B5134B134E1F68A9
S214004990134D384600F070FE3378C4B2A34201D1FE
S2140049A02B78A3B1092C13D80E4B012C195D05D119
S2140049B00D4B1B78012B01D141F0400101F00F0295
S2140049C038460909FFF7B8FF002334702B70F8BD8E
S2140049D00024FA21F2E700BF9C1300209317002062
S2140049E0941700203B9500003600002070B5044662
S2140049F000F0A8FB142200213148324E04F09EFB42
S214004A00314B25781A783149521B18BF01220A709B
S214004A1022681A60C820A2889A80FFF707FDD6F899
S214004A20C8202B4B2B491340C6F8C8302A4BFF2210
S214004A301A70D6F8C830294A23F08043022D23F096
S214004A4017031AD14FF4EE40C2F824014FF48A42FD
S214004A50C1F82421012243F08043C1F82021194ADD
S214004A60C2F8C8301D4B0322C3F85821FFF78CFF4D
S214004A701B4B01221A70002070BD012D4FF007005D
S214004A800ED1C2F80C010620C1F80C011549C2F877
S214004A9008114FF4404143F00303C2F80411DEE767
S214004AA0C2F80C010520C1F80C01C020C2F80801AC
S214004AB043F08043812243F00403C1F80821CEE787
S214004AC0C81F0021001F0021360000209417002078
S214004AD03F00C0E000400846350000200040084483
S214004AE091170020C10040002DE9F0472D4C2E4BB9
S214004AF0236000F07FFB4FF4FA7307464FF47A7694
S214004B00B0FBF6F629482A4A7343190E1B021818FA
S214004B1041F10001002303F05BFDA0F5807305461C
S214004B20A36220B95F222B21FFF782F801254FF4FC
S214004B307A726A434FF0000A53465008310203F077
S214004B4047FD1C4B19601C4BB7F57A7F4FEA05688A
S214004B508946044618604FEA152505D26F222B2198
S214004B605046FFF765F801264FF47A71A8FB010856
S214004B707308C01801FB05814FF0000341F10001E6
S214004B80324603F025FD0D4B023419600C4B49F1FB
S214004B900009A408186044EA8974024B013C1C63AF
S214004BA0BDE8F087005008400211010020A1070070
S214004BB040420F00B0170020AC170020A8170020B6
S214004BC0A4170020044B4FF00052C3F880211A604F
S214004BD0024B01225A60704700E100E00050084096
S214004BE0054B0201134401221A604FF4807303FA46
S214004BF000F0024B586670470051084400500840C9
S214004C002DE9F0471446054688461E46FCF7DEF9B1
S214004C10022C00F0AD800746FDF7A4FC664B674902
S214004C20674AD3F8189091F815A0D2F8882B5FFA47
S214004C308AFA002A40F0A180FDF798FC614B624A90
S214004C401B681068A3FB09314FEA8A7213F1004310
S214004C5000FB092242EB0102D8F80010012C04BF29
S214004C6001318918A2EB010208BFC8F80010B2F1A2
S214004C70804F0AF0030AC0F08580544BD3F800E05A
S214004C80534BD3F800804C4B21F04040D3F830C053
S214004C908A0F00234FF00041EEFB001308FB0033A1
S214004CA0634581BF01320CF1010CA3EB0C0302F04B
S214004CB00302A2EB0A02994588BF3F49DFF82CC1E0
S214004CC084BF096B02F1FF3202F003020CF80520E4
S214004CD0A3EB0900A2B1F10742BF3E4A41F61F719D
S214004CE0D166B20742BF3B4A3B49D166710742BF15
S214004CF0314A00211167320742BF2F4A0021116551
S214004D002D4A05F1100102EB051E0901CEF80C3103
S214004D10112353509369D16DA3EB0909814526D31E
S214004D204FF48073AB40194221D11CF805100029BE
S214004D3037D1002C38D0F007136608D5254B274905
S214004D4041F61F7240F20110DA66C866DA66B107ED
S214004D5006D5204B2149204A2148DA66C866DA661D
S214004D60720742BF1F4B01229A60330710D43846A1
S214004D70FCF760FC0120BDE8F087D3F818900AF134
S214004D80010A59E73846FCF755FC0020BDE8F087D5
S214004D90212000F03BF9084B4FF480325A60384629
S214004DA0E6E713663846E3E70F492D012944012557
S214004DB00D6038465366E6E700500840F4170020BA
S214004DC000000A43A4170020A8170020AC170020F4
S214004DD0B01700200050084400001F1F005008466F
S214004DE00000010100400840005108449C170020C4
S214004DF01030034B0001185800F00100704700BF48
S214004E00005008401030044B01F46001000141F0EE
S214004E1003011950704700BF0050084038B5FDF731
S214004E20A1FB084A084B9D69547D084AD2F8882B96
S214004E30E4B20AB19D690134FDF798FB284604F0F8
S214004E40030138BDF41700200050084000000A4354
S214004E5008B5222000F0DAF8024B4FF480225A60A0
S214004E6008BD00BF00500840064B1B68434303EBD9
S214004E708171054B1B68A3FB003013F1004341EB27
S214004E8000007047A8170020A417002008B5FFF7F9
S214004E90C5FFBDE80840FFF7E7BF10B50446FFF7BB
S214004EA0BDFF844288BF01F1FF31204601F00301B7
S214004EB0BDE81040FFF7D8BF0D4A10B5146820F0C3
S214004EC0404301464FF000420020E4FB0320094A1D
S214004ED0126802FB0300084B1B6B98424FEA917165
S214004EE004D901330131C01A01F0030110BD00BF1F
S214004EF0AC170020B01700200050084038B5044614
S214004F00FFF7C4FF0546FFF7C1FF431BA342FAD3D2
S214004F1038BD000038B5354B354C08220546C3F879
S214004F20C82034480121FCF7CDF8334B1D70237898
S214004F30013B012B0CD8237CE07B01229A400C21FC
S214004F40302313FB001303F1884303F520431A6054
S214004F502A4B00225A67002D41D06368002B34D0BC
S214004F6000F048F9626800EB5203B3FBF2F3013B32
S214004F701B0243F0F8032278022A28D0032A2AD0FC
S214004F80012A2FD143F0020307221D494FF6FF7076
S214004F90C86701F10071CB67184B5A6753070CD5E9
S214004FA0237CE07B01229A400C21302313FB001364
S214004FB003F18C4303F520431A604FF080439DB104
S214004FC0104AC2F89430002038BDF823D3E743F0E7
S214004FD001030522D9E743F005030122D5E72A4657
S214004FE0F823D2E70022D0E7074AEAE700400E4659
S214004FF0B817002000350A00B4170020000008404B
S214005000000008440040084600400844044BD3F81B
S2140050109430002BBCBF034BC3F88000704700BF22
S21400502000400840000008404FF0006318B1034AF3
S214005030C2F894307047024AFAE700BF00400846BC
S214005040004008440020704708B5064B06491A6819
S2140050504FF00450920004F063F8BDE8084000F0FA
S214005060E3BB00BF28AF000078950000C0F30062E5
S214005070034B33F8123080B240EA0340704700BF5B
S2140050804695000007B501A8FEF76CF9134B144AC5
S214005090C3F8442148F2E672C3F838214FF4086298
S2140050A0C3F834210F4AC3F8A0200F4A4AF63F41FE
S2140050B0916002F580424FF0C07191620022C3F801
S2140050C0FC200A4AC3F89C20094B7F225A6203F14F
S2140050D0007323225A6203B05DF804FB00400840C8
S2140050E0C0E653517A27000F00300840806D6303F6
S2140050F0003008440F4B002210B5C3F88820C3F8D0
S2140051008C20C3F890200C4A0121D1605A6812F016
S214005110706FFBD14FF00452DA67012402F5FD529E
S214005120C3F880401A66054B1B689847044BDC6042
S21400513010BD00BF00400840004008464000002068
S21400514000400844034BFD22C3F8C8200122C3F8E0
S214005150CC20704700400E4638B5FFF7F3FF1B4BD8
S2140051601B481C4C1C490222C3F8C8201B4B1A685B
S21400517042B102EA0005A54204BF5D681560083327
S2140051808B42F4D1164B174C0222C3F8C820164B9C
S214005190D4F83C211A60FFF775FF144B0322C3F8BE
S2140051A0D820134BC4F8943004F1C0640123C4F82B
S2140051B0943000F031FB4FF46073E3604FF04073BF
S2140051C0C4F8F830C4F8103138BD00BF00400E46B1
S2140051D00000FFFF00000840B081E00F0080E00FF5
S2140051E000400E440040084044000020006008468E
S2140051F00008F00008B5FBF7F1FE044BD3F81031B9
S214005200C3F308230133B0FBF3F008BD00400E40A3
S21400521070B5044618B1012521684B1C00D170BD3D
S2140052200846FFF723FF0E0C16F0FE0F03460ED0BF
S214005230F6B2B200214600EB8606B34251F8040FE0
S21400524002D1131D1C44E7E743F8040BF5E7090FEA
S214005250606808340729DFD8DFE801F00A0408117F
S2140052600C0F1417C04303F1806301E01A68504026
S2140052701860D1E7FFF742FECEE705FA00F003F12B
S214005280C063F5E705FA00F0EDE71A6830EA0202B7
S214005290FBD1C1E708B50C4B1B68D3F8903023B19F
S2140052A01A68022A01D9186A08BDFFF7A3FF074B40
S2140052B01B6D024698B20028F6D0C3F30743D20807
S2140052C05343B3FBF0F0EFE79C1300200060084068
S2140052D0064B5B68C3F30363984206D10448C36B6E
S2140052E023F0F00242EA0112C26370470040084011
S2140052F0001F002110B50446FFF7CCFFC4F30113CE
S214005300022B05D0032B09D0012B00D1400810BD7D
S214005310C4F3C4240134B0FBF4F0F8E78008F6E7E1
S21400532000F03003202B10B513D110F4E02FC0F39B
S21400533002431CBFC0F3C422B2FBF3F310F4C01F39
S21400534018BF5B00052B0DD85C08FFF7D3FF604342
S21400535010BDC0F38213012B06D0042B14BF01240A
S2140053600224F2E70424F0E70224EEE72DE9F84FE2
S2140053700546FFF78BFDDFF8A0B080460026FBF75A
S21400538025FE224B5968C1F303639F1E012B8246FC
S214005390FFB228D0052B28D0A3F10B01D1F10009CC
S2140053A049EB0109012F22D8194B9968C1F38914DA
S2140053B00A0448BF44EA0B0424B26B1C03D0FFF770
S2140053C065FDA0EB08065046FCF734F914F5007F9F
S2140053D014D1012F02D9B9F1000F01D0AE42CED3BD
S2140053E02046BDE8F88F9946DCE74FF00109094CE6
S2140053F0E3E7512CA8BF4FF4FE74F1E7C83C24B293
S21400540014F5007FF5DC6FF4FF74E9E70040084010
S2140054100070084000FEFFFF00FCFFFF024B012269
S21400542018619A60704700BF00200840084910B510
S214005430D1F8703140B11C464A68D1F870319C42B0
S214005440F9D1C2F30362027003F00F0010BD00BF73
S2140054500040084010B5FBF7B9FD084B1B68044632
S2140054603BB1984728B1002200204FF4806100F03D
S214005470FBFA2046BDE81040FCF7DCB8CC1700204D
S2140054802DE9F0411F4DDFF89080069FA2FB036CCC
S21400549075196CF1000E0024A84574EB0E0507D2B2
S2140054A04FF4B2720E212046FEF7C2FB02201BE02C
S2140054B00029FBD0C0F3130001EB5305B5FBF3F353
S2140054C0A3FB0030DB0C43EA40330F4803600F4B6E
S2140054D01A600F4B994209D10E4BA6FB036103FBE2
S2140054E00C11890939602046BDE8F0814FEACC4CA2
S2140054F00A462346F0044CEA563103F069F8386051
S214005500F1E700BF00C9E876D0170020D4170020C6
S21400551000F049020A3BB2DF0046C32338B5164DF9
S2140055202B780C4623B9154B1B6D03F03F032B70ED
S214005530134BD3F894305B061CD540F24D53114AFA
S214005540B0FBF2F25343A3F546400C38504300F547
S214005550C91000F5556028B94FF445722B21FEF7A7
S21400556067FB01202B78084A5343B3FBF0F020601A
S214005570002038BD0220FCE7DB1700200030084082
S2140055800040084000366E01809698002F4B70B59C
S2140055901C682F4B2F4E1D6B2F4B1B68ED0254BF04
S2140055A0E31A1B192D4CB3FA83F5B3F1804F88BF6D
S2140055B02646D5F102052A4C54BFEB400025A342EF
S2140055C088BF5B0803EB5604B4FBF6F4254E88BF91
S2140055D00135B34204F1FF3434BF0026012644EA05
S2140055E0862444EA05340C6050B3B3FBF0F164241F
S2140055F000FB11336343984288BF01F1FF314B082B
S214005600581E072801F1FF334FEA530119D80F2B14
S21400561017D8C0B9012B94BF00230123124C237066
S214005620124C0625C4F8945033B1114B1B781BB1AD
S214005630104B0224C3F894400B0243EA0013136095
S21400564070BD0023EAE70123E8E700BFD417002077
S21400565000300840E0673500D0170020C0CF6A0051
S2140056603FBE4025401B5F13D9170020004008446A
S214005670DA17002000400846084B5B6B03F0070073
S214005680C3F3C20213F0380F18BF5043C3F382129D
S21400569013F4E07F18BF5043704700BF0030084047
S2140056A070B505460C4651B10B6843B15B6833B123
S2140056B01A68032A03D99C6A640E204670BDFBF75D
S2140056C085FCD5F88C60C5F88C4001462846FFF767
S2140056D0D3FFC5F88C6004460846FBF7ABFFECE743
S2140056E0034BD3F8380180F01000C0F30010704769
S2140056F000400840174B4FF4002210B5C3F8942022
S214005700154C164BB0F1804F98BF1C46144BD3F87F
S2140057108039F3B1134B14481B6F04F5F42404F5D9
S2140057209074B4FBF0F4033CE4B203F00703A34226
S21400573002D02046FCF71CFF0C4B1B784BB10C4BE1
S2140057404FF47022C3F8942003F100732404C3F8C6
S214005750944010BD00400846C0CF6A00E0673500A0
S2140057600000C64300300E4040420F00D81700200D
S214005770004008447FB50446FBF72CFC1B4B226810
S21400578006462C33586800933146A379FFF778FE17
S214005790054638BBA379012B14BF154915491022BD
S2140057A0C1F83821206814495843FFF7B7FE03AA0A
S2140057B002A93046FFF7EAFE0E4A43F6FF53C2F848
S2140057C0A4300B4B0299C3F8A4104FF4EE6111639A
S2140057D0039A1A632068FFF78DFF044BA2889A632A
S2140057E00022DA63284604B070BD00BF00300840CF
S2140057F000400846004008445030084008B5044BB6
S21400580001221A70034B1868FFF774FF002008BDCA
S214005810D8170020D4170020024B4022C3F894204B
S214005820704700BF0040084670B5194C0FCC86B0D4
S21400583001AD0FC5C422236816482B60002103F073
S2140058407DFC80220021144803F078FC134B144A98
S214005850C3F8F02002F0C0FC124B1B782BB101AD50
S2140058600FCD0B4E0FC62B6823600F4B0F4AC3F8A5
S214005870DC2F0F4AC3F8E02F0E4AC3F8E42F02F1DC
S214005880957202F27112C3F8E82F06B070BD00BF21
S214005890C81F00213C1F0021BC1E0021001F002144
S2140058A03F0037009117002000100021020062021E
S2140058B009C805780708DC060A4B197801F0FF02CC
S2140058C029B10021197008499202C1F8A020597820
S2140058D001F0FF0229B1002159709302024AC2F872
S2140058E0A43070470F18002000000846074BD3F876
S2140058F0E80E074BD3F88C301A0103D4054B1B6E09
S2140059001B0401D500F58070704700BF0010002111
S214005910004008400000084008B5FBF757FB104B56
S2140059201B78A3B90F4A126812F4843F0FD10E4BAE
S2140059301022C3F894200B4B1B68DB050DD40A4BD2
S2140059402022C3F89420BDE80840FBF773BE074A40
S2140059501021C2F89410002BEDD0044BF0E700BFE6
S214005960F1170020E81700200040084400400846D1
S214005970044B00221A70044B197811B11A70FFF705
S214005980CBBF7047F2170020F117002010B5FBF7C9
S2140059901DFB0E2104460320FFF79AFC044B40F241
S2140059A0012220465A62BDE81040FBF743BE00BF06
S2140059B00000084008B503210920FFF789FC024BC8
S2140059C020229A6008BD00BF0040084008B5FBF7DB
S2140059D0FDFA244B4FF08052C3F88020BFF34F8F60
S2140059E0BFF36F8F4FF48072C3F88020BFF34F8FE2
S2140059F0BFF36F8F0222C3F88020BFF34F8FBFF331
S214005A006F8F1022C3F88020BFF34F8FBFF36F8FC6
S214005A102022C3F88020BFF34F8FBFF36F8F4FF065
S214005A200052C3F88020BFF34F8FBFF36F8F8022E2
S214005A30C3F88020BFF34F8FBFF36F8F4022C3F8A9
S214005A408020BFF34F8FBFF36F8F4FF00042C3F835
S214005A508020BFF34F8FBFF36F8FBDE80840FBF782
S214005A60E9BD00BF00E100E070B5084C01232370DB
S214005A70074B1E68074BD3E90053324019402840B5
S214005A8001F0E8F90023237070BD00BFF017002076
S214005A90E0170020E81700202DE9F84FDDF828B0C1
S214005AA003EA01080B9B06460D4602EA000903EAD4
S214005AB00B0ABBF1000F40F06481031F0B4300F09C
S214005AC02881052871F1000380F0FB8050EA01036D
S214005AD000F07781431E0B4300F03781FFF776FF17
S214005AE0B94BD3E9004724EA060427EA050744EA47
S214005AF0090447EA0807C3E90047B44BB44D1E68DB
S214005B00DFF8208326EA0B0646EA0A061E60FFF741
S214005B1003FFB04814F02A4F14BF48F202034FF4B4
S214005B200043B207C26E48BF43F4005383EA020143
S214005B3022EA0302EA66A84A81660B406503D3663A
S214005B4004F4802348BF4FF48053200348BF43F437
S214005B508073E10648BF43F40053A20648BF43F4EF
S214005B600073650648BF43F4806320069B489C4D3F
S214005B70D0F80C2248BF43F4006383EA020122EA0D
S214005B800302C5F80C22974AC0F808120B40B90564
S214005B9007F40075C2F80C3248BF4FF48025E204C3
S214005BA048BF45F48035A30348BF45F48015A007D9
S214005BB048BF45F4001514F4001F06D0D8F80000BE
S214005BC002F008FB08B945F40025E102864987483B
S214005BD048BF45F40035FA0648BF45F480050A6A12
S214005BE0730748BF45F0040585EA020323F0010366
S214005BF01A4002621D40CB617D4B7E487E4A1D6284
S214005C0016F0010F7D4B18BF1346826E7D0748BF06
S214005C1043F400137A4D83EA020122EA0302AA66DD
S214005C20784A41660B4000F500509366C26B04F05C
S214005C30010305F5005583EA020122EA0302EA633E
S214005C40714A81630B40D363D8F80020200248BF16
S214005C506E4B92F8ED2058BF6D4B610748BF43F47A
S214005C60806322B114F4C06F18BF43F48073694890
S214005C70694CD0F8EC10320748BF43F0004383EA83
S214005C80010222F4A02211401340C4F8EC10C0F820
S214005C90E820624AC2F8EC30FBF798F9604B4FF008
S214005CA080521A604FF480721A6010221A60202206
S214005CB01A604FF000521A6080221A6040221A6062
S214005CC03DE0A0F580630B4306D020F48063A3F587
S214005CD000730B437FF402AFFBF778F93A4BD3E936
S214005CE0004124EA060421EA050144EA090441EADF
S214005CF00801C3E900414B4B1B6893F8ED3013B322
S214005D0014F4C06F1FD0454B4FF48072C3F8EC20DC
S214005D1015E0FBF75BF92C4AD2E9003123F00403C7
S214005D2043EA090341EA0801C2E9003159EA0803D7
S214005D3014BF3A4A384A4FF48063C2F8EC30BDE8E4
S214005D40F84FFBF777BC344BDEE7FBF73FF91E4A0C
S214005D50D2E9003123F0010343EA090341EA0801CE
S214005D60C2E90031304A59EA08034FF0010315BF73
S214005D7093632E4902F1C062CB6314BFD36393636F
S214005D80DDE750EA01037FF4A9AEBBF1010F7FF413
S214005D90A5AEFBF71BF90D4A136823F0010343EA8F
S214005DA00A031360134A4FF48063BAF1000F04D05D
S214005DB0536602F1C0629366C1E711498B6653666B
S214005DC0BDE7BDE8F88F00BFE8170020E017002009
S214005DD00000084400000840000008460060084034
S214005DE00060084400600846004008400040084440
S214005DF00040084600500840041C5000041850009C
S214005E000050084400500846007008460D0A0A096B
S214005E10090A0A0900100840001008440010084645
S214005E2000E100E09C130020007008400070084469
S214005E30024B5868C0F3C000704700BFE817002048
S214005E40024B186800F00100704700BFE8170020FA
S214005E50034B1B6813F4C06F14BF0120002070476B
S214005E60E817002010B50446FFF776F9FFF7AEFDF9
S214005E7004F14800FEF78EF8FFF73CF9FEF734FE13
S214005E80FEF7A0FE02F010FA072104F1A00002F0CF
S214005E9053FA4FF440010020FEF7B4FF4FF4001110
S214005EA00120FEF7AFFF02F06BFB20B94FF4317212
S214005EB01421FDF7BDFEFFF7A1FCBDE81040012050
S214005EC0FFF728B8084B8022C3F8882003F17E43EA
S214005ED00822C3F88820054AD2F8BC3E23F02003E7
S214005EE0C2F8BC3E704700BF0040084600100021C4
S214005EF0624BDB68DB0740F18280F0B50C4683B06E
S214005F000546FBF763F823790022022B009206462B
S214005F103BD1237B022B32D00320FEF769FF0028FB
S214005F206FD0A37B277B5649A2680192003B18BF1F
S214005F300123012F0B7071D0524A534C002313706B
S214005F402278002A75D14D4D0420FEF749FEEB6EEF
S214005F5023F0F85323F4F81343F0506343F48033EC
S214005F60EB663A46022301A90420FEF749FE002804
S214005F707ED0464B012130222170C3F89420304653
S214005F80FBF758FB002003B0F0BD0320FEF730FF00
S214005F9000283AD12279D5F8B030012A22683AD0C2
S214005FA0D01A364B3A4A0090DA6600221A67394B06
S214005FB001221A70627B384B002A0CBF0122002295
S214005FC01A70364B354AD3F8BC3E0CBF43F020035C
S214005FD023F02003C2F8BC3E0320FEF701FE274B49
S214005FE02F4ADA662279012369460320FEF708FE67
S214005FF000288ED13046FBF71DFB0120C3E70320A7
S2140060007047284B5B685A048BD43046FBF712FB6C
S214006010032003B0F0BD9A42C3D3C1E72379022B15
S2140060208AD0009BD5F8B0100B441A440027019282
S21400603082E72370FAF7CAFF237863B91A4B1B6806
S21400604013F4843F12D1194A1021DB05C2F89410CC
S21400605005D4164B04E00D4B1022C3F894200B4BCE
S2140060602022C3F89420FBF7E5FA6CE7074AEBE733
S2140060700320FEF7B5FD064BEB66C6E7005008406A
S2140060800D180020F2170020F117002000400846E7
S214006090000001010C1800200E180020001000213E
S2140060A0010C010000400840E817002000400844AA
S2140060B02DE9F341234DEB68DA0780460F460DD5F0
S2140060C0FAF784FF06460320FEF792FE18B9EC683E
S2140060D014F0060404D03046FBF7ACFA032028E0A0
S2140060E0194B1C70FFF7EEFE184BEB662C677879A1
S2140060F0431E5842584101F0F3FC40F601432B671B
S2140061003A793D68D8F8B830012A01D19D4200D3CB
S214006110EC1A04230DEB030103200194FEF770FD37
S21400612050B90B4B88223046C3F88820FBF782FA1A
S214006130012002B0BDE8F0813046FBF77BFA002074
S214006140F7E700BF005008400C18002000000101CF
S2140061500040084438B5164C05462078B0FA80F062
S21400616040F2D9323E214009FDF762FD55B1114B90
S214006170D3F8A030C3F3812323700F4B4FF4406253
S214006180C3F8A0206078B0FA80F040F2D9323E2101
S2140061904009FDF74DFD55B1064BD3F8A430C3F3C7
S2140061A081236370044B4FF44062C3F8A42038BDCB
S2140061B00F1800200000084000000844F8B50B4CFB
S2140061C00B4DD4F888300B4F0423C5F88830D4F82C
S2140061D088305B0300D4F8BD0426C7F88860022028
S2140061E0FEF78CFEC5F88860F1E700BF0040084067
S2140061F000400846004008441C4B70B5D3F8886041
S2140062001B4D03F18063A822C3F8882010221A6071
S214006210184A4FF0007393666B66FFF74DFB164BFC
S2140062201B7813B90320FEF7DBFC00242C67FFF76E
S214006230C5FF124A124BD2F8E81E0B40C2F8E83EE1
S214006240104B0422C3F888200F4BB206C3F8C44094
S21400625008D503F58073DB6CB3F5817F22BF034B53
S21400626080229A60BDE8704001F0B4BD004008404E
S21400627000500840005008440C1800200010002170
S214006280DF0000FF00400844001E002110B528B9BA
S21400629071B9154B4FF4C0625A6210BD41B9134A2A
S2140062A053681B0E13F00E0FF3D113689A06F0D442
S2140062B0FFF76CFB0D4C0020FFF7B8F8032801D061
S2140062C0092806D1D4F88C30DB03F4D4636F0C2B8A
S2140062D0F1D9FFF773FF064B0122DA6003F17E4324
S2140062E00422C3F88820D4E7006008440040084031
S2140062F00040084638B50546FAF768FE0446FDF73E
S214006300FBFD35B1FFF734FB2046BDE83840FBF710
S21400631091B9084B1B78002BF6D0074B1D78002D43
S214006320F2D1FFF725FB2A464FF480400021FFF705
S2140063309BFBE9E7F2170020F01700202DE9F84351
S214006340144605460E4601F045FD3D4BA022C3F817
S21400635088200320FEF74CFD28B10320FEF740FC02
S2140063600420FEF73DFC374B374ADA664FF000094B
S214006370C3F87090FFF722FF344B3148D3F8BC2E99
S214006380334F42F02002C3F8BC2EFF2202604FF4C7
S2140063908072BA60D3F8E81E2E4A4FF004080A400E
S2140063A0C3F8E82EC0F88880C3F8C49E55B1FFF73E
S2140063B0EDFAFEF74DFDFFF7FDFA4046FEF710FC3E
S2140063C0FFF77AFAFB68DB0737D5214A536813F0E4
S2140063D0706FFBD11A4D204B204AC5F88830D36B1E
S2140063E023F0F003D36316B12046FFF783FF0123A3
S2140063F0EB6014B31A4BDA6E9A66154A136A23F0EA
S2140064000103D361174BD3F80C22C3F80822A3F577
S2140064104053DA6F9A67A3F50053D3F8EC20C3F81D
S214006420E82003F5C043DA6B9A63A3F500530E4ADF
S2140064305A664FF60843C5F88830BDE8F88300BFB3
S21400644000400844005008400000010100100021F0
S21400645000400840DF0000FF10003000001F002151
S21400646000000840006008405000F0029E4B196E85
S214006470DA6E2DE9F04F01EA0208C3F8688003F5EA
S214006480805385B0D3F8E060D3F8EC201640C3F80C
S214006490E86003F5A043D3F80012D3F80C2201EA13
S2140064A0020BC3F808B2A3F5005359691A6A01EA49
S2140064B002098E4A09EA0202DA618D4BD3F80022FD
S2140064C0940006D4D3F800319800C3F3407740F127
S2140064D0E180FAF77BFD874BDA68DF6D12F0060F76
S2140064E09A6E07EA020727F4800214BF4FF0010AEB
S2140064F04FF0000A22F4006279075A6604D57E4AF5
S214006500537D0133DBB25375FBF794F8B8F1000FF7
S21400651000F0E38018F4004400F0D180FAF756FD4E
S2140065200146FFF7E3F9734D0446AA69AB699A4240
S214006530FCD0AA699342FCD0FFF7D8F9A0420346E4
S21400654040F0AA800846FBF775F86C4B1C606C4B55
S214006550D3F8885015F4E05040F0A08024F07F4532
S21400656025F0DF05002D40F0AC80FFF745FE4FF02C
S214006570807418F0020F16D0614B6249D3F8883049
S21400658003F46042C1F88820002A00F0A0801A04B4
S21400659000F1A08013F4005F14BF4FF000634FF0CB
S2140065A000531C43002518F4005818BF4FF002088B
S2140065B0554B3340002B4AD016F4206F0AD040F2D9
S2140065C0467206210020FDF733FB0020FFF792FEFF
S2140065D026F48026F30506D54A4BFF221A6044F4BB
S2140065E0C064FFF7D3F916F0090F0AD040F25B72C9
S2140065F008210020FDF71CFBFFF7DCF9434B0122C6
S2140066009A6216F0106F0CD040F2647209210020D6
S214006610FDF70EFBFFF7CEF9002211461046FDF7F8
S2140066204FFC16F4202F0AD040F26C72072100208F
S214006630FDF7FEFA0020FFF75DFE26F48026F00345
S21400664001D5FDF79DFD002EB8BF48F0080871077C
S2140066500AD52F4BD3F8B4244FF40053002A3FD06A
S2140066602C4A44F400045362720548BF44F0040404
S21400667016F4802600F0AF80FDF74CFD01380628A2
S2140066804CD8DFE810F022012501220128012B0159
S2140066902E012E01BA4639E71C4646E70190FFF761
S2140066A0ABFD184B0198C3F8880015F480500BD149
S2140066B015F4806F14BF4FF080644FF080540025AF
S2140066C057E74FF08074FAE74FF08044F7E74FF053
S2140066D0007366E74FF0004363E74446454667E7C6
S2140066E00D4A5362C0E700BF000008400000F7FFF5
S2140066F000E100E000500840F4170020DC170020FE
S2140067000040084000400844090B0B890010084070
S21400671000000243001008440010084640F29E7233
S21400672003210020FDF784FA7A4A136ED2F880001F
S21400673003F007030633012101FA03F3C0F30C004C
S2140067401B1A9BB2072B13D9734BD3F888305B0206
S2140067500ED47248136B126DC06C58B103F0070369
S21400676006339940C2F30C03C91A89B2052901D829
S21400677044F400746A4B1B786BB3664BD3F8E03076
S21400678013F4A02F27D1674B674A1B7873B917F409
S21400679080530BD1117849B164492007D1F8E81E1F
S2140067A058BF022321FA03F3990714D10420FEF7F9
S2140067B017FA5F4B5F49D966FFF7DAF85A4A13783B
S2140067C02BB95D4B5D4A1B682340134201D144F44C
S2140067D0804427F48057BBF1000F1DD01BF4805F68
S2140067E018BF44F480241BF4807F18BF44F40024B0
S2140067F01BF4005F18BF44F010041BF4007F18BFA2
S21400680044F020041BF4806F18BF44F040041BF4CF
S214006810006F18BF44F08004B9F1000F38D019F4A7
S214006820802F18BF45F4007519F4803F18BF44F454
S214006830805419F4801F18BF44F4003419F4001F64
S21400684018BF44F0020419F4003F18BF44F4801443
S21400685019F4800F18BF45F0100519F4002F17D053
S214006860324BD3F8BC3E13F0C00F11D02A4B5A68F7
S214006870C2F30362032A01D0072A35D1D3F88C204D
S214006880D20631D4D3F8902010072DD444F4001447
S214006890002F00F00181390540F18380284ADFF897
S2140068A090B0D378002B51D0013B4FF40061DBB29F
S2140068B0CBF86410D37033BB224A1178D1B1224A88
S2140068C040F60141D166002269E044F480342BE7AB
S2140068D044F4006428E744F4806425E744F48074B4
S2140068E022E744F008041FE74FF40022DA6129F497
S2140068F00029CDE7DBF8703013F4A05305D04FF431
S2140069008073CBF850300023DDE740F60142CBF829
S2140069107020D8E7001008400040084000000840FB
S214006920F1170020F21700200E180020001000219A
S2140069300050084000000101E8170020088D010003
S2140069409C1700200C180020005008460320FEF775
S21400695047F9DBF80C309D4913F0060F02BF9C4B3D
S21400696041F61F72DA669B4A4FF400635366D3689B
S21400697013F0060308BF1367CB8A13F400625DD0DA
S21400698023F40063CB82944B93F800B0BBF1000F66
S21400699057D1FEF75DFAFFF72FFC5B4620221C431B
S2140069A01543BA010BD52B20FEF730FB884A4FF073
S2140069B00073936602F17C4245F00805536617F4AF
S2140069C0E00F05D1FB045BD5BAF1000F00F0A18003
S2140069D0B80239D52920FEF719FB45F0040AFFF75F
S2140069E027FA88B17D497B4A4FF0007353668B6661
S2140069F07B494968490407D575492D208B6653663F
S214006A0045F00C0AFEF702FB17F4800B714D1DD003
S214006A100420FEF7E5F82720FEF7F8FAFFF7ECFB70
S214006A204FF480036B666F4BD3F8E83E59065EBFA3
S214006A306D4B02221A604AF0020A1DE04FF4005322
S214006A40ADE74FF400433EE7AA46DDE7FB024DD52F
S214006A500420FEF7C5F82820FEF7D8FA2B6F002B87
S214006A6041D1FFF7C9FB5A4A4FF00073936602F113
S214006A707C424AF0010A5366564B00221A65554678
S214006A807B0509D5594A9378002B00F09280013B8C
S214006A909370002348EA0308424620462946FEF73C
S214006AA0E3FF0EB1FDF75EFB19F4002F00F08680C1
S214006AB04B4B4FF40022DA6119F0206F00F0828011
S214006AC019F0007F01D0FDF749FE19F0006F01D0E4
S214006AD0FDF760FE002200204FF4006105B0BDE81F
S214006AE0F04FFEF7C1BFC5F870B0BCE7F804C3D5D9
S214006AF00420FEF775F83E4BEB66FEF7A9F9EB6D42
S214006B0013F4A00FB8D12A20FEF780FAFFF774FB23
S214006B1089E7364A13794BB1013BDBB2137113B9DF
S214006B202E4B344ADA6644EA0A04A9E70420FEF744
S214006B3057F80320FEF754F8264B2D4ADA66FAF784
S214006B4045FA82460DF10F00FEF770FC2A4B1B78C3
S214006B5083460BB1FEF71AFFBBF1030F0ED1DFF829
S214006B6080B00020FEF762FC032807D1DBF88C30EB
S214006B70DA03F6D4DBF874300C2BF2D99DF80F301C
S214006B80032B08D11D4B012250461A704FF0000A05
S214006B90FAF750FDC7E71A4BD3F8E03013F4A02FEE
S214006BA0F0D1FEF7E5FE5046FAF744FD4FF4804A72
S214006BB0B9E70220FEF714F801236BE7B9F1000FDE
S214006BC07FF47AAF05B0BDE8F08F00BFF417002061
S214006BD000500844005008400C180020005008469A
S214006BE00040084000100021004008449C17002088
S214006BF0000001010000010D0D180020F217002012
S214006C0000100840FFF732BCFFF730BCFFF72EBC81
S214006C10FFF72CBC0B4B10B55C691A6A1440A2B285
S214006C20DA61E20704D55868C0F30360FAF747FA5A
S214006C30630706D5BDE81040042200200021FEF7B9
S214006C4013BF10BD00400840FFF710BC0C4A08B543
S214006C50136BD16B0B409363DB070FD5094B18788A
S214006C6040F69B12122100F00100FCF7E1FFBDE8A0
S214006C700840002201200021FEF7F6BE08BD00BF36
S214006C8000700840E8170020044BDA6FD207FCD4E7
S214006C901A6FD96F0A409A67704700BF00300840E5
S214006CA070B50D461446FAF791F9064BD3F8BC6E4C
S214006CB074402C407440C3F8BC4EFAF7BBFC06EA9E
S214006CC0050070BD00100021044BD3F8BC3E31EA2D
S214006CD003030CBF01200020704700BF00100021F6
S214006CE070470000024B5868C0F30360704700BF4F
S214006CF00040084070470000431C07D0044B6FF06C
S214006D00FF029A6103F1007310409861704700BF5C
S214006D1000700844426B0E4B02F06002402A11D00D
S214006D20602A03D0202A10D1012206E069B10A6841
S214006D30012A0AD94A6942F00102DA64054B802228
S214006D409A60704740F20112F7E70022F5E700BFAD
S214006D50001F00210040084008B50A4AFFF7C2FF9E
S214006D600B2806D00C280AD0092814BF00200220C1
S214006D7008BDD2F8880010F48030EFD1F8E7022082
S214006D80F6E700BF00400840084B0121D3F8EC208E
S214006D90996203F1806352074FF40051596242BF73
S214006DA003F100730422C3F8EC207047001008407B
S214006DB037B51A4D0C4641B90A460721FFF770FF52
S214006DC0174B6C635C6003B030BD07221146FFF7BB
S214006DD067FF144B07225A60237985F834306379AD
S214006DE00193012101A801F0DFFB019BC2B2D34051
S214006DF000F00F0040EA031085F83500A37985F807
S214006E003630E37985F837302368AB632379064A52
S214006E1001339361FFF764FFD5E700BF001F002131
S214006E20341F0021000008440000084000F018034A
S214006E30182B074B02D100221A657047010701D5AF
S214006E400122F9E7C206F6D540F20112F4E700BFC8
S214006E50001F00213E4B2DE9F3411E6840F202233D
S214006E6017460B4000F00102134305460C4642D07D
S214006E70880709D5374BD3F8E83E03F0C003402B0C
S214006E8002BF354B022119604FF000084AB30023B9
S214006E90002200210120CDE90088FEF7FDFD4FF01D
S214006EA0FF30FEF763FA414670830120FCF7EAFBE9
S214006EB02A4BD3F88830590208D4736B13F0800F2E
S214006EC014BF274A274A4FF40013936126490868DF
S214006ED0FFF712FF4FF0FF330B60337C43F00803DD
S214006EE03374A20507D501213046FCF752FE24F480
S214006EF0007405430C43D6E93E232A40234052EA59
S214006F00030103D01949304609688847FB070FD5A7
S214006F101749184A0868136800211160164A0121AB
S214006F20117003B19847154B00215B680220984703
S214006F3017F00E0F08D040F271123B21002002B06D
S214006F40BDE8F041FCF774BE02B0BDE8F08100BFBA
S214006F509C13002000100021004008460040084016
S214006F6000600846006008444C00002048000020EE
S214006F70301800202C180020281800202800002098
S214006F80F7B5D0E93EC71946DDE9086304468CEA42
S214006F90060587EA03001540084085EA0C05784098
S214006FA00B40C4E93E5043F4007322F00100002574
S214006FB006EA000243F00203CDE90055FEF76CFD39
S214006FC0237C9A0717D5D4F8FC309B0513D54FF4CD
S214006FD080312046FCF7DDFD237C65F341032374F6
S214006FE0D4E93E2302400B4052EA030103D0034992
S214006FF0204609688847002003B0F0BD48000020FE
S21400700038B10368044A002B08BF1346034A1360CE
S2140070107047014BFAE700BFF56C000048000020FF
S214007020014B002019647047001F002103282DE93A
S214007030F3413DD8204B1E5C204B1F5C204B13F8C1
S2140070400080F9F7C3FF0546FEF7FAFE044640B196
S2140070500023CDE900330022002301200021FEF7A3
S2140070601BFD39463046FFF711F942463946304691
S214007070FFF764F9B4B1134BD3F888305B020AD437
S214007080114B1B685B6B13F0800F14BF0F4A104A3E
S2140070904FF4001393610F490868FFF72DFE4FF079
S2140070A0FF330B60284602B0BDE8F041FAF7C2BADB
S2140070B002B0BDE8F08100BF5C950000609500005E
S2140070C064950000004008409C13002000600846BD
S2140070D0006008444C00002008B5FFF703FE0138A6
S2140070E0C0B20B2802D8054B185C08BD044BDB6801
S2140070F013F0060F0CBF01200420F6E76895000089
S2140071000050084031F00F0210B50BD1FFF7E4FF36
S214007110012809D1054CE36B23F00F000143E1631E
S214007120104610BD0120FCE70220FAE7001F0021F0
S21400713008B50E4BD3F8882012F0A00F14D1D3F860
S2140071408C305B0701D5012008BD094BD3F8E83E1B
S21400715023F07F4323F0FF03002BF4D0FFF7C2FD9C
S214007160092801D00C28EED10020EDE700400840A9
S2140071700010002138B5024688B9194B1B684BBB76
S214007180C1F11C040125C4F11C03002BB8BF5B42EF
S214007190232B23DC7DB1134B1970002038BDFFF77D
S2140071A09BFF012818D10F4B93F90040C4F11C0433
S2140071B0641A0025E7E7D174F9F708FF0A4A53690D
S2140071C0E40223F4FF2304F4FF241C435461FAF77B
S2140071D031FAE2E70320E1E70220DFE70120DDE7FE
S2140071E09C13002020180020007008401146FEF76F
S2140071F07FBE000090F8C63053B9074BDA6992029A
S21400720008D49B6F13F4706F14BF012000207047E2
S21400721000207047012070470060084070B5154692
S214007220426B82EA05030B40534043632F4A01F04A
S2140072300B030C4623EA0501516402F100722B4051
S21400724053646307064611D50121FFF7D3FF68B1E3
S214007250FEF7B4FF15F0040F14BF254A254A4FF475
S2140072600073D361244B0422C3F88820E00606D5B9
S21400727015F0100F214B14BF00221B22DA642106E2
S21400728018D52A0620D51A4B4FF400129A6103F13E
S2140072907E430122C3F8F820F9F798FE0E21054632
S2140072A00320FEF715F8154B40F201225A622846D5
S2140072B0FAF7C0F914F0600F04D0D6F890103046F4
S2140072C0FFF728FD002070BD0D4BD3F888305B0219
S2140072D0F0D496F8C630074A4FF400119161002B9F
S2140072E0E8D0034B0122C3F8F820E3E70000084487
S2140072F0006008460060084400400844000008405B
S21400730000400840014B9869FDF7F4BF0060084054
S214007310D0F890304BB11A68022A06D993F82500A7
S21400732028B11B6AB3FBF0F07047FCF7BDB9704795
S214007330014B9869FDF7F4BF00600840D0F8902034
S21400734072B11368022B0BD9536A13F47F4FC3F341
S214007350072007D0126ADBB25343B3FBF0F0704746
S214007360FCF7A4B97047000070B50E46F9F72EFE7C
S2140073700546FFF7F1FC044620B12846FAF75AF90D
S214007380204670BDFEF71AFF114B3278D3F8E83E60
S214007390022A23F0F00316D0042A0CBF0222002291
S2140073A043EA02137278022A0FD0042A0CBF022284
S2140073B0002243EA8213064AC2F8E83E054B04223E
S2140073C0C3F88820D9E70122EAE70122F1E700BFE7
S2140073D0001000210040084438B50D46F9F7F6FDC8
S2140073E01E4A0446FFF77EFC062827D804282CD819
S2140073F003282AD0FEF7E2FE194B2A78D3F8E83E97
S214007400022A23F00F0325D0042A0CBF02220022F2
S21400741013436A78022A1FD0042A0CBF02220022D5
S21400742043EA82030E4AC2F8E83E0E4B0422204688
S214007430C3F88820FAF7FEF800200AE00728D9D11A
S214007440D2F844319B00CDD4D4E72046FAF7F2F8C0
S214007450022038BD0122DBE70122E1E700400840B8
S2140074600010002100400844FDF7D8BFF8B50F789B
S21400747090F8D460044638460D46FCF797FF88B36C
S21400748084F8D470AB88A4F8D8306B88A4F8D630CB
S214007490AB88636404F1D407FF23A3753846FDF771
S2140074A0A5FA0546F8B93846FCF776FF0546D0B982
S2140074B0D4F88C3053B194F8D410B14206D0B3F956
S2140074C012202046FBF794FF84F8DD002046FDF7E7
S2140074D091F90121A4F8D80004F1A00000F02CFFD7
S2140074E02846F8BD0125032384F8D430F8E770B5A4
S2140074F0054690F8D40003280C462AD0FF292AD047
S214007500FDF710F8064695F8D400FCF7F7FFA04202
S21400751010D323469E4295F8D40011DBFDF702F8FF
S2140075200446AC752046FDF7ADF8A0F1FF035842BF
S214007530584170BD95F8D400FCF7E0FF0346E9E734
S214007540FCF7DCFFA042ECD295F8D400FCF7D6FF9F
S214007550E6E70220EDE70120EBE710B590F8D4301F
S214007560032B04462BD04175D0F88C0020B3D4F8FA
S2140075709C304BB994F8DD308B420BD3204600226A
S214007580BDE81040FFF7B3BFB4F92420B0F91230BD
S2140075909A42F3DD94F8DD1000222046FFF7A7FF9D
S2140075A060B9C4F88C002046FCF786FA01462046EF
S2140075B0BDE81040FCF720BAFF23A37510BD0220DB
S2140075C0FCE7000070B5C36B012B84B003D1002527
S2140075D0284604B070BD374BD0F88C60D3F8F8302E
S2140075E0C0F890303146058B0446FEF759F8B3894B
S2140075F08DF80E00D6E90121EB1A9BB201FB03229F
S21400760002A80021ADF80C300292FEF7B3F805464A
S21400761028BBFDF7B9F9237C65F341032374FDF716
S21400762011FDD4F88C305A69431EDBB21268019201
S214007630FD2B0CD9D61C0AD91F4B01321B6812D061
S214007640D91CC5D8024601A92046019302E002468D
S21400765001A92046FCF774FE284604B070BD02253A
S214007660284604B070BDDA1C05D8024601A920469B
S2140076700193FCF765FED4F8FC309B0506D4237C0A
S214007680284643F00203237404B070BD4FF48031E3
S2140076902046FCF77EFAD4F8F820D4F8FC300240F6
S2140076A00B4052EA030193D00449204609688847F4
S2140076B08EE700BF001F0021440000204800002085
S2140076C04FF48071FFF700BB38B590F8E0400546F0
S2140076D0ACB1F9F77BFC0A4B1F22DA61013C03F1DF
S2140076E000731440DC6103F17A43D5F8E4201A668F
S2140076F0D5F8E8205A66BDE83840F9F79BBF38BD94
S2140077000060084410B58B78012B02460C4600F248
S2140077108D80CB78012B00F289800878012800F252
S21400772085804978042900F2818009B1012B7DD13A
S214007730012845D02068C2F8EC006378002B40D1C1
S2140077403B49C1F884303B4B4FF0605199613A4B4E
S2140077501B7813B1394B06211967394B4FF080510E
S214007760C3F8941003F17C43D3F888305B0208D446
S214007770536B13F0800F14BF324A2E4A4FF4001397
S2140077809361314A4FF48073C2F8EC3002F17C42C8
S214007790C2F8E830A378002B40D12C4B40F6FF729D
S2140077A05A62E378002B3CD1284B40F6FF725A65AC
S2140077B0274B60225A64224B4022C3F888200020C0
S2140077C010BD013BDBB2032BE4D8224A52F823302B
S2140077D0184A4FF06051916102F1007243F40013B1
S2140077E09361134A0423C2F88430136F23F0060310
S2140077F043F004031367184B4FF08052C3F89420ED
S214007800FEF726FB0028C5D0104A4FF48073C2F856
S214007810E83002F1C062C2F8EC30BBE7FFF7B4FA1A
S214007820BFE7064B60225A640B4BC5E70120C7E74B
S21400783000000840006008441818002000000844B3
S2140078400040084400600846001008440010084045
S214007850000008464C950000004008462DE9F04F11
S214007860064685B01546084619B9012005B0BDE89C
S214007870F08F002AF9D0032904D80021FCF794FCE5
S2140078800028F2D081780488037990F805B0C28881
S214007890B0F90000002801F00707C0F2B180A7F198
S2140078A0070CDCF1000040EB0C00052F28728CBFA3
S2140078B0C1F300100020C1F3801C6872880985F8A7
S2140078C00CC000F00200C1F3C00C40EA0C00C1F38B
S2140078D040116873A9730BB996F8CE30013BDBB242
S2140078E0EB73736BD90600F18580063F012F00F21B
S2140078F08180444BDB6C444B596B1B6B03F00703D6
S21400790006334FF0010808FA03F808F1FF38063C82
S21400791004EA080441F00059B37C19F804A00134C5
S214007920AAF1320A4FFA8AFA08EA0404C2F30B07ED
S2140079309BB30020D6F898300BB151469847631C8D
S21400794008EA0303E87285F80AA019F80310013361
S21400795008EA030319F80320013308EA030341EA9F
S214007960022119F80320013308EA030341EA024121
S21400797019F803006A7B002341EA0061304600F0F4
S214007980EEFD2860B37C042B03D1022F9CBF013090
S21400799028600423AB71002068E7D6F8900019F839
S2140079A0041048B10368022B06D990F82430D2049C
S2140079B012D44800C0B2BDE73046CDE90221FFF739
S2140079C0BDFC01903046FFF7A3FC019BB3FBF0F033
S2140079D0DDE90221C3B2EAE7F8000BB1B0FBF3F031
S2140079E08345A6D80028A4D0CBEB0B2BBBFBF0F02E
S2140079F0C043DFE7002080236B812860A87135E74D
S214007A00022033E70000084000100840F8B59779D8
S214007A1006461446FFF722FF054640B9A37933B160
S214007A20A7713046FFF78AFC214600F065FD284620
S214007A30F8BDB3FA83F3192B084610B5114612D0D9
S214007A40C3F11903DBB2062B28BF06231A46941D82
S214007A50E3B201249C40A4B2A14228BF2146FCF711
S214007A60A5F9204610BD0022F1E713883F2B10B57C
S214007A70084615D9B3FA83F3192B0FD0C3F11903AF
S214007A80DBB2062B28BF062319468B1DDCB201236A
S214007A90A3401380FCF7A6F9002010BD0021F4E7F0
S214007AA00120FAE7FFF770B970B50A4B0A4DD3F814
S214007AB0EC604FF48064C5F8EC400020FEF71AFC3A
S214007AC04FF400536B65730544BF044BC3F8EC409A
S214007AD070BD00BF001008400010084400100846A3
S214007AE0082318B1024AC2F888307047014AFAE7FC
S214007AF0004008460040084410B5084614460121D8
S214007B00FDF786FB20460121FDF782FB002010BD15
S214007B102DE9F04104460D4619B990F91030002BB6
S214007B2026DB4A4BA18BD3F88420D4F8906012F45D
S214007B30E05F04BF2022C3F810224FF6FF7399427D
S214007B4028D0434B1B682BB3424F20469847D4F8A7
S214007B509010D7F80080884540D0002937D00B68B1
S214007B60002B67D00B69002B64D0D3E9003230E0DD
S214007B70037C364AD0F8906061F3C7130374D2F8DA
S214007B8084304FF6FF7113F4E05F818302D1202327
S214007B90C2F810322F4FD7F80080B0453146DCD1FE
S214007BA020460126FCF726FE002D3DD094F9131042
S214007BB02046FFF7DFFA284AD4F89000274B3860B3
S214007BC00621116701221A700020BDE8F0810B46DD
S214007BD00A46C4E928322046FFF79CF8B045DFD0B5
S214007BE01F4B1B6833B116B132684AB3B6683146CC
S214007BF020469847D4F89030F3B11A68022A1BD969
S214007C005A6A12F47F4FC2F3072005D01B6AD2B21D
S214007C1003FB02F2B2FBF0F000F0FEFA2046072665
S214007C20FCF7E8FD002DC1D1314604F1A00000F0BC
S214007C3083FBBBE71A46CCE72046FBF737FDEBE7AE
S214007C401646314620469847D4E700BF00600840F5
S214007C50241800201C1800200000084418180020D3
S214007C601418002008B504484822002101F066FADE
S214007C70BDE80840FFF734B8EC1E0021032373B5B7
S214007C8080F8D43000234FF0FF35C3746423C0E976
S214007C902D33C0E92F33C0E907554564C0F8B0302E
S214007CA0A0F8C4304575C58204461120F9F7E6FAF7
S214007CB0042803D00226304602B070BD184B5B681D
S214007CC013F4403FF6D12046FEF7CCF82046FFF7E7
S214007CD0C9FF94F913102046FFF74CFA114B6022A7
S214007CE05A6404F1EC012046FFF70CFD626B064671
S214007CF029462046FFF792FA0E230022CDE90033EC
S214007D0040F2022310461946FDF7C6FEFCF7E0FBDC
S214007D10002ED0D1204602B0BDE87040FBF750BF21
S214007D2000300E400000084070B50C68B0F8D8204F
S214007D308D680346013404BFD3F8B0400C604C682D
S214007D40013404BFD3F8BC404C6041326C1C92B284
S214007D5000F1A00033D1D3F8B850CC688D60661C13
S214007D6031D1D3F8B4400E69CC60013604BFD3F8E5
S214007D70A8600E614E69013604BFD3F8AC604E6150
S214007D808E69013604BFD3F8C0608E618E69F6B185
S214007D90B24238BF32460E688A61C3E92C644C682A
S214007DA0C3F8B850C3E92F420A69C3F8A8204A6945
S214007DB0C3F8AC20072100F0BFFA002070BD954242
S214007DC038BF1546C9E7944238BF1446CBE764224D
S214007DD0E1E7000038B5F9F7F9F80B4A13884FF6D3
S214007DE0FF718B4203D1F9F725FC032038BD074C01
S214007DF0074DE56504F100741B04E3651180F9F78F
S214007E0019FC0020F2E700BF500000200060084484
S214007E100000FFFF2DE9F34105460E461446FFF726
S214007E2087F9002800F0C480624B4FF400612846B2
S214007E30D3F8E88ED3F8C47EFEF746FF40B15E4B1B
S214007E404FF400720121C3F888200846FBF71AFC9D
S214007E5031462846FBF7D0FD564B0646C3F8E88E5B
S214007E60C3F8C47E002840F086802B7C9F0601D491
S214007E70002C58D0C4F34000FEF76CF914F4807F51
S214007E8014BF4E4A4C4A4FF002031BBFC2F888305C
S214007E904B4AC2F8883000211CBFD1609362FEF7BF
S214007EA08DF914F0040F14BF464A474A4FF4806316
S214007EB0D361414B042214F0400FC3F8882014BF4E
S214007EC0424A434A40232046C2F88030FEF7AEFFBF
S214007ED02846FFF7F5FB40B114F0010F14BF374AF0
S214007EE0354A4FF48073C2F88830A00647D56B8CAD
S214007EF04FF6FF7293420FD0364A3749D26D100CB8
S214007F00C2F30112088001322F49B3FBF2F32D4A67
S214007F103248C8651B04D3652B7C003C18BF01247F
S214007F2064F345132B74284600F082F800B3284605
S214007F30FFF7C6FBE0B14FF400312846FEF7C4FE5B
S214007F40002814BF02230123032201A91C48FBF7C3
S214007F50ADFF9DF80410224A01F00703052B9DF89B
S214007F6005301BD109070DD443F48073C2F8CC301A
S214007F700020FCF7FAF9304602B0BDE8F081FFF7C2
S214007F8029FFC9E713F0040F08BF9DF80630144A0E
S214007F900CBF43F480734FF48073E7E703F03001BF
S214007FA0202902D113F0010FEEE79DF80630DDE739
S214007FB00226E0E700100021004008440040084682
S214007FC0001008400060084600600844007008463C
S214007FD00070084400600840500000200000FFFFCA
S214007FE0001E002138B504461D46FFF713FF28B9CA
S214007FF029462046BDE83840FEF75AB838BD7047D7
S214008000024B4FF40022C3F8882070470040084413
S214008010024BD3F88800C0F3C040704700400840C9
S214008020014B024A1A60704714180020B16D000018
S2140080308021FEF749BE000010B5837C033BDBB20F
S214008040032B96BF094A0021D15C0446FEF7E8FFE1
S2140080500120FCF7E9FF064B20461B6E40F8483F20
S2140080600122BDE810400421FBF72ABF74950000EA
S21400807000600840012310B580F8C6302823C0F8F9
S214008080AC3004238374054B04461968FBF7D2FC16
S2140080902046FFF7D1FF002010BD00BF30AF000024
S2140080A0012310B580F8C6302823C0F8AC30022370
S2140080B08374054B04461968FBF7BCFC2046FFF7A3
S2140080C0BBFF002010BD00BF2CAF000010B504465B
S2140080D0FFF7E6FF2046BDE81040FFF7ADBF000003
S2140080E0F8B5D0F8E4308B4204460D46164601F04B
S2140080F0010703D190F8E030202B19D087B3002E6B
S2140081000CBF5523AA2395FAA5F293FAA3F31B0BEB
S21400811003F4702343EA12432364202384F8E030F8
S2140081200023C4F8E450C4F8E8302046FFF7CCFA41
S2140081300D4B0F22DA650D4AA7B19EB90121D16514
S2140081400B4AC3F8FC20236C084AC3F31303C2F897
S214008150FC3026B1074BA5640222C3F8B820F8BD50
S214008160AA23D0E70221EAE7006008440060084638
S214008170FFFF0F0000100840134A072310B5536393
S214008180124C134B89B14421E16240F040000121BA
S214008190206359634FF48043C2F8A030C2F8A4307D
S2140081A0C2F8A830C2F8AC3010BD4FF48042E1628D
S2140081B021635963C3F8A020C3F8A420C3F8A820FD
S2140081C0C3F8AC20F0E700BF0000084400000840F9
S2140081D000000846002070470D4BD3F80421D3F862
S2140081E0B030D2B2FF2A03D043F30743591C01D163
S2140081F090221923074903EBD37302EB630381F83C
S2140082004B30022381F84A30232381F849307047E7
S2140082100081E00F001F002110B504461448FCF74B
S2140082204BFE34B1C30103EB5403B3FBF4F4114B20
S2140082301C67114A5368D80218D4104B1B68D2F832
S214008240A810C3F3810311F4806203F10103C9B2DD
S21400825018BFDA00FF2906D00749D1F8AC10490547
S21400826001D502EBC302034B5A6710BD0022FAE7A2
S21400827040420F00001F0021000008400020084078
S214008280084B1A68C117A2FB000310F1807002FBAE
S214008290013343F10003400E40EAC310803820EA61
S2140082A0E070704734180020174B072270B5C3F8EB
S2140082B08420FCF79FFF154B154A164EC408010B89
S2140082C00546E005C01841F10001002300F080F9E2
S2140082D0114B18604EF66020FFF7D2FF4042C6F8FA
S2140082E09C000E48FCF7E8FD024658B1E301500832
S2140082F018184FEA15714FF0000341F1000100F025
S21400830067F9B06770BD00BF00400840B2E60E00D7
S21400831065CD1D00001F00213418002040420F00CC
S21400832038B14FF47A735843A0F6AC53581AFFF797
S214008330A7BF4CF25030FAE7F8B50D4606460028BF
S21400834000F0A080E9074FD58469002C00F09B80E0
S214008350FCF732FA4FF47A735C43201A7468A0F67E
S214008360AC50001BFFF78CFF4E4BB48CC3F88C0050
S214008370002C00F08B80FCF71FFA4FF47A735C43F6
S214008380201A7468A0F6AC50001BFFF779FF454B27
S214008390C3F884007469002C7BD0FCF70DFA4FF408
S2140083A07A735C43231A74683268A3F6AC531B1BBB
S2140083B09B1A3D4A3B4C1168D817A1FB033213F1B8
S2140083C0807301FB002242F100025B0E43EAC213F7
S2140083D0803BC4F88830376AFCF7EEF90146384629
S2140083E0FFF79EFFC4F89800AA072FD5F3684FF44E
S2140083F07A70584363B1336803F51C53103318443E
S21400840096F82630002B46F2A81308BF002318441F
S214008410FFF736FF234BC3F89400F369002B3BD0DD
S21400842070684FF47A7202FB030096F82630A0F5C7
S2140084300350002BA0F1100046F2A81308BF00233B
S214008440C01AFFF71DFF174BC3F890006B0719D52E
S214008450306920B34FF47A735843A0F503501038B0
S214008460FFF70EFF0F4CE067B3684FF47A7058437F
S21400847023B1336803F51C5310331844FFF700FF8D
S214008480C4F88000F8BD4CF250306BE74CF2503028
S2140084907BE74CF250338CE747F23050D1E747F297
S2140084A03050DDE7001F00213418002058B1064B7D
S2140084B011441422B0FBF2F203FB01220A23B0FBA4
S2140084C0F3F0B2FBF0F07047A0860100094AD06DC9
S2140084D0C0F30113000C03FB000342F210718B4241
S2140084E09FBFD06900F01F000130C01888BF4FF052
S2140084F0FF3070470060084038B505460C46D1B1DD
S2140085008B79C3B1013B062B0ED8DFE803F01B06C0
S214008510041D1B1F210002238B7129460020FFF734
S214008520D5FF431C014607D10020A071A37913B1E3
S21400853023681844206038BD00222846FFF7B6FF9F
S2140085404042F3E704238B710020EFE707238B718B
S214008550A2880021D2002846FFF7A8FFE6E738B534
S214008560054608461C46FCF798FCD5F8A0304FF4A4
S2140085707A7203F5FA73B3FBF2F3E41A204438BDBB
S214008580074BD3F8D8304FF604014FF605029BB2DE
S2140085908B4208BF1346034A01209365704700BF0D
S2140085A00081E00F0050084000228A4202D14FF0BE
S2140085B0FF30704750F8223093FAA3F3B3FA83F3F0
S2140085C0202B02D003EB421070470132EDE700008B
S2140085D053B94AB9002908BF00281CBF4FF0FF3125
S2140085E04FF0FF3000F074B9ADF1080C6DE904CE21
S2140085F000F006F8DDF804E0DDE9022304B0704779
S2140086002DE9F047089D04468E46002B4DD18A4240
S214008610944669D9B2FA82F252B101FA02F3C2F173
S214008620200120FA01F10CFA02FC41EA030E944004
S2140086304FEA1C48210CBEFBF8F61FFA8CF708FB25
S21400864016E341EA034306FB07F199420AD91CEBFD
S214008650030306F1FF3080F01F81994240F21C812F
S214008660023E63445B1AA4B2B3FBF8F008FB103377
S21400867044EA034400FB07F7A7420AD91CEB0404AC
S21400868000F1FF3380F00A81A74240F2078164447C
S214008690023840EA0640E41B00261DB1D440002301
S2140086A0C5E900433146BDE8F0878B4209D9002D65
S2140086B000F0EF800026C5E9000130463146BDE8EF
S2140086C0F087B3FA83F6002E4AD18B4202D3824259
S2140086D000F2F980841A61EB030301209E46002D08
S2140086E0E0D0C5E9004EDDE702B9FFDEB2FA82F25D
S2140086F0002A40F09280A1EB0C014FEA1C471FFABB
S2140087008CFE0126200CB1FBF7F307FB131140EAA1
S21400871001410EFB03F0884208D91CEB010103F16E
S214008720FF3802D2884200F2CB804346091AA4B230
S214008730B1FBF7F007FB101144EA01440EFB00FE04
S214008740A64508D91CEB040400F1FF3102D2A64569
S21400875000F2BB800846A4EB0E0440EA03409CE708
S214008760C6F12007B34022FA07FC4CEA030C20FAB5
S21400877007F401FA06F31C43F9404FEA1C4900FAD5
S21400878006F3B1FBF9F8200C1FFA8CFE09FB181152
S21400879040EA014108FB0EF0884202FA06F20BD9C5
S2140087A01CEB010108F1FF3A80F08880884240F215
S2140087B08580A8F102086144091AA4B2B1FBF9F059
S2140087C009FB101144EA014100FB0EFE8E4508D954
S2140087D01CEB010100F1FF346CD28E456AD90238D9
S2140087E0614440EA0840A0FB0294A1EB0E01A142BE
S2140087F0C846A64656D353D05DB1B3EB080261EB2C
S2140088000E0101FA07F722FA06F3F1401F43C5E905
S214008810007100263146BDE8F087C2F12003D8403B
S2140088200CFA02FC21FA03F3914001434FEA1C477D
S2140088301FFA8CFEB3FBF7F007FB10360B0C43EA6F
S214008840064300FB0EF69E4204FA02F408D91CEB1F
S214008850030300F1FF382FD29E422DD9023863441D
S2140088609B1B89B2B3FBF7F607FB163341EA0341BD
S21400887006FB0EF38B4208D91CEB010106F1FF380C
S21400888016D28B4214D9023E6144C91A46EA004603
S21400889038E72E46284605E70646E3E61846F8E695
S2140088A04B45A9D2B9EB020864EB0C0E0138A3E7DE
S2140088B04646EAE7204694E74046D1E7D0467BE7BF
S2140088C0023B614432E7304609E76444023842E737
S2140088D0704700BF81F0004102E000BF83F0004314
S2140088E030B54FEA41044FEA430594EA050F08BF46
S2140088F090EA020F1FBF54EA000C55EA020C7FEA0A
S214008900645C7FEA655C00F0E2804FEA5454D4EB86
S2140089105555B8BF6D420CDD2C4480EA020281EA50
S214008920030382EA000083EA010180EA020281EA88
S2140089300303362D88BF30BD11F0004F4FEA0131DA
S2140089404FF4801C4CEA113102D0404261EB4101E9
S21400895013F0004F4FEA03334CEA133302D052426F
S21400896063EB430394EA050F00F0A780A4F101042B
S214008970D5F1200E0DDB02FA0EFC22FA05F2801865
S21400898041F1000103FA0EF2801843FA05F359414B
S2140089900EE0A5F120050EF1200E012A03FA0EFCCA
S2140089A028BF4CF0020C43FA05F3C01851EBE371F4
S2140089B001F0004507D54FF0000EDCF1000C7EEB11
S2140089C000006EEB0101B1F5801F1BD3B1F5001F4F
S2140089D00CD349085FEA30004FEA3C0C04F101046E
S2140089E04FEA445212F5800F80F09A80BCF1004F97
S2140089F008BF5FEA500C50F1000041EB045141EA19
S214008A00050130BD5FEA4C0C404141EB0101013CE1
S214008A1028BFB1F5801FE9D291F0000F04BF0146D0
S214008A200020B1FA81F308BF2033A3F10B03B3F1A2
S214008A3020020CDA0C3208DD02F1140CC2F10C0232
S214008A4001FA0CF021FA02F10CE002F11402D8BF90
S214008A50C2F1200C01FA02F120FA0CFCDCBF41EA5C
S214008A600C019040E41AA2BF01EB0451294330BD2B
S214008A706FEA04041F3C1CDA0C340EDC04F1140408
S214008A80C4F1200220FA04F001FA02F340EA0300DF
S214008A9021FA04F345EA030130BDC4F10C04C4F125
S214008AA0200220FA02F001FA04F340EA0300294605
S214008AB030BD21FA04F0294630BD94F0000F83F44F
S214008AC0801306BF81F480110134013D4EE77FEA32
S214008AD0645C18BF7FEA655C29D094EA050F08BF7E
S214008AE090EA020F05D054EA000C04BF194610465F
S214008AF030BD91EA030F1EBF0021002030BD5FEAA3
S214008B00545C05D14000494128BF41F0004130BDCA
S214008B1014F580043CBF01F5801130BD01F000451E
S214008B2045F0FE4141F470014FF0000030BD7FEA91
S214008B30645C1ABF194610467FEA655C1CBF0B468C
S214008B40024650EA013406BF52EA033591EA030FA3
S214008B5041F4002130BD00BF90F0000F04BF00219B
S214008B60704730B54FF4806404F132044FF00005CE
S214008B704FF0000150E700BF90F0000F04BF002147
S214008B80704730B54FF4806404F1320410F00045AD
S214008B9048BF40424FF000013EE700BF42004FEAA8
S214008BA0E2014FEA31014FEA02701FBF12F07F4325
S214008BB093F07F4F81F06051704732F07F4208BFDC
S214008BC0704793F07F4F04BF41F40021704730B5E3
S214008BD04FF4607401F0004521F000411CE700BF2F
S214008BE050EA010208BF704730B54FF000050AE0B2
S214008BF050EA010208BF704730B511F0004502D5B3
S214008C00404261EB41014FF4806404F132045FEAB4
S214008C10915C3FF4D8AE4FF003025FEADC0C18BF5D
S214008C2003325FEADC0C18BF033202EBDC02C2F14F
S214008C30200300FA03FC20FA02F001FA03FE40EAE1
S214008C400E0021FA02F11444BDE600BF70B54FF0E5
S214008C50FF0C4CF4E06C1CEA11541DBF1CEA1355C3
S214008C6094EA0C0F95EA0C0F00F0DEF82C4481EA2B
S214008C70030621EA4C5123EA4C5350EA013518BF4B
S214008C8052EA033541F4801143F4801338D0A0FB38
S214008C9002CE4FF00005E1FB02E506F00042E0FBE5
S214008CA003E54FF00006E1FB03569CF0000F18BFEB
S214008CB04EF0010EA4F1FF04B6F5007F64F5407493
S214008CC004D25FEA4E0E6D4146EB060642EAC62126
S214008CD041EA55514FEAC52040EA5E504FEACE2E93
S214008CE0B4F1FD0C88BFBCF5E06F1ED8BEF1004F96
S214008CF008BF5FEA500E50F1000041EB045170BD12
S214008D0006F0004646EA010140EA020081EA030155
S214008D10B4EB5C04C2BFD4EB0C0541EA045170BD51
S214008D2041F480114FF0000E013C00F3AB8014F1CB
S214008D30360FDEBF002001F0004170BDC4F1000414
S214008D40203C35DA0C341BDC04F11404C4F1200595
S214008D5000FA05F320FA04F001FA05F240EA0200F0
S214008D6001F0004221F0004110EBD37021FA04F626
S214008D7042EB06015EEA430E08BF20EAD37070BDE0
S214008D80C4F10C04C4F1200500FA04F320FA05F03F
S214008D9001FA04F240EA020001F0004110EBD37041
S214008DA041F100015EEA430E08BF20EAD37070BDB1
S214008DB0C4F1200500FA05F24EEA020E20FA04F38A
S214008DC001FA05F243EA020321FA04F001F0004139
S214008DD021FA04F220EA020000EBD3705EEA430EAA
S214008DE008BF20EAD37070BD94F0000F0FD101F0D9
S214008DF00046400041EB010111F4801F08BF013C12
S214008E00F7D041EA060195F0000F18BF704703F04F
S214008E100046520043EB030313F4801F08BF013DD6
S214008E20F7D043EA0603704794EA0C0F0CEA135592
S214008E3018BF95EA0C0F0CD050EA410618BF52EA4C
S214008E404306D1D181EA030101F000414FF0000052
S214008E5070BD50EA410606BF1046194652EA430660
S214008E6019D094EA0C0F02D150EA013613D195EAD4
S214008E700C0F05D152EA03361CBF104619460AD11C
S214008E8081EA030101F0004141F0FE4141F4700126
S214008E904FF0000070BD41F0FE4141F4780170BD16
S214008EA070B54FF0FF0C4CF4E06C1CEA11541DBF7B
S214008EB01CEA135594EA0C0F95EA0C0F00F0A7F87D
S214008EC0A4EB050481EA030E52EA03354FEA0131AA
S214008ED000F088804FEA03334FF0805545EA1313BD
S214008EE043EA12634FEA022245EA111545EA106585
S214008EF04FEA00260EF000419D4208BF964244F11C
S214008F00FD0404F5407402D25B084FEA3202B61A3A
S214008F1065EB03055B084FEA32024FF480104FF40E
S214008F20002CB6EB020E75EB030E22BFB61A754682
S214008F3040EA0C005B084FEA3202B6EB020E75EB15
S214008F40030E22BFB61A754640EA5C005B084FEA7D
S214008F503202B6EB020E75EB030E22BFB61A75464A
S214008F6040EA9C005B084FEA3202B6EB020E75EB55
S214008F70030E22BFB61A754640EADC0055EA060E16
S214008F8018D04FEA051545EA16754FEA06164FEA59
S214008F90C30343EA52734FEAC2025FEA1C1CC0D105
S214008FA011F4801F0BD141EA00014FF000004FF092
S214008FB0004CB6E711F4801F04BF01430020B4F153
S214008FC0FD0C88BFBCF5E06F3FF6AFAEB5EB030C0B
S214008FD004BFB6EB020C5FEA500C50F1000041EB08
S214008FE0045170BD0EF0004E4EEA113114EB5C04D5
S214008FF0C2BFD4EB0C0541EA045170BD41F48011A8
S2140090004FF0000E013C90E645EA060E8DE60CEAAF
S214009010135594EA0C0F08BF95EA0C0F3FF43BAFCC
S21400902094EA0C0F0AD150EA01347FF434AF95EA83
S2140090300C0F7FF425AF104619462CE795EA0C0F67
S21400904006D152EA03353FF4FDAE1046194622E734
S21400905050EA410618BF52EA43067FF4C5AE50EA0E
S21400906041047FF40DAF52EA43057FF4EBAE12E7FE
S2140090704A0011D212F5001211D20DD56FF4787392
S214009080B3EB62520ED44FEAC12343F0004343EAE7
S214009090505323FA02F070474FF00000704750EA32
S2140090A0013002D14FF0FF3070474FF0000070479C
S2140090B008B5074B044613B10021AFF30080054BFB
S2140090C01868836A03B198472046F7F7F9FF00BF90
S2140090D00000000040B4000070B50D4D0D4C641B40
S2140090E0A4100026A64209D10B4D0C4C00F0E6F861
S2140090F0641BA4100026A64205D170BD55F8043B9B
S21400910098470136EEE755F8043B98470136F2E7F4
S214009110BC000020BC000020BC000020C0000020D6
S2140091200A44914200F1FF3300D1704710B511F8A0
S214009130014B03F8014F9142F9D110BD024403469A
S214009140934200D1704703F8011BF9E7024B014632
S214009150186800F02DB800BF5800002010B501397F
S2140091600244904201D1002005E0037811F8014F37
S214009170A34201D0181B10BD0130F2E7884210B59B
S21400918001EB020402D98442234607D8431EA142BB
S21400919008D011F8012B03F8012FF8E70244014626
S2140091A08A4200D110BD13F8014D02F8014DF7E7D1
S2140091B0F8B5CD1C25F0030508350C2D38BF0C2559
S2140091C0002D064601DBA94203D90C23336000209C
S2140091D0F8BD00F057F821490A6814469CB9204F9C
S2140091E03B6823B92146304600F03CF838602946F3
S2140091F0304600F037F8431C23D10C23336030464A
S21400920000F046F8E3E723685B1B17D40B2B03D963
S21400921023601C44256004E06368A2420CBF0B6018
S2140092205360304600F034F804F10B00231D20F0A4
S2140092300700C21ACCD01B1AA350C9E7224664689E
S214009240CCE7C41C24F00304A042E3D0211A304625
S21400925000F008F80130DDD1CFE700BF3818002055
S2140092603C18002038B5064D0023044608462B60FF
S21400927000F016F8431C02D12B6803B1236038BDFA
S21400928040180020014800F009B800BF441800202C
S214009290014800F004B800BF44180020704770472B
S2140092A0044A05491368002B08BF0B461844106093
S2140092B0184670474818002050180020F8B500BF20
S2140092C0F8BC08BC9E467047F8B500BFF8BC08BCA2
S2140092D09E467047B814B6F1E0CFF3ADB7DD25C9AA
S2140092E0FA79B713000201060409004F544100083A
S2140092F01B00011800052A00022900F01921B447B6
S2140093008FA4BFA14F63FDEED6141D00636032E04C
S214009310375EA488534E6DFB6435BFF70053A181BA
S2140093201F582CD0A54540FC34F3274298009F3E9A
S214009330E22E0ECFFFBF1E45CA8C68234A4F00168A
S214009340531EC44CBAAD9D324B6808CF7BC04C0050
S214009350FE5A24E12BAAA5B2E94617E90A5CF025D5
S21400936000F8927AAC96CDA9BFF249C14A11CC77E3
S2140093700D0003280000000000180000789300008D
S21400938002000000002A0000849300000200000093
S2140093900101020A00000000000028000403020B7E
S2140093A0050C0302010A0302060A09070301050861
S2140093B00602000400014000040001001000000244
S2140093C0800008000200200003000300020096014F
S2140093D013B779FAC925DDB7ADF3CFE0F1B614B807
S2140093E0010100000000000000000000080000006E
S2140093F00002030300000000000000000000000060
S2140094000000000000000000000000000000000057
S21400941040787D0100000000005A62020001000052
S214009420C0CF6A0002000000809FD5000201000045
S214009430002D3101020200000301020304050607A5
S21400944008090A0B0D0E0F10111213141516171813
S214009450191A1B1C1D1E1F20212223242526000C42
S214009460270000007293000002000000999300009D
S21400947002000000000800FCA494000001000107A0
S21400948094940000000800F8E89400000000000033
S2140094900000000083FFBFFFE2FFF1FFF9FFFEFFC1
S2140094A0000000008C00FCFEFFFF00000000000033
S2140094B0FC00D2104C06FAFF75009B05F132FFFF48
S2140094C03E0062020B35000025004B01885F00005D
S2140094D01700E0005E5D00000E008C006A4F000082
S2140094E007002500832800009600FCFEF8006D2388
S2140094F0441FEEFFC700F20E8E37FAFF5C00A4038F
S21400950024A7FFFF3200D601AD3400001F00300153
S214009510004D00001200C000CA4A00000B006E009A
S214009520F73C000005001F002F2000000000000090
S21400953048010000B0130020000100FA04FA000001
S21400954033330A0A0A0008400021000000000038F1
S21400955000000018000000200000000000010101CB
S21400956000000101000000010202030202020204E0
S214009570050404040101020348702E0D4470BC0C5F
S2140095803070C0113C70BE153870180D34703C0D2C
S2140095903070760E2C70760E2870381024705010AE
S2140095A02070260D1C70DC1018704E1114701E0DE5
S2140095B0B110076001D80A7108B87F78020C7E786F
S2140095C0641000C6A01F00218CB8707801B0076830
S2140095D00F305CB30F330111C048069816022FB047
S2140095E006D80C7109DD087100B853A809BB111024
S2140095F0076801682148076004100112FF322150F5
S214009600076051480760008806986A1200C4441F25
S214009610002103DD087214BA281400A000BA03DF84
S214009620107109DF067202982E058CB8507800A0DB
S2140096304413281441158110076002D8147110884D
S2140096400698301700C00C70084006988A190091DA
S21400965006982C020060B83020D8067190BC637C57
S21400966000C4E01008404412076201322140084C52
S214009670287C784D5412F03240DE0472404804DBF9
S21400968008720DDD0C72044BEF3014480698CA06BB
S214009690811140D91C72B1123032CF4A013AB1DA88
S2140096A0107208D8067104D80871B04C237C3E703E
S2140096B0684C4412FF328722047580B8D84C81D893
S2140096C0307140D90472237C084B0698CA0604BA47
S2140096D088B9767900C1186008403579E049007984
S2140096E006B904A901D82E72BC4C307C0298FE0143
S2140096F008D80C7107BA24D8047106BA187004D8B2
S2140097000C7101BA40D80E7102BA0A7005BA20D898
S214009710047203BA604C4411404C181407611814C4
S2140097209111383111429111076910D90472EF3244
S21400973000C100600840141110310169114228145C
S214009740A1110761181406987019181400C100605A
S214009750084014110769FF31181400C114000840AE
S21400976014111814076100C2206008402412FF324A
S2140097700471104918143088024806988E05009324
S21400978008DB047101F800A05CB00F3000A0108860
S214009790B111076980D90A7100C18000084008111C
S2140097A0009100A000C400010840441000A000C0C2
S2140097B020300E40041104101050F47200A054150E
S2140097C0504512710698D4060698640618B8707844
S2140097D000B8417806980C0390BA5B7A5C7A5D7A9A
S2140097E000C218500840241200C1541F002128113E
S2140097F006983A172088008800C5481F002154158F
S2140098005112FF350762FF32069836020159512978
S214009810047511590090212920750698520406985F
S2140098206E040698C602009203D80C728111076176
S21400983002D90472FF0FBA7018B8727800F804D80C
S21400984042710088308800C0FC1F0021041000C14F
S214009850541F00211412012A215A00C31850084030
S2140098603413312A1A7500C000600840041007300F
S214009870FE200C76381108B87F78020C7E780093AC
S214009880009000A000C0F41F0021041000BB1DB40F
S21400989000A000C1DC1F002114111088FF3100C594
S2140098A0FFFF0000311207620762513A513B0E7209
S2140098B006983E0C1159011201131E7031140088CF
S2140098C0311006983E0C1159415C41280698400C10
S2140098D0513801130090012B009020880760011476
S2140098E00760FF30215D411207620762312D08765E
S2140098F0FF34415C4128015D31100698400CFF3072
S2140099003088011300C0E01F00210410512B0C7694
S214009910076801150768FF356070315BFF32212B41
S2140099200C75076001150760FF354E7000C5E41F13
S21400993000215415076507655112FF35FF30012BCE
S214009940087521100760327021100768FF30012B60
S2140099500A75211007600760207000C2E81F00210A
S2140099602412211007600760FF30012B08752110B4
S2140099700768067021100760FF300093009200C150
S2140099800060084014142C490734FE242A76141567
S214009990F0BC076C513C076803680154107100C4A2
S2140099A0FF0FFFFF513C01444811311200C5E81F6C
S2140099B000215415FF3507620762214354491412EB
S2140099C02155FF355152281100A001D81871008882
S2140099D000C00470084004108020FF30067106980E
S2140099E01A03009000A002D8047200A0008806980F
S2140099F064061DB428B9112C408800C3EC1F002152
S214009A00341440445A7144130698EC04411500C0BF
S214009A100060084004100730FD20447500C208703E
S214009A20084024100760FF3080DC34710698920CE2
S214009A3001591C4A241007600260FF300698920CF9
S214009A400158B2200129541331100698920C11289F
S214009A500A75042554155045EE720698EC040094D9
S214009A60009000A07FB9066100C01C600840069800
S214009A70701204155153113B3155581006986A124E
S214009A8000A0EBBD00C0441F00210411113D10D9F9
S214009A901271FF33076B00C190400846381118B9A1
S214009AA07479581000A006982C028024E4240D3007
S214009AB00472044800C11C510840141100C3E01E83
S214009AC00021911504351A72181388BB08D8047142
S214009AD06C7B04D804716A7B8CBB2F7C5B7B167016
S214009AE0044B181388BB08D804716F7B04D8047124
S214009AF06D7B217C0C3001600698500606982C0B76
S214009B000698000700B8B111076940D90672029896
S214009B10340601BC00C20060084000DC0A7124154F
S214009B200165604A0A701C4A241507657C4A04359C
S214009B3008D920712024512A241200C18000084030
S214009B40320C2811076228110762281107622811B3
S214009B50500C00C13C1F0021141200DC1A7120D8E2
S214009B60067101B80C70F0DA0C720CDB087102B8E2
S214009B700698580648247C49141100C38000084003
S214009B80FFB8012011410871014118130824014251
S214009B9000C13830084014110141036D5141911540
S214009BA02035016D514118132813481300C37C005B
S214009BB00840341003D80C71073005DC0671084BDA
S214009BC0227B8CB8507800B800C13C1F00211412CC
S214009BD003682150F0300152281100A0402406648A
S214009BE000C0FFFF0100013C1DB0022001584028C4
S214009BF006751EAC01EC00A0208800C01850084076
S214009C0004121DB4211304123052F871066C40245D
S214009C1000C3781F0021341014110698A40C06699E
S214009C20009211592129067600BB115906987A0C24
S214009C3080B80158013A0662313B0472215A412A23
S214009C4000A000C200010840317A00A0308880B928
S214009C50076900C30000C0FF3110312800BC002D8A
S214009C600C7511541EAC01EC312DF470066C5113BA
S214009C704155312C009300A000C028400E4004132C
S214009C80315107610C3107691153381000A006984E
S214009C90120800C0F41F0021041106980007217A5C
S214009CA0237A00C3000010000698400700C05C1F1F
S214009CB000211DB1181000A000C0581F00211DB1C2
S214009CC0181000C09C1F00210410002D067500B857
S214009CD026A80698D40600C09C1F00210410012C5C
S214009CE006750698640628B010B9115911380EB9D1
S214009CF0114028A880B800C144300840081100C1AF
S214009D00F01F00211410303B06710760076000C486
S214009D100830084044111150FF30015118146FB834
S214009D20076826A8217A050C21102048267800C04E
S214009D3063EF0000314026A8050C20EC247A20ECC6
S214009D40217A184826A828B00AB901510F311150B7
S214009D5028A8050C207A20EC0F0C98B84678417895
S214009D600698360200C2481F002124100151FF3118
S214009D701150081200A00698120800B826A800C0C5
S214009D80601F00211DB1181000A030B840780DB13A
S214009D9001D9FC72427800C074300E4004114CBAEF
S214009DA0407A1810144804115C7A1810A4BB707B13
S214009DB04E7B4F7B00C20430084000A00698120875
S214009DC0217A227A00BB0698400700C06C1F00214B
S214009DD01DB11810A4BB00C040300E400411033162
S214009DE001492872B11207620762304804112151F6
S214009DF00F3118726E7B6F7B104804114CBA7C7A58
S214009E00181014480411607A1810B11002D8107196
S214009E10707B30B8627860780DB001D8FC7100C0F5
S214009E20F8600840041101D90C7100C01800084001
S214009E3002B9181008B86E780EB84EB110D90C7268
S214009E403EA8140C0FB83EA8107044A8140C01B815
S214009E5000C1B0300E40081100C077801F003DB230
S214009E6001423DAA00C0FFFFFFFC013A3DAA140CC8
S214009E7000C077E01F0001423DAAFFB845207D786C
S214009E8008B87E7800C124600840141107610631C6
S214009E90087100B90698B60F0698701206989619BB
S214009EA002D906720698720B06986A125114069822
S214009EB06406F4B845780A0C00C0681F00211DB17E
S214009EC018100298900FFFB845205D7803B8076019
S214009ED044A83EA800C1B0300E40081110B807686C
S214009EE03DB101393DA908B86F7800A046A800C06A
S214009EF0FFFF0000013B076356AB94BA437A01D9D3
S214009F001471013C47B300C0FE20FFFF013B314403
S214009F1047AC637AFFB82120407802D90471607894
S214009F2000A0C8BC066C415C512C067506986406F9
S214009F300698500DB110076824D8367140BA0698B6
S214009F4040128CBC7F7C08B86578911004D81871D4
S214009F5088B86E78577800C0640008402178069864
S214009F60DE0F01400872427C06987C120298040BB1
S214009F7008B86C7820B859785B7800C0F440084080
S214009F807878797800C1C81F0021141040A81849B5
S214009F9014130449408814140C4914118112076ADA
S214009FA0006A01DA187188B8577800C0CC1F002103
S214009FB00410016107630763076407640698740961
S214009FC000944EB010D842724DB161B801581138A5
S214009FD040B102D90A72604804BB41540870204858
S214009FE002BB02BC4DA8F8B87078190C3EB14141CE
S214009FF03EA9F4B973797378717800C4F8400840C4
S21400A00000C200410840227000C20000010044AABD
S21400A010230C00C200000B0044AA00C410410840F4
S21400A02000C21841084004BB587C050C597C0C241F
S21400A0300F0C2FAB050CB11008D81471647A657A32
S21400A0401CB879787B7820B879787B78607CF424A3
S21400A05041130698CA0651144044067506986406CD
S21400A060727BFFB84D20050C687840EC00C0641F7A
S21400A07000211DB11810911004D8147100C0BC1E28
S21400A0800021041080D806711CB8737800F818B840
S21400A09000C1DC1E002100C21850084024122811FE
S21400A0A0767800F800C0B8600840041107610761C0
S21400A0B080D9047240EC00C4F84008404EB010D876
S21400A0C00471182441130C23527C407B11512FA994
S21400A0D0050C797C0A0C00C0000001020814787C8C
S21400A0E0050C507C08B86D7800A0B11001D8047239
S21400A0F000A000C0287008400411108800C1001895
S21400A100004018104448041110887848041110883C
S21400A11000884CBA757A18103DB11088F4B84278A9
S21400A1204420727828487378F8B873784FB200C421
S21400A130FFFF8080413A4FAA01BC016441130763C8
S21400A14000C06C70084003B918100110011001B966
S21400A1501810011001100110011068480411076161
S21400A16001B80160003A0471044904D904724152EE
S21400A1700760003A0471084908D904723152046035
S21400A180003B0E7200630064314241424FAAB27037
S21400A1904FAAF8B853781820537828485278009178
S21400A1A03DA9009000911810009178481810009171
S21400A1B04448181000A0115910D9067107600760AE
S21400A1C008D90471076004D90471036002D90471C8
S21400A1D0016001D90471006000A0108804110230EB
S21400A1E006710761076100C0FFFF0000113800918B
S21400A1F000A000BA01D806710148112A0069006063
S21400A20001D8F6720138F67200A08020FF30FF48B1
S21400A210812000A000C2185008402412115921299C
S21400A220127300210E7100C2305008402412012122
S21400A230212900A00698120888B8577800C5801F04
S21400A24000215088FC4D88BC00C0C81E002181112A
S21400A25001D91E71407C00950115044D50881C4D97
S21400A260FFBB076B315B041106989C0C3129F8750F
S21400A2700698841854150698961901D908720698F7
S21400A280440806700698A60888BB547B009500F81C
S21400A29006984E090E7006982C0B06984E090698DE
S21400A2A0BC100698FE07211900C0246008400A78F2
S21400A2B0097800F810B901BA069836120698900F79
S21400A2C000C5801F002100F89112033288B900C330
S21400A2D0BC1E0021341300C4A81008408CB8427875
S21400A2E0707903DE0671447872707179A11020D8F7
S21400A2F00A71069844080298820E80DB507102D8D4
S21400A3004C7205B830880763076302DB2A7100C306
S21400A310AC0008403413066380DB0472804800C338
S21400A320102008403413315B04724048312831282D
S21400A33002600814076800930814A1101030024841
S21400A340081400B808149110076008148CB86278D6
S21400A350A11000DC0676517900BA80DB3A7100C0A5
S21400A36000000200003B307150884110344803DE84
S21400A37004719048041508200411F82058101C2079
S21400A380217800C0A40008400E7810D904722E78F8
S21400A390069884150095911120310269911004D811
S21400A3A00E7200C1501F0021141101D90A712088B5
S21400A3B00698B60F009200C1180008400533054BFA
S21400A3C01872184C03DE0471904C441400C3FF1F2F
S21400A3D00000413BFF233811B849076A06986A0E09
S21400A3E004490879097914102140081100A000BD1D
S21400A3F00698100210B903DC047100B901BA069879
S21400A400361202D9067100404E7201B107690F314B
S21400A4100698DE0FFFD82872811008D8187106DD5E
S21400A4200A710698100203DC0C720698241006982F
S21400A4307C120C7006DD107106982A10487020B841
S21400A44002A806DD107206984E090698FE0701F867
S21400A45040B802A800F800C0BC1E00210413076321
S21400A46001DB227191100111076911388CB910D8DF
S21400A470087144790298820E02DBFA72A11328DB77
S21400A480F47203BD0698840F06984E0900C5841F13
S21400A49000210698100200BA03DC2A720C4D00C098
S21400A4A0140008400410026800C3741F0021341111
S21400A4B01128FC23341106987A0C00C10C51084070
S21400A4C0069880065415212D00C0F8600840041137
S21400A4D001D9227100C0401F00210410033001DCA6
S21400A4E0147200C0140008400411FD21087602BA58
S21400A4F0076A212D069816070298AA099110015599
S21400A50003355150011900A000C14C1F0021141042
S21400A51001D8427101480760FE200E75811020D8D0
S21400A520087100C1501F0021141101D9287100C004
S21400A530246008400412215107610F310769115247
S21400A540281000C0006008400411911221512031EB
S21400A5501152211900A0811380DB067201B800A0F9
S21400A56000C30C5008403410063030727C4B341256
S21400A5702C4B34100760076040302072811080D862
S21400A580DC713410014A07620360803021508C4829
S21400A5900A717F2355233410013000A000BD0698B1
S21400A5A0840F88B847784578437800B8447800A088
S21400A5B006984E090698241000C58C1F00215415D5
S21400A5C0069816070298AA0900C374000840027B82
S21400A5D00698701250BA069840120698DE0FFFD8FA
S21400A5E04A71911004D84872811007601CD84072D6
S21400A5F020D938721112FF32215134718021802106
S21400A600111400C0E81E00210413FFBA3151113A9C
S21400A610215111538CB938107B7940440E7200B921
S21400A62000C2C41E00211812067008B8607806988A
S21400A6306A1200F800B900C29C1008401812244A9A
S21400A6400AB9181288BA507A517A577A8CB9427970
S21400A6505F7900A00698100207DC107291100020A7
S21400A6600A750698BC100298480D0698FE0701B9B0
S21400A670911004D8047100B910BA0698361200BAC0
S21400A68000402A7100C0BC1E00210411076101D9D8
S21400A690127104D9E2728110076001D8DA718CB8A1
S21400A6A0647800C11C510840069880060698BC10C5
S21400A6B000C5901F00215415212D0698440800C59A
S21400A6C0941F002100F800BC811108D9167280D9A9
S21400A6D0207201B910BA0698361200400E7101BCFD
S21400A6E010700698241006987C1220B802A800F86D
S21400A6F00698BC1081110231127100B900C20C100C
S21400A70008401812244A02B918120698241000C5E8
S21400A710981F0021541506980E190298AA090411CC
S21400A7200121147188BA737A0420041228110420B7
S21400A73004110121F47200A00698CA0601F89110CF
S21400A74010D8347106980C030698520406986E04C6
S21400A75000C51C510840541106989C0C00C5D81E14
S21400A760002154155129E27518B875788CB84478CC
S21400A77001B802A800F8B110076810D82E7100C002
S21400A7804810084000C3000008403114884C4411AB
S21400A7903411076101D9FA71441228100762281093
S21400A7A00762281007622810E8700298460206988A
S21400A7B02C0211380472016A00BB00C1E81E002199
S21400A7C0141120390C72911210DA0672417B00A027
S21400A7D00698701200C2BC1E0021241220DA0472F1
S21400A7E0617B88BA527A00A088BA727A811204DA3B
S21400A7F0FC7200A088B86B78577800C064000840E8
S21400A8002F7800A00763076390B9637900B902DB6D
S21400A810227102EC00C909B801D9507200C2AC001E
S21400A82008400E7A10D904722E7A06988415E03104
S21400A830076102EC00CD114502EC00CC01DB08718B
S21400A84000BB0298CC1603B841110731FA211C76DA
S21400A8500621911210DA087102DD10721E7020B8FF
S21400A86006983E0C3038147208B80698500600C099
S21400A870240008402978207800F8046020D8067163
S21400A88002983A1402EC00CA05B823DA187104DB01
S21400A890DA7120DAD67110DAD27290B8617800B820
S21400A8A001DA067202EC00C8911110D9267100C1B7
S21400A8B0CC1E002114111150FF300C720661A1103D
S21400A8C0115002300A7180DB0A720AB89E708CB989
S21400A8D07C790768911111402111C031114001198E
S21400A8E090B8411108D90471667820D90472657849
S21400A8F0A11002D80672C0DA1E7190B8273123DD87
S21400A900087210DB1072607825DD0A7121DD08728E
S21400A91008DB0471627803B8411107310872A1158B
S21400A9202035AA7102DD3272A11120D9A07102D998
S21400A9302872CCDA9872411140D9927206B802DBBE
S21400A9401071046500C1102008401411112D112D3E
S21400A950054D5C720298C81221114049C0D94E714B
S21400A960A03141154035016551410361076308DA9E
S21400A9701E7204DA38721049A1150235067110DB12
S21400A9800E7201340A7108DB247190B86778CC32F5
S21400A99011101A300ADC0872CCDE0471FD3100C0DA
S21400A9A00D0F0C0D0698400C01D8607207B802987F
S21400A9B0F21200BA411108D90C7102EC00CA05B8AF
S21400A9C030DAEC720734F031026101DA04710149C1
S21400A9D000C0F300A3E30698400C01D8D07100C075
S21400A9E0981440680698400C4030014440DA0471E0
S21400A9F0204C04320162204A1110063000680142E1
S21400AA0018310269114202981013204A00C0051737
S21400AA1008500698400C1130014220880DDA527119
S21400AA2000C1DE1B250180BC04DA107208DA0A7247
S21400AA3000C120841000E024A024FFBB076341432C
S21400AA40016401DA06711E49024B00C0301F002166
S21400AA5007633810BC2002DA127101B91159A1132C
S21400AA6080DB087100C100FCFF0118100298581620
S21400AA7000C4BC1E0021441080D87E710092036280
S21400AA80DDDA0871A11180D9927290BD437DEFBDC9
S21400AA9006980C05DDDA8472A11105D95C7100C236
S21400AAA03810084024120C24281401D9067202D942
S21400AAB0327140D91E7102EC00CA2110183204719E
S21400AAC0FA2220D804720822FE22087502EC00C87A
S21400AAD0F87001D90E7102EC00C802D9067204DCC7
S21400AAE0187200C0BC1E00210410026801D806714E
S21400AAF090B8647818B873780298CC1600C5002011
S21400AB00084000C00417000008D904720A48081557
S21400AB10104D00B808D90472FF200815084D00C073
S21400AB200884000008D9087200C02083B8ED081514
S21400AB30104D207D00A000B8011A00C07400084027
S21400AB40027891101030011905BA0698401202D901
S21400AB50067101B802A800C0BC1E0021041380DBE9
S21400AB60067102988C128CBA7C7A01DB5E7100C288
S21400AB70341F002124111114FF3402EC00C8FF24F6
S21400AB80FA76076106984E0C036111380F300361A0
S21400AB9011140111411006984E0C01D8087203B822
S21400ABA00298F2120C4A02DB1671241011281128A2
S21400ABB00698620C00C218000840FF2008124110D8
S21400ABC0076006984E0C01D87C7120BC1033767155
S21400ABD000BB00C1301F00211415C021112C5112DA
S21400ABE0076A0F320E71408851140698FC164143CE
S21400ABF0009451120765036A0F320E714111511409
S21400AC000698FC16036C41430765513B00C1EC1ED9
S21400AC1000211411111231100F30127100BA0461A4
S21400AC2001D80471114200600FD8F472311002602E
S21400AC301E30047201B8003A087204B80298F21284
S21400AC400298F81400C03C1F002104110F3103DDE8
S21400AC501A7200C000600840041007D80E7200C0C8
S21400AC601040084004B9181000F80698CA0F069855
S21400AC700A0500F830885088FF34087102ECFF247B
S21400AC80F87002EC00CD141001BB5150FFD80471CF
S21400AC9031440760006B10DBF2710421FF22E4727E
S21400ACA00F4C0095009300A000C1C01E0021141197
S21400ACB000A03088069846198111076102D90672ED
S21400ACC00298221888BB557B076120D90671029826
S21400ACD012180088A1100768069830170821141566
S21400ACE0FC2590BB5C7B5D7B00C1006008401411B6
S21400ACF00731FE21307608D82A725113FC2334130C
S21400AD0004DB2071076BFF33315B00C1087008401D
S21400AD101411076180490C71FF313029607590BBB2
S21400AD207B7B1C707B7B7C7B00DD04717D7B01BBA9
S21400AD3038158113076B4033067118BB717BEC2501
S21400AD40541300DF5471042505DF54715415211186
S21400AD50208806989C0C009251293E7500C1006020
S21400AD600840141102DB0C710731315B31292A7659
S21400AD700C7004DF0872006180D91E7206983017C6
S21400AD8000C00870084006988A19069830171411F3
S21400AD90FFD96072029868180090009300A05415BE
S21400ADA0A111076910D9A672082508D8A071082530
S21400ADB010D89A712088211106989C0CFC255412F4
S21400ADC0112AF82554110C2520D80871F0255411A5
S21400ADD01025202904762159181500920298D417B8
S21400ADE018B97179811010D80A7188B8447800B8FB
S21400ADF0417888B9747908B9677900F88110A0D8C5
S21400AE00087188B9497900A0076002D8FA710698D7
S21400AE1030171088069870120762076210DA0871F9
S21400AE2008211415F025541100C20020FEFF202929
S21400AE3012750698961901D90A7206984E09069850
S21400AE40FE0700941CBB41100C200698A611411169
S21400AE50082114100698A611312844111112076112
S21400AE60FF31FF32012210521072076918140424B1
S21400AE704413042438140C7007692141181408245C
S21400AE80081402986A124044147100C1C41E0021BE
S21400AE9014155113036B0FDB0C72066D0698D4065F
S21400AEA0411500A00698FE070698701208BB5114BC
S21400AEB00698CE184415FC2554150298160788B92E
S21400AEC000C3BC1E00213413076308DB1A7181130C
S21400AED0A0DB0671497910706979076302DB087296
S21400AEE008B9677900F800A08111076102D91071CE
S21400AEF088B97579069830171411FF3100A0FFB98C
S21400AF0000A0041008211411F421081100A08111DA
S21400AF100761076110310E71069830170821141169
S21400AF20F821141100A000006C06000064B10000B7
S21400AF30D0B20000DC1F040100000000000000008A
S21400AF400000000000000000F01F02013F00370074
S21400AF5000000000FC1F01010000000004000200C9
S21400AF60018101000001000018000200000000003E
S21400AF70010000002800040000000000000000009F
S21400AF80000000000000000040000100A0070000D4
S21400AF90480001000000000054000200000000000D
S21400AFA000000000A0000400FF4C0000FF4C000062
S21400AFB0FF4D0000FF4D00000020010008070000C4
S21400AFC010200100AAAAAA00182001000060DA00DA
S21400AFD00830010013AC000134300100010000000D
S21400AFE04030010000000000A04001007A27000F5A
S21400AFF0F4400100201000003441020080080000E8
S21400B000E687000044410100C0E6524D604104005E
S21400B010000000000000000006000000060000001F
S21400B0201460010010000000286003000000000308
S21400B03000000000000000006060020029417671F8
S21400B0400000000084600200000000000000000015
S21400B0502070040000000000820000000000800154
S21400B060D5000000487002003C3D0000BC190000FE
S21400B0707870010006E04900FFFFFFFFF81F01019E
S21400B080A8B3000038000200000000000000000026
S21400B09030300100E3381000B840010000C08300E3
S21400B0A0404101006D00880018600400000000C6E2
S21400B0B01FC0010000500000008000005060040027
S21400B0C018000500410C0000080000009100040074
S21400B0D0786003008C000C000000000014001A00CA
S21400B0E08C60070001040B192C404C59605B5347D9
S21400B0F036251B114AF338966745231211090000BE
S21400B100E46007008F0846CB0000000023086404B4
S21400B110D007CB4891200600F9541C008294EA8799
S21400B1200461030051551100B01B000089BB0000EC
S21400B13020610100FFDF00001470011000F8070016
S21400B14014700130F80000001870020000030000C0
S21400B1506000A58370700200054100000F9C03008C
S21400B160FFFFFFFF34AF00000000000078B10000D2
S21400B17004000000000000007CB00000809C2B8FC4
S21400B18080841E00000000002400FF7F5400002082
S21400B190000000007CB00000809C2B8F80841E0086
S21400B1A0000025002500B400540000200000000028
S21400B1B07CB00000809C2B8F80841E000000260040
S21400B1C02600990054000020000000007CB000001B
S21400B1D0809C2B8F80841E00000027002700FF7FA6
S21400B1E05400002000000000F81F0101ECB300002E
S21400B1F038000200000000000000000030300100AF
S21400B20011491000B840010000C0E30040410100B1
S21400B210EA00880018600400000000C61FC0000096
S21400B2200050000000D0320050600400FC006900AE
S21400B230410C0000000000001100080078600300C8
S21400B2400804000000000000BE031A008C6007001F
S21400B25001040C1A2F4653616862584935201407BA
S21400B260C491A0635644332322529224E46007001C
S21400B2708108A1CB00000000198407059411CB4873
S21400B28099200600016120008294EA870461030089
S21400B29065B611001E37000089BB00002061010062
S21400B2A0FFDF00001470011000F807001470013072
S21400B2B0F8020000187002000003000060002784F7
S21400B2C070700200C30000000F9C0300FFFFFFFF2A
S21400B2D034AF000000000000E4B2000006000000EA
S21400B2E000000000E8B10000809C2B8F80841E00C8
S21400B2F0000000002200FF7F540000200000000035
S21400B300E8B10000809C2B8F80841E000000230084
S21400B3102300B6005400002000000000E8B1000042
S21400B320809C2B8F80841E000000240024009D003B
S21400B3305400002000000000E8B10000809C2B8F25
S21400B34080841E000000250025007D00540000209B
S21400B35000000000E8B10000809C2B8F80841E0057
S21400B36000002600260053005400002000000000C5
S21400B370E8B10000809C2B8F80841E000000270010
S21400B3802700FF7F5400002000000000193F010640
S21400B390041001000001010600102700000C000048
S21400B3A000000000000000000B0000001CC7710039
S21400B3B0000000008CB3000030B400000000000065
S21400B3C018CC660080DE800240420F0001010000BB
S21400B3D0E33800020000000000000000000000004B
S21400B3E000000000000000005B420F000B000000A1
S21400B3F0388EE300000000008CB3000038B4000074
S21400B40000000000E070720080DE800280841E0073
S21400B41001010000114900020000000000000000C9
S21400B42000000000000000000000000041841E0034
S21400B430A5A00000C409000008520000B20C0000DD
S21400B4405C00002000000000044DFF7F01000000AB
S21400B450FF050500010008070A0000002C95000003
S21400B460C5350000FFFFFFFFED3C0000E93C000093
S21400B470FFFFFFFF01FF030000000000FF03FE00C8
S21400B48049500000FFFFFFFFF56C0000FFFFFFFFC5
S21400B490FFFF0000FFFFFFFF5C0000200000000031
S21400B4A00000000000000000000000000000000097
S21400B4B00000000000000000000000000000000087
S21400B4C00000000000000000000000000000000077
S21400B4D00000000000000000000000000000000067
S21400B4E00000000000000000000000000000000057
S21400B4F00000000000000000000000003101000015
S21400B5000D010000FFFFFFFFFFFFFFFFFFFFFFFF34
S21400B510FFFFFFFFFFFFFFFFFFFFFFFFFFFFFFFF36
S21400B520FFFFFFFFFFFFFFFFFFFFFFFFFFFFFFFF26
S21400B530FFFFFFFFFFFFFFFFFFFFFFFFFFFFFFFF16
S21400B540FFFFFFFFFFFFFFFFFFFFFFFFFFFFFFFF06
S21400B800C00A00206D720100B5720100B572010019
S21400B810B1EB0100B5720100B5720100B57201000E
S21400B820B5720100B5720100B5720100B572010073
S21400B830B57201004CD9040049D40000B57201006D
S21400B840B5720100F5700400B5720100B572010012
S21400B8505D6904004D710400017104001971040053
S21400B860F9700400FD860100598A0100B5720100D6
S21400B87001D80000EDD70000B5720100B5720100D6
S21400B880B5720100B57201007D8A0100B572010033
S21400B890B5720100B5720100B5720100B572010003
S21400B8A0B5720100B5720100B5720100B5720100F3
S21400B8B051710400FD700400710702008D710400D0
S21400B8C0B5720100F1580400B5720100B5720100AE
S21400B8D0B5720100B5720100B5720100B5720100C3
S21400B8E0B5720100B5720100B5720100B5720100B3
S21400B8F0B5720100B5720100B5720100B5720100A3
S21400B900B5720100B5720100B572010010B5054CA4
S21400B910237833B9044B13B10448AFF300800123F6
S21400B920237010BD480F0020000000004C020500E8
S21400B93008B5034B1BB103490348AFF3008008BDAD
S21400B940000000004C0F00204C020500A3F5803AD2
S21400B950704700BF174B002B08BF134B9D46FFF7E1
S21400B960F5FF00218B460F461348144A121A3EF084
S21400B97077FD0E4B002B00D098470D4B002B00D0C8
S21400B98098470020002104000D000D48002802D032
S21400B9900C48AFF300803EF0F7FC2000290001F0D1
S21400B9A0F7FC3EF0DDFC00BF0000080000000000D1
S21400B9B000000000C00A0020480F0020102D0020C4
S21400B9C0000000000000000000B589B003468DF8B6
S21400B9D00F309DF80F30002B01D1264B00E0264B90
S21400B9E007939DF80F30002B01D11E2300E01F2384
S21400B9F00693224B1878079B069A002133F0B6F878
S21400BA000590059B002B30D01D4B1B681D49184622
S21400BA1012F0E6F81A4B1B681B49184612F0E0F8BD
S21400BA2000BF06F09DF806F09DF8154B1868174BFA
S21400BA300093C923164A174912F0D2F8104B18681B
S21400BA40059B154A154912F0CBF8059806F060F8E4
S21400BA500B4B1B681249184612F0C2F8084B1B68BD
S21400BA600849184612F0BCF8FEE700BF09B05DF8BA
S21400BA7004FB00BFC00A0020E00A0020FF0A0020E6
S21400BA80EC18002088B604008CB6040050B70400FA
S21400BA9094B60400A4B60400B0B60400B4B604001D
S21400BAA0CCB6040000B583B0019000910B4B1B7818
S21400BAB0002B0CBF01230023DBB21A46074B1A707B
S21400BAC0064B1B781846FFF77FFF054B1B6818468A
S21400BAD00BF0E8FF00BF03B05DF804FB000B00208E
S21400BAE0140C002000B58FB003900BAA05AB009392
S21400BAF01346142200210B2033F076F80D900D9B90
S21400BB00002B20D0012005F0CFFF0346002B1AD0D3
S21400BB107B4B1B687B49184612F062F800BF06F0A4
S21400BB201FF806F01FF8764B18680D9B764A774983
S21400BB3012F056F80D9805F0EBFF714B1B68744930
S21400BB40184612F04DF8039BDAB2724B1A77039B35
S21400BB501B0ADAB26F4BDA76039B1B0CDAB26D4B1C
S21400BB609A7605AB6C4918463EF016FE0C900C9B78
S21400BB70002B2ED1624B1B686849184612F030F82D
S21400BB805F4B1B686649184612F02AF800BF05F09E
S21400BB90E7FF05F0E7FF5A4B1868624B0093F52362
S21400BBA0614A624912F01CF8554B1B68604A6149AD
S21400BBB0184612F015F8524B1B6805AA5E4918463F
S21400BBC012F00EF84E4B1B685449184612F008F84F
S21400BBD0FEE751483EF0D8FD0346591C039B9BB236
S21400BBE0564A0C981EF096FF0B9B5A1C05AB19463E
S21400BBF053483EF00DFC0B9BDBB20133DAB2514BDF
S21400BC005A72514832F066FF0D900D9B002B31D0D2
S21400BC103B4B1B684149184611F0E2FF384B1B6846
S21400BC203F49184611F0DCFF00BF05F099FF05F00C
S21400BC3099FF334B18683B4B009340F205133A4A82
S21400BC403A4911F0CDFF2E4B18680D9B2E4A2F490E
S21400BC5011F0C6FF0D9805F05BFF294B1B683B49AA
S21400BC60184611F0BDFF264B1B682C49184611F0EC
S21400BC70B7FFFEE7344B1878002300930023A0227A
S21400BC80A02132F03FFF0D900D9B002B31D01C4BB6
S21400BC901B682249184611F0A3FF194B1B68204960
S21400BCA0184611F09DFF00BF05F05AFF05F05AFF39
S21400BCB0134B18681B4B00934FF487731A4A1B49A3
S21400BCC011F08EFF0E4B18680D9B0F4A0F4911F0AE
S21400BCD087FF0D9805F01CFF094B1B681B4918468B
S21400BCE011F07EFF064B1B680C49184611F078FFD2
S21400BCF0FEE700F02DF800BF0FB05DF804FB00BFB4
S21400BD00EC180020E0B60400B0B60400B4B6040098
S21400BD10E8B60400C00A0020ECB6040088B60400AA
S21400BD208CB6040060B7040094B60400A4B6040001
S21400BD30F4B6040004B704001CB7040048B70400B7
S21400BD40EB0A0020E00A0020FF0A0020CCB6040020
S21400BD5000B585B00120FFF737FE424B1B6818463A
S21400BD600BF086FE404B1B7802220421184632F068
S21400BD7013FF0390039B002B31D03C4B1B683C49C0
S21400BD80184611F02DFF394B1B683A49184611F03A
S21400BD9027FF00BF05F0E4FE05F0E4FE334B18680D
S21400BDA0354B009340F22113344A354911F018FF01
S21400BDB02E4B1868039B334A334911F011FF039842
S21400BDC005F0A6FE294B1B683049184611F008FFFF
S21400BDD0264B1B682649184611F002FFFEE7012392
S21400BDE0009300232A4A4FF47A712A4805F084FC0F
S21400BDF00390039B002B31D01C4B1B681C49184634
S21400BE0011F0EEFE194B1B681A49184611F0E8FEB1
S21400BE1000BF05F0A5FE05F0A5FE144B1868164BEE
S21400BE20009340F22913154A154911F0D9FE0F4B1D
S21400BE301868039B134A144911F0D2FE039805F0C4
S21400BE4067FE0A4B1B681149184611F0C9FE074BDE
S21400BE501B680749184611F0C3FEFEE700BF05B091
S21400BE605DF804FB140C0020FF0A0020EC180020EC
S21400BE7088B604008CB6040070B7040094B60400BC
S21400BE80A4B60400B0B60400B4B60400CCB60400F1
S21400BE90A5BA0000640F002000B585B03E4805F046
S21400BEA0D3FC0390039B002B31D03C4B1B683C49D2
S21400BEB0184611F095FE394B1B683A49184611F0A2
S21400BEC08FFE00BF05F04CFE05F04CFE334B1868A5
S21400BED0354B009340F23113344A354911F080FE59
S21400BEE02E4B1868039B334A334911F079FE0398AA
S21400BEF005F00EFE294B1B683049184611F070FEFF
S21400BF00264B1B682649184611F06AFEFEE72C4BA6
S21400BF101B78184632F018FE0390039B002B31D096
S21400BF201E4B1B681E49184611F05AFE1B4B1B6819
S21400BF301C49184611F054FE00BF05F011FE05F02E
S21400BF4011FE164B1868184B00934FF49A73174A55
S21400BF50174911F045FE114B1868039B154A164900
S21400BF6011F03EFE039805F0D3FD0C4B1B681349F9
S21400BF70184611F035FE094B1B680949184611F0A2
S21400BF802FFEFEE70F4B1B6818460BF07EFD00BF2A
S21400BF9005B05DF804FB00BF640F0020EC1800201D
S21400BFA088B604008CB6040080B7040094B604007B
S21400BFB0A4B60400B0B60400B4B60400CCB60400C0
S21400BFC0FF0A0020140C002008B5032005F06CFDC5
S21400BFD00346002B10D00F4B1B680F49184611F074
S21400BFE0FFFD00BF05F0BCFD05F0BCFD094B1B685E
S21400BFF00A49184611F0F4FD064B1B680849184616
S21400C00011F0EEFD04F0FEFC00F022FA01F0F6FD61
S21400C01000BF08BDEC18002090B7040098B70400D5
S21400C020B8B7040000B583B009F052F9019000BF1C
S21400C03003B05DF804FB0000F0B593B00790079BD3
S21400C0401B6823F47F4323F00703A84A934200F0BB
S21400C0509981A64A934200F2B981A54A934204D038
S21400C060A44A934200F06A81B0E1079B9B889BB28A
S21400C0701946079BDB889BB21A46079B1B899BB217
S21400C08009A8019300920B469B4A06211EF042FD2A
S21400C09009AB05220021182032F0D8FD1190119B23
S21400C0A0002B20D0012005F0FFFC0346002B1AD001
S21400C0B0924B1B689249184611F092FD00BF05F09E
S21400C0C04FFD05F04FFD8D4B1868119B8D4A8E492C
S21400C0D011F086FD119805F01BFD884B1B688B49F7
S21400C0E0184611F07DFD032005F0DEFC0346002B0C
S21400C0F022D0824B1B688649184611F071FD00BF9E
S21400C10005F02EFD05F02EFD7C4B1868079B9B88DE
S21400C1109BB21946079BDB889BB21C46079B1B8974
S21400C1209BB21A46079B5B899BB2019300922346FB
S21400C1300A46784911F054FD704B1B68764918463C
S21400C14011F04EFD0DF137020EAB1146184632F0D7
S21400C15013FE1190119B002B30D0684B1B686E4964
S21400C160184611F03DFD654B1B686C49184611F0EA
S21400C17037FD00BF05F0F4FC05F0F4FC5F4B1868D3
S21400C180674B0093C123674A674911F029FD5B4B53
S21400C1901868119B5B4A5C4911F022FD119805F066
S21400C1A0B7FC564B1B686149184611F019FD534BF6
S21400C1B01B685949184611F013FDFEE7032005F0E9
S21400C1C073FC0346002B29D04C4B1B68504918467D
S21400C1D011F006FD00BF05F0C3FC05F0C3FC474B9D
S21400C1E018689DF83730002B01D0514A00E0514ABC
S21400C1F09DF83D301F469DF83C309DF83B109DF85D
S21400C2003A409DF839509DF838600496039502949C
S21400C210019100933B46484911F0E2FC374B1B68FE
S21400C2203D49184611F0DCFC0EAB1B6823F07F433B
S21400C23010939DF83D308DF82C309DF83C308DF8ED
S21400C2402D309DF83B308DF82E30FF238DF82F30A3
S21400C250FE238DF830309DF83A308DF831309DF859
S21400C26039308DF832309DF838308DF833300BABDE
S21400C270082200211A2032F0E9FC1190119B002BB5
S21400C28030D01E4B1B682449184611F0A9FC1B4BE6
S21400C2901B682249184611F0A3FC00BF05F060FC9D
S21400C2A005F060FC154B18681D4B0093DB231D4AF8
S21400C2B01D4911F095FC114B1868119B114A124943
S21400C2C011F08EFC119805F023FC0C4B1B681749E7
S21400C2D0184611F085FC094B1B680F49184611F0EB
S21400C2E07FFCFEE71098FFF7FDFB70E0A00006015C
S21400C2F0A0000100A0000600BCB70400EC18002057
S21400C300C8B70400D0B70400D4B70400ECB70400E4
S21400C31090B70400F0B70400B8B7040018B80400DB
S21400C320ACBD040020B804002CB8040038B80400E3
S21400C3304CB804005CB804006CB80400032005F098
S21400C340B3FB0346002B10D0224B1B68224918462D
S21400C35011F046FC00BF05F003FC05F003FC1D4B86
S21400C3601B681E49184611F03BFC1A4B1B681C49FB
S21400C370184611F035FCFFF78FFD00F0C9F800F005
S21400C3801BF924E0032005F08FFB0346002B10D09A
S21400C390104B1B681049184611F022FC00BF05F030
S21400C3A0DFFB05F0DFFB0B4B1B680E49184611F050
S21400C3B017FC084B1B680A49184611F011FC00F0E0
S21400C3C047F800F0EDF9FFF7C3FC00E000BF00BF40
S21400C3D013B0F0BDEC18002090B70400A0B804001D
S21400C3E0B8B70400B4B8040000B583B0019001F0FB
S21400C3F04FFF00BF03B05DF804FB000000B587B038
S21400C4000190009103AB00221A609A8010238DF8E9
S21400C410103003AB18460EF00BFC0C4B1B68059354
S21400C420059B1879059B5B791946012303220FF0BB
S21400C430C9FB00214FF480100FF060FCFFF72CFDC5
S21400C4400EF03AFC00BF07B05DF804FBE4C504003C
S21400C45000B585B004F0B2FB0346002B3ED00023A7
S21400C460009300231F4A4EF660211F4805F044F94A
S21400C4700390039B002B31D01C4B1B681C491846AD
S21400C48011F0AEFB194B1B681A49184611F0A8FBB1
S21400C49000BF05F065FB05F065FB144B1868164BEE
S21400C4A0009340F21D13154A154911F099FB0F4BE6
S21400C4B01868039B134A144911F092FB039805F081
S21400C4C027FB0A4B1B681149184611F089FB074BDE
S21400C4D01B680749184611F083FBFEE700BF05B04E
S21400C4E05DF804FBFDC30000980F0020EC18002048
S21400C4F0B8B7040018B80400BCBD040020B8040097
S21400C5002CB80400D0B70400D4B7040038B8040030
S21400C51000B585B01E4805F097F90390039B002BE5
S21400C52031D01C4B1B681C49184611F059FB194B9F
S21400C5301B681A49184611F053FB00BF05F010FBA4
S21400C54005F010FB134B1868154B009340F22513AB
S21400C550144A154911F044FB0E4B1868039B134A06
S21400C560134911F03DFB039805F0D2FA094B1B68FE
S21400C5701049184611F034FB064B1B68064918464E
S21400C58011F02EFBFEE700BF05B05DF804FB00BF10
S21400C590980F0020EC180020B8B7040018B8040064
S21400C5A0D4BD040020B804002CB80400D0B70400A2
S21400C5B0D4B7040038B8040000B583B004F050FCCB
S21400C5C00190019B002B1CD0022005F06DFA03465B
S21400C5D0002B10D0694B1B686949184611F000FB08
S21400C5E000BF05F0BDFA05F0BDFA644B1B6865494F
S21400C5F0184611F0F5FA614B1B686349184611F0AE
S21400C600EFFA04F0C1FD0190019B002B1CD0022024
S21400C61005F04AFA0346002B10D0584B1B685849C1
S21400C620184611F0DDFA00BF05F09AFA05F09AFAFE
S21400C630524B1B685549184611F0D2FA4F4B1B68EF
S21400C6405149184611F0CCFA04F0B8FE0190019B4F
S21400C650002B1CD0022005F027FA0346002B10D032
S21400C660464B1B684649184611F0BAFA00BF05F05B
S21400C67077FA05F077FA414B1B684549184611F0E2
S21400C680AFFA3E4B1B684049184611F0A9FA04F071
S21400C690FBFC04F007FE0190019B002B1CD002203F
S21400C6A005F002FA0346002B10D0344B1B683449C1
S21400C6B0184611F095FA00BF05F052FA05F052FA46
S21400C6C02E4B1B683349184611F08AFA2B4B1B6811
S21400C6D02D49184611F084FA04F070FA034683F0E8
S21400C6E00103DBB2002B22D004F0E4FA0190019B98
S21400C6F0002B1CD0022005F0D7F90346002B10D0E3
S21400C7001E4B1B681E49184611F06AFA00BF05F05A
S21400C71027FA05F027FA194B1B681F49184611F02F
S21400C7205FFA164B1B681849184611F059FA04F0C0
S21400C7301DFF0190019B002B1CD0022005F0B4F9D0
S21400C7400346002B10D00D4B1B680D49184611F000
S21400C75047FA00BF05F004FA05F004FA074B1B6819
S21400C7600E49184611F03CFA044B1B680649184659
S21400C77011F036FA00BF03B05DF804FBEC18002099
S21400C780C8B80400D0B80400B8B70400F4B8040071
S21400C79030B9040070B904009CB90400C8B904009C
S21400C7A008B504F00BFC04F055FD04F069FE04F037
S21400C7B071FC01F044FA04F0DBFD04F0FFF90346D7
S21400C7C083F00103DBB2002B01D004F019FB04F068
S21400C7D0F3FE00BF08BD000000B583B004F054FAB5
S21400C7E003468DF80730032005F05EF90346002B5C
S21400C7F012D00F4B1B680F49184611F0F1F900BF15
S21400C80005F0AEF905F0AEF9094B1B689DF8072058
S21400C8100949184611F0E4F9054B1B680749184604
S21400C82011F0DEF99DF80730184603B05DF804FBFA
S21400C830EC18002090B70400F4B90400B8B7040060
S21400C84008B504F0B5F90346184608BD10B586B01D
S21400C850039002910192019A0299039804F0BAFBA0
S21400C8600590059B002B24D1032005F01DF90346F7
S21400C870002B17D0364B1B683649184611F0B0F916
S21400C88000BF05F06DF905F06DF9314B1C68039B90
S21400C8901B6818463DF000F802460B462E49204617
S21400C8A011F09EF92A4B1B682C49184611F098F98E
S21400C8B04AE0059B112B1DD1032005F0F5F8034631
S21400C8C0002B10D0224B1B682249184611F088F91D
S21400C8D000BF05F045F905F045F91D4B1B682049DA
S21400C8E0184611F07DF91A4B1B681C49184611F0C2
S21400C8F077F929E0059B002B20D0012005F0D4F81D
S21400C9000346002B1AD0124B1B681649184611F026
S21400C91067F900BF05F024F905F024F90C4B1868F8
S21400C920059B114A114911F05BF9059805F0F0F8DE
S21400C930074B1B680E49184611F052F9044B1B684A
S21400C9400649184611F04CF9059B184606B010BD6E
S21400C950EC18002090B704000CBA0400B8B7040026
S21400C96028BA0400C8B70400D0B70400D4B704003F
S21400C97048BA040010B584B001900091009901985F
S21400C98004F074FC0390039B002B48D1032005F0B1
S21400C9908BF80346002B17D0484B1B6848491846AF
S21400C9A011F01EF900BF05F0DBF805F0DBF8434B8D
S21400C9B01C68019B1B6818463CF06EFF02460B463F
S21400C9C04049204611F00CF93C4B1B683E4918467E
S21400C9D011F006F9032005F067F80346002B17D080
S21400C9E0364B1B683649184611F0FAF800BF05F0BA
S21400C9F0B7F805F0B7F8314B1C68009B1B68184663
S21400CA003CF04AFF02460B463049204611F0E8F853
S21400CA102A4B1B682C49184611F0E2F84AE0039BA3
S21400CA20112B1DD1032005F03FF80346002B10D034
S21400CA30224B1B682249184611F0D2F800BF05F0B9
S21400CA408FF805F08FF81D4B1B682149184611F02A
S21400CA50C7F81A4B1B681C49184611F0C1F829E0A4
S21400CA60039B002B20D0012005F01EF80346002B68
S21400CA701AD0124B1B681749184611F0B1F800BFC0
S21400CA8005F06EF805F06EF80C4B1868039B124A1A
S21400CA90124911F0A5F8039805F03AF8074B1B6801
S21400CAA00F49184611F09CF8044B1B6806491846B7
S21400CAB011F096F8039B184604B010BDEC18002041
S21400CAC090B7040068BA0400B8B704007CBA040043
S21400CAD08CBA0400C8B70400D0B70400D4B704006A
S21400CAE0C4BA040010B584B0019000910099019872
S21400CAF004F0D2FC0390039B002B5AD1032004F0D1
S21400CB00D3FF0346002B20D0514B1B6851491846D3
S21400CB1011F066F800BF05F023F805F023F84C4B3B
S21400CB201C68019B1B6807EE903AF8EE677A9FED4B
S21400CB304A7AC7EE876A16EE900A3CF0ADFE0246C9
S21400CB400B464649204611F04BF8414B1B684449BA
S21400CB50184611F045F8032004F0A6FF0346002B04
S21400CB6020D03B4B1B683B49184611F039F800BFF4
S21400CB7004F0F6FF04F0F6FF354B1C68009B1B68BC
S21400CB8007EE903AF8EEE77A9FED337AC7EE876ABB
S21400CB9016EE900A3CF080FE02460B4631492046CF
S21400CBA011F01EF82A4B1B682D49184611F018F88C
S21400CBB04AE0039B112B1DD1032004F075FF0346AA
S21400CBC0002B10D0224B1B682249184611F008F89B
S21400CBD000BF04F0C5FF04F0C5FF1D4B1B682249CB
S21400CBE0184610F0FDFF1A4B1B681D49184610F03A
S21400CBF0F7FF29E0039B002B20D0012004F054FF10
S21400CC000346002B1AD0124B1B681849184610F022
S21400CC10E7FF00BF04F0A4FF04F0A4FF0C4B186865
S21400CC20039B134A134910F0DBFF039804F070FFD0
S21400CC30074B1B681049184610F0D2FF044B1B68C0
S21400CC400749184610F0CCFF039B184604B010BDE9
S21400CC50EC18002090B7040000007A44E4BA040000
S21400CC60B8B70400FCBA04000CBB0400C8B7040044
S21400CC70D0B70400D4B704004CBB040000B587B09E
S21400CC80039002910299039804F04CFA0590059BD4
S21400CC90002B56D1032004F007FF0346002B1ED0BE
S21400CCA03A4B1B683A49184610F09AFF00BF04F04A
S21400CCB057FF04F057FF354B1868039BB3F9003055
S21400CCC01A46039B0233B3F900301946039B04331C
S21400CCD0B3F9003000930B462E4910F081FF2B4B22
S21400CCE01B682D49184610F07BFF032004F0DCFE7D
S21400CCF00346002B1ED0254B1B682549184610F00E
S21400CD006FFF00BF04F02CFF04F02CFF1F4B1868C9
S21400CD10029BB3F900301A46029B0233B3F9003087
S21400CD201946029B0433B3F9003000930B461B49A7
S21400CD3010F056FF154B1B681749184610F050FFA9
S21400CD401FE0059B112B1CD1032004F0ADFE03460B
S21400CD50002B10D00D4B1B680D49184610F040FFF5
S21400CD6000BF04F0FDFE04F0FDFE084B1B680C49F6
S21400CD70184610F035FF054B1B680749184610F09B
S21400CD802FFF059B184607B05DF804FBEC18002043
S21400CD9090B704006CBB0400B8B7040088BB04005E
S21400CDA0A4BB040000B583B004F0E0F90190019B39
S21400CDB0112B1DD1032004F077FE0346002B10D064
S21400CDC01D4B1B681D49184610F00AFF00BF04F0F3
S21400CDD0C7FE04F0C7FE184B1B681949184610F02A
S21400CDE0FFFE154B1B681749184610F0F9FE1DE0AC
S21400CDF0032004F059FE0346002B11D00E4B1B688F
S21400CE000E49184610F0ECFE00BF04F0A9FE04F030
S21400CE10A9FE094B1B68019A0B49184610F0E0FE64
S21400CE20054B1B680749184610F0DAFE019B1846AA
S21400CE3003B05DF804FB00BFEC18002090B70400B8
S21400CE40A4BB0400B8B70400DCBB040000B585B082
S21400CE5003468DF80730032004F026FE0346002B19
S21400CE6017D0264B1B682649184610F0B9FE00BF9F
S21400CE7004F076FE04F076FE204B18689DF8073026
S21400CE80002B01D01F4B00E01F4B1A461F4910F025
S21400CE90A7FE1A4B1B681E49184610F0A1FE9DF807
S21400CEA00730184604F002F903909DF80730002B6F
S21400CEB01FD0039B002B1CD0022004F0F5FD034678
S21400CEC0002B10D00D4B1B681249184610F088FE38
S21400CED000BF04F045FE04F045FE084B1B680E49F3
S21400CEE0184610F07DFE054B1B680949184610F0E1
S21400CEF077FE00BF05B05DF804FB00BFEC1800200D
S21400CF0090B70400F8BB0400FCBB040000BC04009F
S21400CF10B8B70400C8B804000CBC040010B584B050
S21400CF200446084611461A4623468DF80F30034637
S21400CF308DF80E300B468DF80D3013468DF80C30FC
S21400CF4003F03CFE034683F00103DBB2002B31D036
S21400CF509DF80C309DF80D209DF80E109DF80F00E2
S21400CF6000F074FE032004F09FFD0346002B1BD048
S21400CF70124B1B681249184610F032FE00BF04F030
S21400CF80EFFD04F0EFFD0D4B18689DF80F109DF8AF
S21400CF900E409DF80D309DF80C200192009323461C
S21400CFA00A46084910F01CFE044B1B680649184642
S21400CFB010F016FE00BF04B010BD00BFEC18002035
S21400CFC090B704004CBC0400B8B704000F23184602
S21400CFD07047000010B584B00190019804F0D4F9B1
S21400CFE00390039B002B24D1032004F05DFD034631
S21400CFF0002B17D0364B1B683649184610F0F0FD4C
S21400D00000BF04F0ADFD04F0ADFD314B1C68019B84
S21400D0101B6818463CF040FC02460B462E4920464C
S21400D02010F0DEFD2A4B1B682C49184610F0D8FD80
S21400D0304AE0039B112B1DD1032004F035FD034667
S21400D040002B10D0224B1B682249184610F0C8FD52
S21400D05000BF04F085FD04F085FD1D4B1B682049CC
S21400D060184610F0BDFD1A4B1B681C49184610F0F8
S21400D070B7FD29E0039B002B20D0012004F014FD0F
S21400D0800346002B1AD0124B1B681649184610F0A0
S21400D090A7FD00BF04F064FD04F064FD0C4B1868A7
S21400D0A0039B114A114910F09BFD039804F030FDD4
S21400D0B0074B1B680E49184610F092FD044B1B6880
S21400D0C00649184610F08CFD039B184604B010BDA8
S21400D0D0EC18002090B7040078BC0400B8B7040031
S21400D0E090BC0400C8B70400D0B70400D4B704004E
S21400D0F0B8BC040000B585B0019000910E230393E0
S21400D10003F05CFD034683F00103DBB2002B00F066
S21400D11095800099019803F07FFE0390039B002BF7
S21400D1203ED1032004F0C0FC0346002B12D0464B31
S21400D1301B684649184610F053FD00BF04F010FD6A
S21400D14004F010FD404B1868019B1B881A464049A6
S21400D15010F046FD3C4B1B683E49184610F040FD5B
S21400D160032004F0A1FC0346002B12D0364B1B68AC
S21400D1703649184610F034FD00BF04F0F1FC04F008
S21400D180F1FC314B1868009B1B881A46324910F098
S21400D19027FD2D4B1B682F49184610F021FD4DE04A
S21400D1A0039B112B1DD1032004F07EFC0346002BAD
S21400D1B010D0254B1B682549184610F011FD00BFFE
S21400D1C004F0CEFC04F0CEFC1F4B1B682349184627
S21400D1D010F006FD1C4B1B681E49184610F000FD9B
S21400D1E02CE0039B032B29D0039B002B20D001208F
S21400D1F004F05AFC0346002B1AD0134B1B68184940
S21400D200184610F0EDFC00BF04F0AAFC04F0AAFCDF
S21400D2100D4B1868039B134A134910F0E1FC039862
S21400D22004F076FC084B1B681049184610F0D8FC32
S21400D230054B1B680749184610F0D2FC039B18469E
S21400D24005B05DF804FB00BFEC18002090B70400A2
S21400D250DCBC0400B8B70400ECBC0400FCBC040052
S21400D260C8B70400D0B70400D4B7040024BD040037
S21400D27010B584B00190019804F0ACF90390039BBC
S21400D280002B24D1032004F00FFC0346002B17D0FC
S21400D290364B1B683649184610F0A2FC00BF04F057
S21400D2A05FFC04F05FFC314B1C68019B1B68184652
S21400D2B03CF0F2FA02460B462E49204610F090FC4F
S21400D2C02A4B1B682C49184610F08AFC4AE0039B40
S21400D2D0112B1DD1032004F0E7FB0346002B10D0D2
S21400D2E0224B1B682249184610F07AFC00BF04F057
S21400D2F037FC04F037FC1D4B1B682049184610F01D
S21400D3006FFC1A4B1B681C49184610F069FC29E094
S21400D310039B002B20D0012004F0C6FB0346002B05
S21400D3201AD0124B1B681649184610F059FC00BF5D
S21400D33004F016FC04F016FC0C4B1868039B114A0C
S21400D340114910F04DFC039804F0E2FB074B1B68F4
S21400D3500E49184610F044FC044B1B680649184654
S21400D36010F03EFC039B184604B010BDEC180020DD
S21400D37090B704004CBD0400B8B7040064BD0400B8
S21400D380C8B70400D0B70400D4B704008CBD0400AE
S21400D39008B513F03AFAFEF717FE13F043FAFEF755
S21400D3A041FE11F04BFCF8E782B003468DF80730DB
S21400D3B09DF90730002B0CDB9DF8073003F01F02A9
S21400D3C005499DF907305B09012000FA02F241F891
S21400D3D0232000BF02B0704700E100E082B00346A1
S21400D3E08DF807309DF90730002B0DDB9DF80730D0
S21400D3F003F01F0206499DF907305B09012000FA79
S21400D40002F2603341F8232000BF02B0704700BF2D
S21400D41000E100E008B51DF0B3FF1FF084FC25F026
S21400D420DFF821F022FE25F05FFE00BF08BD00B544
S21400D43083B0019029F09CFA30F0DDFB29F0ECFE79
S21400D44000BF03B05DF804FB08B51DF021FE00BF69
S21400D45008BD000000B583B06FF00100FFF7BEFF07
S21400D4606FF00100FFF7A0FF0648FFF7E0FF054852
S21400D4701DF0A8FB019004481DF0D4FB00BF03B0CC
S21400D4805DF804FB4CC504007CC5040000B583B001
S21400D4900190019802F090FF019800F06FFE01984D
S21400D4A001F012FA019801F049FB019801F038FFEB
S21400D4B0019802F0D5F9019802F078FB019802F085
S21400D4C01BFC019802F05EFD019802F0AFFE019889
S21400D4D002F054FF0198FEF7AFFD00BF03B05DF801
S21400D4E004FB82B001900123184602B0704700B5D5
S21400D4F0C5B01DF0E5FC1DF00EFD4390439B002BD0
S21400D50015D04398FFF7EDFF034683F00103DBB227
S21400D510002B0CD101AB184631F0D5FA4290429B55
S21400D520002B06D101AB1846FFF7B0FF02E000BFA4
S21400D53000E000BF45B05DF804FB00BF7047000088
S21400D54008B5042111200CF015FB012108480BF04A
S21400D5509DFF022107480CF00DFB022106480CF047
S21400D56009FB022105480CF005FB0023184608BD00
S21400D57030253E0002001E000300200005002400A7
S21400D58008B501210E480BF081FF00230422092173
S21400D59000200EF017FB00230422062100200EF0C8
S21400D5A011FB00230422072100200EF00BFB0023B2
S21400D5B00422082100200EF005FB00BF08BD00BFB6
S21400D5C000350A00024BDB6C1B0EDBB218467047B8
S21400D5D0B081E00F00B583B01D4B01225A64FFF7FF
S21400D5E0F1FF03468DF807309DF80730002B0CD16D
S21400D5F0184B4AF6E8521A60174B1B68164A43F057
S21400D60004031360134B00221A609DF80730012BA9
S21400D61005D8124B1B68114A43F400531360104B95
S21400D6201B6A23F444130E4A43F488131362084B10
S21400D6301B68074A43F4807313600A4B1B68094A49
S21400D64043F4F843136000BF03B05DF804FB00BF6B
S21400D65000000E4090310E4098310E4064310E406E
S21400D66000400E40A4310E4008B5FFF7B3FF10F09F
S21400D67019FA04F079FC10F053F910F085F910F05F
S21400D680CDF9FFF75DFF10F05DF904F04BFC11F0EB
S21400D69095FA00BF08BD08B5FFF772FF0BF00AF950
S21400D6A000F040F800F05CF900F068F900F074F95A
S21400D6B000BF08BD08B504F0F5FA12F0A5F810F0A2
S21400D6C00BFB19F033FF11F067F900F025F800BFE7
S21400D6D008BD08B510F0ECF810F0F6F8FFF7BAFE43
S21400D6E000BF08BD08B504F03FFA00BF08BD00BF84
S21400D6F0704708B504F0D6F800BF08BD08B5FFF7B8
S21400D700F6FE00BF08BD08B500F0B4FD02F012F941
S21400D71003F074FF00BF08BD08B500F061F800BF55
S21400D72008BD000008B5012105480BF0AFFE05480E
S21400D7300AF0EAF804480AF0E7F800BF08BD00BFA0
S21400D74000350A00C40B0020DC0B002000B583B0B7
S21400D7500190019B1B6A019A12681046984703467F
S21400D760184603B05DF804FB30B595B0174B0CAC0B
S21400D7701D460FCD0FC495E8070084E807004FF458
S21400D780E1330E930023ADF83E304FF48053ADF8EE
S21400D790403000238DF849300D4B07AC1D460FCDA9
S21400D7A00FC42B6823600B4B03AC0FCB84E80F0031
S21400D7B007AB0CAA03A908480090084810F084FE9E
S21400D7C01390139B184615B030BD00BFA4C50400C7
S21400D7D0C0C50400D4C50400F00F0020CC0F002004
S21400D7E008B5FFF7C1FF00BF08BD000008B5034B32
S21400D7F01B68184610F090FF00BF08BDCC0F002035
S21400D80008B5034B1B68184610F086FF00BF08BD1E
S21400D810CC0F002008B50348FFF798FF03461846CC
S21400D82008BD00BFCC0F0020012318467047012317
S21400D8301846704700B583B001238DF807301DF0F9
S21400D840ABFB034683F00103DBB2002B02D00023C0
S21400D8508DF8073004F076F8034683F00103DBB258
S21400D860002B02D000238DF80730FFF7DDFF0346BC
S21400D87083F00103DBB2002B02D000238DF80730C3
S21400D8809DF80730184603B05DF804FB00B583B07A
S21400D89000238DF8073000238DF8063011F09CFB2E
S21400D8A003468DF807301DF085FB03468DF80530DE
S21400D8B09DF80530042B03D101238DF8063006E0D1
S21400D8C09DF80530022B02D101238DF80730FFF7B3
S21400D8D0A1FF03468DF805309DF80530042B03D1D3
S21400D8E001238DF8063006E09DF80530022B02D1A4
S21400D8F001238DF8073004F013F803468DF8053041
S21400D9009DF80530042B03D101238DF8063006E080
S21400D9109DF80530022B02D101238DF80730FFF762
S21400D92086FF03468DF805309DF80530042B03D19D
S21400D93001238DF8063006E09DF80530022B02D153
S21400D94001238DF807309DF80630002B02D0002307
S21400D9508DF807309DF80730184603B05DF804FBD5
S21400D96008B5044809F082FD034809F07FFD00BFB2
S21400D97008BD00BFE4C50400FCC5040008B50448A3
S21400D9800AF068F803480AF065F800BF08BD00BF53
S21400D99014C604002CC6040008B502480AF05AF85B
S21400D9A000BF08BD44C6040084B001900091019BEE
S21400D9B003F1C0630393039B009A1A6000BF04B090
S21400D9C0704784B001900091019B03F1806303933C
S21400D9D0039B009A1A6000BF04B0704700B583B07E
S21400D9E0034600918DF807309DF80730002B26D0AF
S21400D9F09DF80730012B22D09DF80730022B1ED051
S21400DA009DF80730032B1AD09DF80730042B16D04C
S21400DA109DF80730052B12D09DF80730062B0ED048
S21400DA209DF80730072B0AD09DF80730082B06D044
S21400DA309DF80730092B02D09DF807300A2B9DF879
S21400DA40072013465B0013441B010C3303F180438D
S21400DA5003F520430121009A01FA02F21146184606
S21400DA60FFF7AFFF00BF03B05DF804FB00B583B05F
S21400DA70034600918DF807309DF80730002B26D01E
S21400DA809DF80730012B22D09DF80730022B1ED0C0
S21400DA909DF80730032B1AD09DF80730042B16D0BC
S21400DAA09DF80730052B12D09DF80730062B0ED0B8
S21400DAB09DF80730072B0AD09DF80730082B06D0B4
S21400DAC09DF80730092B02D09DF807300A2B9DF8E9
S21400DAD0072013465B0013441B010C3303F18043FD
S21400DAE003F520430121009A01FA02F21146184676
S21400DAF0FFF75AFF00BF03B05DF804FB00B585B022
S21400DB0003460A468DF8073013468DF806309DF812
S21400DB1006209DF8063003F00F039A421CD09DF8AD
S21400DB20063003F00F038DF80630012003F0BCFF2B
S21400DB300346002B10D02D4B1B682D49184610F0BD
S21400DB404FF800BF04F00CF804F00CF8274B1B68E5
S21400DB502849184610F044F89DF80630002B08D0E7
S21400DB609DF80730002B04D00E210920FFF77EFF1A
S21400DB700EE09DF806300F2B0AD19DF8073083F093
S21400DB800103DBB2002B03D00E210920FFF726FF8E
S21400DB90194B02930023039320E09DF80620039B75
S21400DBA042FA03F303F00103002B14D09DF807306C
S21400DBB0002B08D002AA039B13441B7819460820A2
S21400DBC0FFF754FF07E002AA039B13441B7819468D
S21400DBD00820FFF703FF039B01330393039B032BEC
S21400DBE0DBDD00BF05B05DF804FB00BFEC180020CD
S21400DBF064C704006CC704000001020308B50023D4
S21400DC0004220E2109200DF0DDFF0023042200214E
S21400DC1008200DF0D7FF00230422012108200DF074
S21400DC20D1FF00230422022108200DF0CBFF0023A1
S21400DC300422032108200DF0C5FF00BF08BD08B56B
S21400DC400F210020FFF75AFF00BF08BD10B582B0B5
S21400DC500446084611461A4623468DF80730034602
S21400DC608DF806300B468DF8053013468DF80430D7
S21400DC709DF80730DB43DBB203F00F03DBB2194637
S21400DC800020FFF73BFF9DF8073019460120FFF7FD
S21400DC9035FF9DF80630094AD35C99B29DF80530E9
S21400DCA0064AD35C9AB29DF804300448C35C9BB223
S21400DCB003480AF0CBFB00BF02B010BD64C60400E8
S21400DCC044C6040000B585B000F0F4FA03468DF8AB
S21400DCD00B30204B18780DF10B0301221D2131F07B
S21400DCE00DF80390039B002B30D01B4B1B681B4981
S21400DCF018460FF075FF184B1B68194918460FF0A9
S21400DD006FFF00BF03F02CFF03F02CFF124B1868C8
S21400DD10144B00935E23144A14490FF061FF0E4B18
S21400DD201868039B124A13490FF05AFF039803F032
S21400DD30EFFE094B1B68104918460FF051FF064BC3
S21400DD401B68064918460FF04BFFFEE700BF05B0FC
S21400DD505DF804FB56100020EC18002098C704005D
S21400DD609CC7040030C80400A4C70400F4C704001D
S21400DD7000C8040004C804001CC8040000B585B030
S21400DD8000F094FA03468DF80B3000F0E9FA0346EB
S21400DD908DF80A300DF10B0301220021202030F00F
S21400DDA055FF0390039B002B30D0384B1B68384937
S21400DDB018460FF015FF354B1B68364918460FF00E
S21400DDC00FFF00BF03F0CCFE03F0CCFE2F4B18680D
S21400DDD0314B00936823314A31490FF001FF2B4B3A
S21400DDE01868039B2F4A30490FF0FAFE039803F099
S21400DDF08FFE264B1B682D4918460FF0F1FE234B6D
S21400DE001B68234918460FF0EBFEFEE70DF10A03E8
S21400DE1001220021242030F019FF0390039B002BE1
S21400DE2030D01A4B1B681A4918460FF0D9FE174B0C
S21400DE301B68184918460FF0D3FE00BF03F090FE8B
S21400DE4003F090FE114B1868134B00936A23134A95
S21400DE5013490FF0C5FE0D4B1868039B114A124973
S21400DE600FF0BEFE039803F053FE084B1B680F49E5
S21400DE7018460FF0B5FE054B1B68054918460FF00F
S21400DE80AFFEFEE700BF05B05DF804FBEC1800200F
S21400DE9098C704009CC7040048C80400A4C7040030
S21400DEA0F4C7040000C8040004C804001CC804002A
S21400DEB000B583B00190002000F08CFA00BF03B0DC
S21400DEC05DF804FB00B583B00190002000F082FAF4
S21400DED0034B00221A7000BF03B05DF804FB00BFBE
S21400DEE05410002000B587B0039000F0E3F9034615
S21400DEF08DF81330039B1878039BB3F8013099B262
S21400DF00002301930DF1130300930123002230F048
S21400DF10B3FE0590059B002B30D01A4B1B681A49A0
S21400DF2018460FF05DFE174B1B68184918460FF091
S21400DF3057FE00BF03F014FE03F014FE114B1868E2
S21400DF40134B00938823134A13490FF049FE0D4BD9
S21400DF501868059B114A12490FF042FE059803F017
S21400DF60D7FD084B1B680F4918460FF039FE054BC6
S21400DF701B68054918460FF033FEFEE700BF07B0E2
S21400DF805DF804FBEC18002098C704009CC704004A
S21400DF905CC80400A4C70400F4C7040000C804005A
S21400DFA004C804001CC8040000B587B0039000F045
S21400DFB0DBF903468DF81330039B1878039BB3F800
S21400DFC0013099B2002301930DF11303009301234E
S21400DFD0002230F051FE0590059B002B30D01A4BE6
S21400DFE01B681A4918460FF0FBFD174B1B681849AB
S21400DFF018460FF0F5FD00BF03F0B2FD03F0B2FDCA
S21400E000114B1868134B00939623134A13490FF0CD
S21400E010E7FD0D4B1868059B114A12490FF0E0FD0D
S21400E020059803F075FD084B1B680F4918460FF05E
S21400E030D7FD054B1B68054918460FF0D1FDFEE7D6
S21400E04000BF07B05DF804FBEC18002098C704007A
S21400E0509CC7040074C80400A4C70400F4C70400E6
S21400E06000C8040004C804001CC8040000B583B03F
S21400E0700190019B1A780A4B1A70019B9B889BB2F1
S21400E080002B05D0074B01221A70FFF71BFE02E09B
S21400E090044B00221A7000BF03B05DF804FB00BFFB
S21400E0A0561000205410002000B587B003900023BF
S21400E0B08DF81730039B9B79012B05D1039BDB79E9
S21400E0C0184600F087F902E00D238DF81730039B01
S21400E0D01878039BB3F801309BB29DF817201946B9
S21400E0E030F0F4FD0490049B002B30D01A4B1B68D4
S21400E0F01A4918460FF074FD174B1B681849184646
S21400E1000FF06EFD00BF03F02BFD03F02BFD124B4E
S21400E1101868144B0093B723134A14490FF060FD98
S21400E1200D4B1868049B124A12490FF059FD0498CB
S21400E13003F0EEFC084B1B680F4918460FF050FD25
S21400E140054B1B68054918460FF04AFDFEE700BF61
S21400E15007B05DF804FB00BFEC18002098C7040069
S21400E1609CC704008CC80400A4C70400F4C70400BD
S21400E17000C8040004C804001CC8040000B583B02E
S21400E1800190019B1B6823F47F4323F00703334A67
S21400E190934240D0314A93425CD8314A93424AD0A7
S21400E1A02F4A934256D82F4A93421ED02D4A934266
S21400E1B050D82D4A934212D02B4A93424AD82B4A23
S21400E1C0934203D02A4A934203D043E0FFF7D6FD9A
S21400E1D040E0019B04331846FFF76AFE3AE0019BD5
S21400E1E004331846FFF76EFE34E0019BB3F80530A3
S21400E1F09BB21D2B02D0222B06D02BE0019B0433B2
S21400E2001846FFF76FFE05E0019B04331846FFF73C
S21400E210CBFE00BF1EE0019BB3F805309BB21D2B62
S21400E22015D1019BDB79012B11D1019B04331846D4
S21400E230FFF71CFF0BE0019BB3F805309BB2222BC7
S21400E24007D1019B04331846FFF72EFF01E000BFFD
S21400E25000E000BF00BF03B05DF804FBA0000A03A7
S21400E260A0000A02A0000A01A0000601A00001000A
S21400E270A000060008B5054B1B78002B04D0034B06
S21400E28000221A70FFF71EFD00BF08BD55100020C3
S21400E290044B1B78002B02D0034B01221A7000BFE0
S21400E2A0704700BF54100020551000200223184667
S21400E2B07047000000B583B000238DF806300023B9
S21400E2C08DF807303AE09DF80730214A52F823309F
S21400E2D0184609F0DDF803468DF805309DF8053040
S21400E2E0012B0CD19DF807305B00012202FA03F3E4
S21400E2F05AB29DF9063013435BB28DF80630032000
S21400E30003F0D2FB0346002B13D0124B1B681249B6
S21400E31018460FF065FC00BF03F022FC03F022FC59
S21400E3200C4B18689DF807209DF805300B490FF038
S21400E33057FC9DF8073001338DF807309DF80730FD
S21400E340012BC0D99DF80630184603B05DF804FBD3
S21400E350040C0020EC180020A8C80400B0C8040074
S21400E360022318467047000000B583B000238DF8DE
S21400E370073000238DF8063020E09DF80630144A5A
S21400E38052F82330184609F09AFB03468DF80530FC
S21400E3909DF80530012B0CD19DF806305B0001225C
S21400E3A002FA03F35AB29DF9073013435BB28DF8B5
S21400E3B007309DF8063001338DF806309DF806309C
S21400E3C0012BDAD99DF80730184603B05DF804FB38
S21400E3D0140C002000B585B003468DF807300023E6
S21400E3E08DF80F303FE09DF807209DF80F305B005A
S21400E3F042FA03F3DBB203F003038DF80E309DF808
S21400E4000E30012B08D19DF80F301B4A52F82330EE
S21400E410184609F02DFB07E09DF80F30164A52F813
S21400E4202330184609F031FB032003F03DFB03467A
S21400E430002B13D0114B1B68114918460FF0D0FB68
S21400E44000BF03F08DFB03F08DFB0C4B18689DF8A6
S21400E4500F209DF80E300B490FF0C2FB9DF80F30D1
S21400E46001338DF80F309DF80F30012BBBD900BF5C
S21400E47000BF05B05DF804FB140C0020EC1800206B
S21400E480C0C80400C8C8040000B585B0FEF7A4F9EB
S21400E49003468DF80B30204B18780DF10B03012244
S21400E4A0272130F02BFC0390039B002B30D01B4B16
S21400E4B01B681B4918460FF093FB184B1B6819493D
S21400E4C018460FF08DFB00BF03F04AFB03F04AFB33
S21400E4D0124B1868144B00934723144A14490FF044
S21400E4E07FFB0E4B1868039B124A13490FF078FB0C
S21400E4F0039803F00DFB094B1B68104918460FF0F4
S21400E5006FFB064B1B68064918460FF069FBFEE7D3
S21400E51000BF05B05DF804FB8C100020EC1800204E
S21400E520DCC80400E0C804007CC90400E8C8040095
S21400E53040C904004CC9040050C9040068C904005E
S21400E54000B583B001900091FFF79EFF00BF03B0B7
S21400E5505DF804FB00B587B003901E4803F074F91D
S21400E5600590059B002B30D01B4B1B681B4918469B
S21400E5700FF036FB184B1B68194918460FF030FB96
S21400E58000BF03F0EDFA03F0EDFA134B1868154BD5
S21400E59000935723144A15490FF022FB0E4B1868B8
S21400E5A0059B134A13490FF01BFB059803F0B0FABE
S21400E5B0094B1B68104918460FF012FB064B1B68E8
S21400E5C0064918460FF00CFBFEE700BF07B05DF8E3
S21400E5D004FB00BF58100020EC180020DCC8040024
S21400E5E0E0C8040094C90400E8C8040040C9040058
S21400E5F04CC9040050C9040068C9040000B587B0BF
S21400E6000390FEF7E9F803468DF81330039B18785D
S21400E610039BB3F8013099B2002301930DF1130365
S21400E62000930123002230F027FB0590059B002B6A
S21400E63030D01A4B1B681A4918460FF0D1FA174B00
S21400E6401B68184918460FF0CBFA00BF03F088FA8B
S21400E65003F088FA114B1868134B00936523134A8E
S21400E66013490FF0BDFA0D4B1868059B114A124965
S21400E6700FF0B6FA059803F04BFA084B1B680F49E3
S21400E68018460FF0ADFA054B1B68054918460FF003
S21400E690A7FAFEE700BF07B05DF804FBEC18002001
S21400E6A0DCC80400E0C80400B0C90400E8C80400E0
S21400E6B040C904004CC9040050C9040068C90400DD
S21400E6C000B587B00390FEF7BBF803468DF813300D
S21400E6D0039B1878039BB3F8013099B2002301938B
S21400E6E00DF1130300930123002230F0C5FA0590C4
S21400E6F0059B002B30D01A4B1B681A4918460FF0A2
S21400E7006FFA174B1B68184918460FF069FA00BFD6
S21400E71003F026FA03F026FA114B1868134B009301
S21400E7207323134A13490FF05BFA0D4B1868059BC9
S21400E730114A12490FF054FA059803F0E9F9084B0C
S21400E7401B680F4918460FF04BFA054B1B68054926
S21400E75018460FF045FAFEE700BF07B05DF804FB69
S21400E760EC180020DCC80400E0C80400CCC9040093
S21400E770E8C8040040C904004CC9040050C904009D
S21400E78068C9040000B587B00390039B1A78424B13
S21400E7901A70039B9B889BB2002B40D001230093EA
S21400E7A000233E4A42F210713D4802F0A5FF059054
S21400E7B0059B002B30D03B4B1B683B4918460FF09F
S21400E7C00FFA384B1B68394918460FF009FA00BF94
S21400E7D003F0C6F903F0C6F9324B1868344B0093C1
S21400E7E08223344A34490FF0FBF92E4B1868059BF8
S21400E7F0324A33490FF0F4F9059803F089F9294BAA
S21400E8001B68304918460FF0EBF9264B1B68264963
S21400E81018460FF0E5F9FEE7FFF736FE37E020482A
S21400E82003F012F80590059B002B30D01D4B1B689B
S21400E8301D4918460FF0D4F91A4B1B681B49184699
S21400E8400FF0CEF900BF03F08BF903F08BF9154BF0
S21400E8501868174B00938A23164A17490FF0C0F919
S21400E860104B1868059B154A15490FF0B9F905981D
S21400E87003F04EF90B4B1B68124918460FF0B0F91F
S21400E880084B1B68084918460FF0AAF9FEE700BFB8
S21400E89007B05DF804FB00BF8C10002041E50000C7
S21400E8A058100020EC180020DCC80400E0C8040063
S21400E8B0E0C90400E8C8040040C904004CC90400CC
S21400E8C050C9040068C9040000B583B00190019BDC
S21400E8D01B6823F47F4323F00703204A934225D086
S21400E8E01E4A934232D81E4A934203D01D4A934290
S21400E8F006D02BE0019B04331846FFF72BFE28E0DA
S21400E900019BB3F805309BB2272B02D02B2B06D0E9
S21400E9101FE0019B04331846FFF770FE05E0019BDD
S21400E92004331846FFF7CCFE00BF12E0019BB3F895
S21400E93005309BB2272B0BD1019BDB79012B07D12E
S21400E940019B04331846FFF71DFF01E000BF00E0FF
S21400E95000BF00BF03B05DF804FB00BFA0000A03C1
S21400E960A0000601A0000A0100B583B06A460DF1BA
S21400E970020311461846FEF7BDFB0190019B002BD3
S21400E98008D1BDF802200B4B1A80BDF800200A4BB8
S21400E9901A800AE0019B112B07D1064B4FF6FF7237
S21400E9A01A80054B4FF6FF721A8000BF03B05DF861
S21400E9B004FB00BF8E1000209010002000B587B02A
S21400E9C00390FFF7D1FF039B1878039BB3F8013041
S21400E9D099B2002301931F4B00930223002230F0CC
S21400E9E04BF90590059B002B30D01B4B1B681B4931
S21400E9F018460FF0F5F8184B1B68194918460FF023
S21400EA00EFF800BF03F0ACF803F0ACF8124B186850
S21400EA10144B00935523144A14490FF0E1F80E4B9B
S21400EA201868059B124A13490FF0DAF8059803F0A8
S21400EA306FF8094B1B68104918460FF0D1F8064BC3
S21400EA401B68064918460FF0CBF8FEE700BF07B074
S21400EA505DF804FB8E100020EC180020FCC90400B2
S21400EA6000CA040094CA040008CA040058CA040075
S21400EA7064CA040068CA040080CA040000B587B0EF
S21400EA800390FFF771FF039B1878039BB3F80130E0
S21400EA9099B2002301931F4B00930223002230F00B
S21400EAA0EBF80590059B002B30D01B4B1B681B49D1
S21400EAB018460FF095F8184B1B68194918460FF0C2
S21400EAC08FF800BF03F04CF803F04CF8124B1868B0
S21400EAD0144B00936623144A14490FF081F80E4B2A
S21400EAE01868059B124A13490FF07AF8059803F048
S21400EAF00FF8094B1B68104918460FF071F8064BC3
S21400EB001B68064918460FF06BF8FEE700BF07B013
S21400EB105DF804FB90100020EC180020FCC90400EF
S21400EB2000CA0400A8CA040008CA040058CA0400A0
S21400EB3064CA040068CA040080CA040000B583B032
S21400EB400190019B1B6823F47F4323F007030F4AC1
S21400EB50934216D1019BB3F805309BB22E2B05D1FC
S21400EB60019B04331846FFF729FF0AE0019BB3F820
S21400EB7005309BB2302B04D1019B04331846FFF7B7
S21400EB807DFF00BF03B05DF804FB00BFA0000A01D4
S21400EB9000B585B04FF00003029300238DF80730D0
S21400EBA000238DF806300DF106020DF1070102ABC9
S21400EBB01846FDF74BFE0390039B002B0DD1DDEDB1
S21400EBC0027A9FED1C7A67EE877A17EE900A3CF081
S21400EBD085F80346184A13600CE0039B112B24D1DA
S21400EBE0154B6FF000421A6000238DF807300123A2
S21400EBF08DF806309DF80630002B02D00F4B012210
S21400EC001A700E4B1B78002B03D00D4B02221A7085
S21400EC100CE09DF80730002B03D0094B00221A7039
S21400EC2004E0074B01221A7000E000BF05B05DF853
S21400EC3004FB00BF00007A44CC100020D110002056
S21400EC408C0C002000B585B01F4B18781F4B042293
S21400EC50362130F053F80390039B002B30D01C4B2A
S21400EC601B681C4918460EF0BBFF194B1B681A4957
S21400EC7018460EF0B5FF00BF02F072FF02F072FFFA
S21400EC80134B1868154B00938023154A15490EF050
S21400EC90A7FF0F4B1868039B134A14490EF0A0FFFA
S21400ECA0039802F035FF0A4B1B68114918460EF010
S21400ECB097FF074B1B68074918460EF091FFFEE7C3
S21400ECC000BF05B05DF804FBC8100020CC10002083
S21400ECD0EC180020BCCA0400C0CA040094CB040090
S21400ECE0C8CA04001CCB040028CB04002CCB0400AC
S21400ECF044CB040000B585B01F4B18781F4B01228B
S21400ED0033212FF0FBFF0390039B002B30D01C4BCE
S21400ED101B681C4918460EF063FF194B1B681A49FE
S21400ED2018460EF05DFF00BF02F01AFF02F01AFF51
S21400ED30134B1868154B00938B23154A15490EF094
S21400ED404FFF0F4B1868039B134A14490EF048FFF9
S21400ED50039802F0DDFE0A4B1B68114918460EF0B8
S21400ED603FFF074B1B68074918460EF039FFFEE7C2
S21400ED7000BF05B05DF804FBC81000208C0C002016
S21400ED80EC180020BCCA0400C0CA0400B0CB0400C3
S21400ED90C8CA04001CCB040028CB04002CCB0400FB
S21400EDA044CB040000B585B0019000910D4B1B7854
S21400EDB08DF80F30FFF7ECFE0B4B1B78002B01D0C5
S21400EDC0FFF740FF094B1B78002B07D0054B1B783D
S21400EDD09DF80F209A4201D0FFF78CFF00BF05B0C8
S21400EDE05DF804FB8C0C0020C9100020D010002019
S21400EDF000B587B00390214802F026FD0590059BDC
S21400EE00002B30D01E4B1B681E4918460EF0E8FE3D
S21400EE101B4B1B681C4918460EF0E2FE00BF02F0B2
S21400EE209FFE02F09FFE164B1868184B0093A42313
S21400EE30174A18490EF0D4FE114B1868059B164A5F
S21400EE4016490EF0CDFE059802F062FE0C4B1B68CC
S21400EE50134918460EF0C4FE094B1B6809491846AC
S21400EE600EF0BEFEFEE70F4B00221A700E4B00227D
S21400EE701A7000BF07B05DF804FB00BF94100020B6
S21400EE80EC180020BCCA0400C0CA0400C4CB0400AE
S21400EE90C8CA04001CCB040028CB04002CCB0400FA
S21400EEA044CB0400C9100020D010002000B589B063
S21400EEB003900023079300230693FFF769FE039B46
S21400EEC0B3F801309BB2332B06D0362B09D13F4B1B
S21400EED007930423069332E03D4B079301230693E2
S21400EEE02DE03C4B1B683C4918460EF079FE394B2A
S21400EEF01B683A4918460EF073FE00BF02F030FE5B
S21400EF0002F030FE334B1868354B0093BC23354A6D
S21400EF1035490EF065FE2F4B1B68344A34491846B7
S21400EF200EF05EFE2B4B1B68324918460EF058FE5C
S21400EF30284B1B68284918460EF052FEFEE7039B36
S21400EF401878039BB3F8013099B200230193079B0E
S21400EF500093069B00222FF08FFE0590059B002B4A
S21400EF6030D01C4B1B681C4918460EF039FE194B56
S21400EF701B681A4918460EF033FE00BF02F0F0FD7B
S21400EF8002F0F0FD134B1868154B0093C623154A84
S21400EF9015490EF025FE0F4B1868059B164A1749B3
S21400EFA00EF01EFE059802F0B3FD0A4B1B681449CE
S21400EFB018460EF015FE074B1B68074918460EF05C
S21400EFC00FFEFEE700BF09B05DF804FBCC10002082
S21400EFD08C0C0020EC180020BCCA0400C0CA040038
S21400EFE0E0CB0400C8CA04001CCB040058CB0400C5
S21400EFF060CB040078CB040028CB04002CCB0400A4
S21400F00044CB040000B589B00390039B9B889BB259
S21400F010002B14BF012300238DF81B300023079319
S21400F020039B1A78674B1A70039BB3F801309BB2A8
S21400F030332B08D0362B0DD1634A9DF81B30137046
S21400F040624B079334E0624A9DF81B301370614BA5
S21400F05007932DE0604B1B68604918460EF0C0FD14
S21400F0605D4B1B685E4918460EF0BAFD00BF02F005
S21400F07077FD02F077FD584B18685A4B0093DB2358
S21400F080594A5A490EF0ACFD534B1B68584A594929
S21400F09018460EF0A5FD504B1B68574918460EF053
S21400F0A09FFD4D4B1B684D4918460EF099FDFEE737
S21400F0B09DF81B30002B03D0FFF76AFD079B98478F
S21400F0C0414B1B78002B03D1414B1B78002B3CD0C7
S21400F0D0012300930023494AFA21494802F00CFB19
S21400F0E00590059B002B68D03B4B1B683B49184698
S21400F0F00EF076FD384B1B68394918460EF070FD49
S21400F10000BF02F02DFD02F02DFD334B1868354B85
S21400F1100093ED23344A35490EF062FD2E4B1868F5
S21400F120059B384A38490EF05BFD059802F0F0FC66
S21400F130294B1B68354918460EF052FD264B1B68B6
S21400F140264918460EF04CFDFEE72D4802F07CFBE3
S21400F1500590059B002B30D01F4B1B681F49184697
S21400F1600EF03EFD1C4B1B681D4918460EF038FD80
S21400F17000BF02F0F5FC02F0F5FC174B1868194BBF
S21400F1800093F023184A19490EF02AFD124B18680E
S21400F190059B1C4A1C490EF023FD059802F0B8FC9E
S21400F1A00D4B1B68194918460EF01AFD0A4B1B68D2
S21400F1B00A4918460EF014FDFEE700BF09B05DF8D8
S21400F1C004FB00BFC8100020C910002045EC00005A
S21400F1D0D0100020F5EC0000EC180020BCCA04009B
S21400F1E0C0CA0400F4CB0400C8CA04001CCB040048
S21400F1F058CB040060CB040078CB0400A5ED0000DB
S21400F2009410002028CB04002CCB040044CB040030
S21400F21000B587B0039000238DF815300023ADF8B5
S21400F2201630039B9B79022B0CD1039B07331B885C
S21400F230ADF81630BDF81630012B06D013238DF826
S21400F240153002E00D238DF81530039B1878039BCC
S21400F250B3F801309BB29DF8152019462FF036FD05
S21400F2600490049B002B31D0224B1B682249184681
S21400F2700EF0B6FC1F4B1B68204918460EF0B0FC7B
S21400F28000BF02F06DFC02F06DFC1A4B18681C4BB8
S21400F29000934FF483731B4A1B490EF0A1FC154BD9
S21400F2A01868049B194A1A490EF09AFC049802F052
S21400F2B02FFC104B1B68174918460EF091FC0D4B9F
S21400F2C01B680D4918460EF08BFCFEE79DF81530BE
S21400F2D0002B0AD1104B00221A70FFF759FC0F4B77
S21400F2E01B78002B01D0FFF705FD00BF07B05DF8C7
S21400F2F004FB00BFEC180020BCCA0400C0CA04000F
S21400F30010CC0400C8CA04001CCB040028CB0400A0
S21400F3102CCB040044CB0400D1100020D0100020D9
S21400F32000B583B00190019B1B6823F47F4323F054
S21400F33007032B4A934227D0294A93424BD8294A9F
S21400F340934237D0274A934245D8274A934203D060
S21400F350264A934206D03EE0019B04331846FFF748
S21400F36047FD38E0019BB3F805309BB2362B05D03D
S21400F370019BB3F805309BB2332B27D1019B043396
S21400F3801846FFF793FD21E0019BDB79012B1FD187
S21400F390019BB3F805309BB2362B05D0019BB3F822
S21400F3A005309BB2332B13D1019B04331846FFF76D
S21400F3B029FE0DE0019BB3F805309BB2392B09D12D
S21400F3C0019B04331846FFF723FF03E000BF02E06B
S21400F3D000BF00E000BF00BF03B05DF804FB00BF45
S21400F3E0A0000A03A0000A02A0000601A0000A016D
S21400F3F000B583B0114B1B788DF80730104B1B7887
S21400F400002B03D10F4B1B78002B01D0012300E00B
S21400F410002303F00103DAB2084B1A70074B1B787F
S21400F4209DF807209A4204D0044B1B781846FDF737
S21400F4300DFD00BF03B05DF804FB00BFD310002035
S21400F440D4100020D510002000B583B0134B1878D8
S21400F450134B06223C212FF051FC0190019B002B00
S21400F46017D0012002F020FB0346002B11D00D4BD5
S21400F4701B680D4918460EF0B3FB00BF02F070FB88
S21400F48002F070FB074B1B68019A084918460EF0FD
S21400F490A7FB00BF03B05DF804FB00BFD21000203E
S21400F4A0D8100020EC18002024CC04002CCC04003B
S21400F4B000B583B0134B1878134B06223F212FF06C
S21400F4C01DFC0190019B002B17D0012002F0ECFAE6
S21400F4D00346002B11D00D4B1B680D4918460EF045
S21400F4E07FFB00BF02F03CFB02F03CFB074B1B68B7
S21400F4F0019A084918460EF073FB00BF03B05DF88A
S21400F50004FB00BFD2100020E0100020EC18002002
S21400F51024CC04002CCC040000B583B010238DF856
S21400F52000302F4B1B788DF801302E4B1B788DF852
S21400F53002302D4B1B78022B32D0022B4BDC002BDB
S21400F54002D0012B28D046E0284B18786B460322C1
S21400F55042212FF0E9FB0190019B002B18D00120DF
S21400F56002F0A2FA0346002B32D0214B1B68214939
S21400F57018460EF035FB00BF02F0F2FA02F0F2FA7F
S21400F5801B4B1B68019A1C4918460EF029FB1FE00E
S21400F590154B01221A701BE0134B02221A701AE058
S21400F5A0012002F081FA0346002B13D0104B1B6893
S21400F5B0104918460EF014FB00BF02F0D1FA02F014
S21400F5C0D1FA0B4B1B680D4918460EF009FB01E0FB
S21400F5D000BF00E000BF00BF03B05DF804FB00BF43
S21400F5E0E6100020E7100020E8100020D2100020CF
S21400F5F0EC18002024CC040064CC04009CCC04004E
S21400F60000B583B00190094B00221A70084B002207
S21400F6101A70084B00221A70074B00221A70FFF768
S21400F620E7FE00BF03B05DF804FB00BFD410002067
S21400F630D5100020D6100020E810002000B587B0B6
S21400F6400390039B9B889BB2002B14BF01230023CF
S21400F6508DF81730039B1A78284B1A70039BB3F863
S21400F66001309BB2422B10D0422B13DC3C2B02D035
S21400F6703F2B05D00EE0224A9DF81730137037E076
S21400F680204A9DF81730137032E01F4A9DF8173055
S21400F69013702DE01D4B1B681D4918460EF0A0FA8E
S21400F6A01A4B1B681B4918460EF09AFA00BF02F068
S21400F6B057FA02F057FA154B1868174B0093AD230C
S21400F6C0164A17490EF08CFA104B1B68154A164955
S21400F6D018460EF085FA0D4B1B68144918460EF0B6
S21400F6E07FFA0A4B1B680A4918460EF079FAFEE7BD
S21400F6F0FFF77EFE00BF07B05DF804FBD2100020C7
S21400F700D4100020D5100020D6100020EC180020C1
S21400F710C8CC0400CCCC04009CCD0400D4CC04009F
S21400F72024CD040030CD040038CD040050CD0400B4
S21400F73000B587B0039000238DF81730039B9B79A4
S21400F740012B26D13A4B1B78002B1ED0039BDA796F
S21400F750384B1A70384B02221A70364B1B78642BC3
S21400F7600FD0642B1ADC012B02D0022B09D015E037
S21400F770FDF718FB0346002B0FD12F4B01221A7002
S21400F7800BE02D4B01221A7008E081238DF817300C
S21400F79004E00D238DF8173000E000BF039B1878B7
S21400F7A0039BB3F801309BB29DF8172019462FF043
S21400F7B08DFA0490049B002B30D0204B1B68204908
S21400F7C018460EF00DFA1D4B1B681E4918460EF023
S21400F7D007FA00BF02F0C4F902F0C4F9174B186824
S21400F7E0194B0093D423194A19490EF0F9F9134B13
S21400F7F01868049B174A18490EF0F2F9049802F0AC
S21400F80087F90E4B1B68154918460EF0E9F90B4BA5
S21400F8101B680B4918460EF0E3F9FEE79DF8173013
S21400F820002B01D1FFF778FE00BF07B05DF804FBA0
S21400F830D6100020E6100020E7100020EC1800206C
S21400F840C8CC0400CCCC0400B8CD0400D4CC040052
S21400F85024CD04006CCD040070CD040088CD0400D7
S21400F86000B583B00190019B1B6823F47F4323F00F
S21400F87007032C4A93420FD02A4A93424ED82A4A6C
S21400F880934203D0294A934239D047E0019B043380
S21400F8901846FFF7B5FE41E0019BDB79012B17D137
S21400F8A0019BB3F805309BB23C2B0BD0019BB3F801
S21400F8B005309BB23F2B05D0019BB3F805309BB2B9
S21400F8C0422B05D1019B04331846FFF7B7FE22E012
S21400F8D0019BDB79022B1ED1019BB3F805309BB24E
S21400F8E0422B18D1124B1B78022B04D1104B00224E
S21400F8F01A70FFF711FE0E4B00221A700BE0019BE8
S21400F900B3F805309BB2422B07D1019B043318464F
S21400F910FFF70EFF01E000BF00E000BF00BF03B02E
S21400F9205DF804FBA0000A03A0000601A0000A027E
S21400F930E810002000B583B01B4B1B78002B2ED0A0
S21400F9401A491B48FDF79AF90090009B002B02D03D
S21400F950009B112B23D1009B112B14D10023019364
S21400F9600EE0134A019B47F6FF7122F813100F4A68
S21400F970019B47F6FF7122F81310019B0133019398
S21400F980019B022BEDDD0B4B1B78002B01D0FFF704
S21400F9905BFD094B1B78002B01D0FFF789FD00BFEC
S21400F9A003B05DF804FB00BFD3100020D810002081
S21400F9B0E0100020D4100020D510002000B587B03D
S21400F9C003AA04AB11461846FCF7D4FF0590059B26
S21400F9D0002B17D1DDED047A9FED117A67EE877A5A
S21400F9E0FCEEE77A17EE902A0E4B1A60DDED037AEE
S21400F9F0FCEEE77ACDED017A9DF80430DAB20A4BD8
S21400FA001A7009E0059B112B06D1064B4FF0FF320A
S21400FA101A60054BFF221A7000BF07B05DF804FBA2
S21400FA200000C842EC100020F010002000B587B09F
S21400FA300390FFF7C3FF039B1878039BB3F80130CE
S21400FA4099B2002301931F4B0093042300222FF04A
S21400FA5013F90590059B002B30D01B4B1B681B49E8
S21400FA6018460EF0BDF8184B1B68194918460EF0DC
S21400FA70B7F800BF02F074F802F074F8124B18687A
S21400FA80144B00935723144A14490EF0A9F80E4B52
S21400FA901868059B124A13490EF0A2F8059802F062
S21400FAA037F8094B1B68104918460EF099F8064BB4
S21400FAB01B68064918460EF093F8FEE700BF07B02D
S21400FAC05DF804FBEC100020EC180020CCCD040000
S21400FAD0D0CD040068CE0400D8CD04002CCE04009F
S21400FAE038CE04003CCE040054CE040000B587B0E7
S21400FAF00390FFF763FF039B1878039BB3F801306E
S21400FB0099B2002301931F4B0093012300222FF08C
S21400FB10B3F80590059B002B30D01B4B1B681B4988
S21400FB2018460EF05DF8184B1B68194918460EF07B
S21400FB3057F800BF02F014F802F014F8124B1868D9
S21400FB40144B00936823144A14490EF049F80E4BE0
S21400FB501868059B124A13490EF042F8059801F002
S21400FB60D7FF094B1B68104918460EF039F8064BAC
S21400FB701B68064918460EF033F8FEE700BF07B0CC
S21400FB805DF804FBF0100020EC180020CCCD04003B
S21400FB90D0CD040084CE0400D8CD04002CCE0400C2
S21400FBA038CE04003CCE040054CE040000B583B02A
S21400FBB00190019B1B6823F47F4323F007030F4A41
S21400FBC0934216D1019BB3F805309BB2482B05D162
S21400FBD0019B04331846FFF729FF0AE0019BB3F8A0
S21400FBE005309BB2462B04D1019B04331846FFF721
S21400FBF07DFF00BF03B05DF804FB00BFA0000A0154
S21400FC0000B587B0039004AB1846FDF7E3F90590FE
S21400FC10059B002B0CD1DDED047A9FED2C7A67EE68
S21400FC20877AFCEEE77A17EE902A294B1A6006E0F0
S21400FC30059B112B46D1264B4FF0FF321A60039BD3
S21400FC401878039BB3F8013099B200230193204B38
S21400FC500093042300222FF00FF80590059B002B3D
S21400FC6031D01C4B1B681C4918460DF0B9FF194BC8
S21400FC701B681A4918460DF0B3FF00BF01F070FF6D
S21400FC8001F070FF134B1868154B00934A23154A72
S21400FC9015490DF0A5FF0F4B1868059B134A14492C
S21400FCA00DF09EFF059801F033FF0A4B1B681149C3
S21400FCB018460DF095FF074B1B68074918460DF0D0
S21400FCC08FFFFEE700BF07B05DF804FB00007A4434
S21400FCD0900C0020EC1800209CCE0400A0CE04005F
S21400FCE040CF0400A8CE040004CF040010CF0400C8
S21400FCF014CF04002CCF040000B583B00190019B04
S21400FD001B6823F47F4323F00703094A93420AD172
S21400FD10019BB3F805309BB24A2B04D1019B0433F8
S21400FD201846FFF76DFF00BF03B05DF804FB00BF89
S21400FD30A0000A0100B585B00190FDF747F903461B
S21400FD408DF80B300DF10B030122002154202EF00C
S21400FD507DFF0390039B002B20D0012001F0A4FE22
S21400FD600346002B1AD00F4B1B680F4918460DF0A0
S21400FD7037FF00BF01F0F4FE01F0F4FE094B1868EF
S21400FD80039B0A4A0A490DF02BFF039801F0C0FEB8
S21400FD90044B1B68074918460DF022FF00BF05B04C
S21400FDA05DF804FBEC18002054CF04005CCF040080
S21400FDB060CF040078CF040082B0019000BF02B08C
S21400FDC07047000082B00190024B00221A7000BFFC
S21400FDD002B07047940C002000B587B00390039BD8
S21400FDE01878039BB3F8013099B2002301931F4B98
S21400FDF00093042300222EF03FFF0590059B002B66
S21400FE0030D01B4B1B681B4918460DF0E9FE184BFB
S21400FE101B68194918460DF0E3FE00BF01F0A0FE6E
S21400FE2001F0A0FE124B1868144B00935F23144A8F
S21400FE3014490DF0D5FE0E4B1868059B124A13495F
S21400FE400DF0CEFE059801F063FE094B1B681049C5
S21400FE5018460DF0C5FE064B1B68064918460DF001
S21400FE60BFFEFEE700BF07B05DF804FB940C002061
S21400FE70EC1800207CCF040080CF040018D00400CB
S21400FE8088CF0400D8CF04005CCF040060CF040005
S21400FE90E4CF040000B587B0039000238DF8173038
S21400FEA0039B9B79042B11D1039B0733042219462D
S21400FEB02A483AF0ADFA294B1878284B5978274B40
S21400FEC09A78264BDB78FDF729F802E00D238DF8AB
S21400FED01730039B1878039BB3F801309BB29DF84C
S21400FEE0172019462EF0F2FE0490049B002B30D00B
S21400FEF01B4B1B681B4918460DF072FE184B1B68FF
S21400FF00194918460DF06CFE00BF01F029FE01F0FD
S21400FF1029FE134B1868154B00937123144A154994
S21400FF200DF05EFE0E4B1868049B134A13490DF045
S21400FF3057FE049801F0ECFD094B1B681049184663
S21400FF400DF04EFE064B1B68064918460DF048FE9F
S21400FF50FEE700BF07B05DF804FB00BF940C00206E
S21400FF60EC1800207CCF040080CF040024D00400CE
S21400FF7088CF0400D8CF04005CCF040060CF040014
S21400FF80E4CF040000B583B00190019B1B6823F406
S21400FF907F4323F00703254A934233D0234A9342F4
S21400FFA03FD8234A934221D0214A934239D8214A46
S21400FFB0934215D01F4A934233D81F4A934203D028
S21400FFC01E4A934206D02CE0019B04331846FFF7E6
S21400FFD0B1FE26E0019B04331846FFF7EDFE20E055
S21400FFE0019B04331846FFF7EDFE1AE0019BB3F8B9
S21400FFF005309BB2532B11D1019B04331846FFF7F3
S214010000EBFE0BE0019BB3F805309BB2532B07D1F7
S214010010019B04331846FFF73DFF01E000BF00E0F7
S21401002000BF00BF03B05DF804FB00BFA0000A02DA
S214010030A0000A01A0000601A0000100A000060021
S21401004000B585B001AA02AB11461846FCF74AFD79
S2140100500390039B002B12D1029B104AA2FB0323A1
S214010060DB089AB20E4B1A80019B0E4A82FB0312E2
S2140100709210DB17D31A1AB20B4B1A800AE0039BB5
S214010080112B07D1064B4FF6FF721A80064B47F627
S214010090FF721A8000BF05B05DF804FBCDCCCCCC56
S2140100A0980C0020676666669A0C002000B587B03B
S2140100B00390FFF7C5FF039B1878039BB3F8013045
S2140100C099B2002301931F4B0093022300222EF0C6
S2140100D0D3FD0590059B002B30D01B4B1B681B499D
S2140100E018460DF07DFD184B1B68194918460DF092
S2140100F077FD00BF01F034FD01F034FD124B1868A6
S214010100144B00935723144A14490DF069FD0E4B06
S2140101101868059B124A13490DF062FD059801F017
S214010120F7FC094B1B68104918460DF059FD064BA4
S2140101301B68064918460DF053FDFEE700BF07B0E1
S2140101405DF804FB980C0020EC18002034D0040065
S21401015038D00400CCD0040040D0040090D0040075
S2140101609CD00400A0D00400B8D0040000B587B02D
S2140101700390FFF765FF039B1878039BB3F80130E4
S21401018099B2002301931F4B0093022300222EF005
S21401019073FD0590059B002B30D01B4B1B681B493C
S2140101A018460DF01DFD184B1B68194918460DF031
S2140101B017FD00BF01F0D4FC01F0D4FC124B186807
S2140101C0144B00936823144A14490DF009FD0E4B95
S2140101D01868059B124A13490DF002FD059801F0B7
S2140101E097FC094B1B68104918460DF0F9FC064BA5
S2140101F01B68064918460DF0F3FCFEE700BF07B082
S2140102005DF804FB9A0C0020EC18002034D00400A2
S21401021038D00400E4D0040040D0040090D004009C
S2140102209CD00400A0D00400B8D0040000B583B070
S2140102300190019B1B6823F47F4323F007030F4AB9
S214010240934216D1019BB3F805309BB24C2B05D1D6
S214010250019B04331846FFF789FF0AE0019BB3F8B8
S21401026005309BB24E2B04D1019B04331846FFF791
S2140102701DFF00BF03B05DF804FB00BFA0000A012C
S21401028000B587B0039004AB1846FCF7F1FF059064
S214010290059B002B0DD1DDED047A9FED2D7A67EEDF
S2140102A0877AFDEEE77A17EE903A1AB2294B1A8052
S2140102B006E0059B112B46D1264B47F6FF721A80A6
S2140102C0039B1878039BB3F8013099B2002301937E
S2140102D0204B0093022300222EF0CEFC0590059BB6
S2140102E0002B31D01C4B1B681C4918460DF078FCBE
S2140102F0194B1B681A4918460DF072FC00BF01F035
S2140103002FFC01F02FFC144B1868164B00934A2360
S214010310154A16490DF064FC0F4B1868059B144AE4
S21401032014490DF05DFC059801F0F2FB0A4B1B68C1
S214010330114918460DF054FC074B1B68074918462F
S2140103400DF04EFCFEE700BF07B05DF804FB00BFF2
S2140103500000C842F2100020EC180020FCD0040077
S21401036000D1040098D1040008D104005CD1040037
S21401037068D104006CD1040084D1040000B583B0B8
S2140103800190019B1B6823F47F4323F00703094A6E
S21401039093420AD1019BB3F805309BB2502B04D18E
S2140103A0019B04331846FFF76BFF00BF03B05DF8EF
S2140103B004FB00BFA0000A0100B587B00390039BB1
S2140103C01B6823F47F4323F007034C4A934200F053
S2140103D084804B4A934240F08880039BB3F80530F3
S2140103E09BB2572B40F08380464B01221A70039B29
S2140103F01B790022572118462EF068FC0590059BB4
S214010400002B30D0404B1B68404918460DF0E8FBE6
S2140104103D4B1B683E4918460DF0E2FB00BF01F05C
S2140104209FFB01F09FFB384B18683A4B00933F2324
S214010430394A3A490DF0D4FB334B1868059B384AC4
S21401044038490DF0CDFB059801F062FB2E4B1B6879
S214010450354918460DF0C4FB2B4B1B682B49184633
S2140104600DF0BEFBFEE7039B1B7918462EF0AAFB98
S2140104700590059B002B3AD0234B1B682349184651
S2140104800DF0AEFB204B1B68214918460DF0A8FB6A
S21401049000BF01F065FB01F065FB1B4B18681D4BA7
S2140104A0009343231C4A1D490DF09AFB164B18680E
S2140104B0059B1B4A1B490DF093FB059801F028FB91
S2140104C0114B1B68184918460DF08AFB0E4B1B682A
S2140104D00E4918460DF084FBFEE70A4B1B78002BED
S2140104E007D002202EF036FC03E000BF02E000BF7A
S2140104F000E000BF00BF07B05DF804FBA0000601E6
S214010500A0000A02F4100020EC180020A8D1040074
S214010510ACD1040030D20400B4D10400F4D10400FC
S21401052000D2040004D204001CD2040082B0019060
S214010530019B9B6C184602B0704782B00190019BEC
S2140105409B6B184602B0704782B001900B468DF83F
S21401055003309DF80320019B9A6000BF02B07047EC
S21401056000B587B000238DF8103000238DF81130C8
S2140105701F238DF8123000238DF8133000238DF8D9
S214010580143000238DF8153001AB00221A605A6032
S2140105909A60FF238DF8093001211D4808F076FF87
S2140105A001214FF48A4008F071FF1A4B1B68B3F51E
S2140105B0F81F11D1002008F0C9FC03468DF812304F
S2140105C00021154808F08CFC03468DF8133004AB67
S2140105D01946104808F07CFB05238DF805300323E7
S2140105E08DF80630E0238DF80830FF238DF80930AA
S2140105F001238DF80B3004238DF8043001AB194626
S214010600044808F0D3FB00BF07B05DF804FB00BF49
S21401061000D204000020004040420F0008B501212E
S2140106200948FFF791FF00BF0748FFF786FF03461B
S21401063003F00103002BF7D00348FFF777FF0346CB
S2140106409BB2184608BD00BF0020004000B58DB023
S214010650059003921A460B46ADF812301346ADF8D4
S21401066010308023ADF81830059B0793BDF8123083
S214010670ADF82030BDF81030002B09D00823ADF8B6
S2140106801A30039B0993BDF81030ADF8283002E00C
S2140106900123ADF81A30214B1B6806AA11461846ED
S2140106A007F0B2F903468DF82F309DF92F30002B55
S2140106B02FD01B4B1B681B4918460DF091FA184B9F
S2140106C01B68194918460DF08BFA00BF01F048FA6D
S2140106D001F048FA124B1868144B0093DB23144AB6
S2140106E014490DF07DFA0E4B1B68134A1349184640
S2140106F00DF076FA0A4B1B689DF92F201049184613
S2140107000DF06EFA064B1B68064918460DF068FA9E
S214010710FEE700BF0DB05DF804FB00BF041100202A
S214010720EC18002048D204004CD20400C0D30400C8
S21401073054D204009CD20400A8D20400C0D2040003
S214010740D8D20400000000002DE9F0438FB0034624
S2140107508DF81F30FA200FF025FA102000F048FA25
S2140107600D9051238DF827309DF81F308DF82630D7
S2140107700DF126020DF1270001230121FFF766FF87
S214010780E6238DF8273004238DF826300DF1260256
S2140107900DF1270001230121FFF758FFFA200FF082
S2140107A001FA102000F024FA0C90E6238DF8273089
S2140107B000238DF826300DF126020DF127000123C6
S2140107C00121FFF743FF9DF81F30184639F052F814
S2140107D030A3D3E9002339F0B7F802460B4610469A
S2140107E019462EA3D3E9002338F0F8FE02460B463D
S2140107F01046194639F08AFB03460B939DED0D7A98
S214010800DDED0C7A77EE676A9DED0B7AC6EE877A98
S214010810CDED0A7A032001F047F90346002B2DD0CF
S214010820194B1B68194918460DF0DAF900BF01F09B
S21401083097F901F097F9144B1B6806930D9839F058
S2140108402BF8804689460C9839F026F804460D4662
S2140108500B9839F021F806460F460A9839F01CF82D
S21401086002460B46CDE90423CDE90267CDE90045F2
S21401087042464B46064906980DF0B2F90A9B1846C1
S2140108800FB0BDE8F08300BFEC18002000D30400D1
S21401089008D3040065C8B1F50CE1783FAA7D3A1E7D
S2140108A03350693F86B00390029113468DF80730A6
S2140108B000238DF81730029BD3ED007A9DED037A65
S2140108C0B4EEE77AF1EE10FA04DB029B1B798DF8A1
S2140108D0173092E09DF8073003F10053013BDB002F
S2140108E0029A1344D3ED007A9DED037AB4EEE77ACB
S2140108F0F1EE10FA0BD89DF8073003F10053013BD7
S214010900DB00029A13441B798DF8173075E000233B
S2140109108DF816306AE09DF81630DB00029A134413
S214010920D3ED007A9DED037AB4EEE77AF1EE10FA94
S21401093057D59DF816300133DB00029A1344D3EDE8
S214010940007A9DED037AB4EEE77AF1EE10FA48DB11
S2140109509DF816300133DB00029A1344D3ED007A7A
S2140109609DED037A37EE677A9DF81630DB00029A22
S21401097013441B7919469DF816300133DB00029AA1
S21401098013441B79CB1A07EE903AF8EEE77A67EE36
S214010990276A9DF81630DB00029A134493ED007A1D
S2140109A09DF816300133DB00029A1344D3ED007A2A
S2140109B037EE677AC6EE877AFCEEE77ACDED007AF7
S2140109C09DF800308DF817309DF816300133DB00A6
S2140109D0029A13441A799DF8173013448DF817308C
S2140109E00BE09DF8163001338DF816309DF8162071
S2140109F09DF80730013B9A428DDB9DF8173018466B
S214010A0006B0704700B587B000238DF8133001207B
S214010A1000F060FD0346564A1360012001F046F9D6
S214010A200590059B002B03D1514B1B68002B2FD142
S214010A30504B1B68504918460DF0D2F84D4B1B68B9
S214010A404E4918460DF0CCF800BF01F089F801F0C8
S214010A5089F8484B18684A4B009340F23113494ACB
S214010A6049490DF0BDF8434B1B68484A48491846AA
S214010A700DF0B6F83F4B1B68059A464918460DF02F
S214010A80AFF83C4B1B683C4918460DF0A9F8FEE749
S214010A90374B1B684021184605F0F2FD0590059B73
S214010AA0002B31D0334B1B68334918460DF098F8AC
S214010AB0304B1B68314918460DF092F800BF01F023
S214010AC04FF801F04FF82B4B18682D4B009340F26E
S214010AD035132C4A2C490DF083F8264B1868059BD4
S214010AE02D4A2E490DF07CF8059801F011F8214B9E
S214010AF01B682B4918460DF073F81E4B1B681E49E0
S214010B0018460DF06DF8FEE7102000F071F803901E
S214010B100020FFF719FE0290DDED027AB1EE047AAD
S214010B20F4EEC77AF1EE10FA03DD04238DF81330E4
S214010B300FE0DDED027AB6EE007AF4EEC77AF1EE5A
S214010B4010FA03DD03238DF8133002E001238DF83C
S214010B501330144A039B1360134A029B1360134A13
S214010B609DF81330137000BF07B05DF804FB00BF9B
S214010B7004110020EC18002048D204004CD20400D6
S214010B80D4D3040054D204009CD2040038D3040009
S214010B90C0D2040068D3040090D3040094D30400A8
S214010BA0ACD30400F8100020FC1000200011002037
S214010BB0014B1B78184670470011002082B00A4B83
S214010BC01B78042B07D0084B1B78002B03D000237F
S214010BD08DF8073002E001238DF807309DF80730C5
S214010BE0184602B0704700BF001100200000000048
S214010BF030B587B00190FFF7B3FC4FF000030593C3
S214010C000023049329E0FFF709FD0346ADF80E30F3
S214010C10059838F041FE04460D46BDF80E3007EE45
S214010C20903AF8EE677A17EE900A38F035FE14A37C
S214010C30D3E9002338F088FE02460B4620462946B3
S214010C4038F0CCFC02460B461046194639F05EF9E0
S214010C5003460593049B01330493049A019B9A422D
S214010C60D1D3019B07EE903AB8EE677ADDED056ABF
S214010C70C6EE877ACDED057A059B184607B030BDDE
S214010C80144001144001543F00B583B00120FFF722
S214010C90AFFF0190082206490198FFF703FE0346BD
S214010CA08DF803309DF80330184603B05DF804FB59
S214010CB09C0C002000B585B0102000F00BFC0290C3
S214010CC0102000F0F3FF0390039B002B02D1029B40
S214010CD0002B2ED13D4B1B683D4918460CF080FF7A
S214010CE03A4B1B683B4918460CF07AFF00BF00F0F0
S214010CF037FF00F037FF354B1868374B0093392321
S214010D00364A37490CF06CFF304B1B68354A36497A
S214010D1018460CF065FF2D4B1B68039A334918469D
S214010D200CF05EFF294B1B68294918460CF058FF4A
S214010D30FEE7029802F06BF90390039B002B3CD16F
S214010D401021029802F093FA0390039B002B30D0F7
S214010D501E4B1B681E4918460CF042FF1B4B1B68B6
S214010D601C4918460CF03CFF00BF00F0F9FE00F0ED
S214010D70F9FE164B1868184B00933F23174A18497B
S214010D800CF02EFF114B1868039B194A19490CF0F9
S214010D9027FF039800F0BCFE0C4B1B68164918464B
S214010DA00CF01EFF094B1B68094918460CF018FF8A
S214010DB0FEE7124B01221A7002E0104B00221A7055
S214010DC0039B184605B05DF804FB00BFEC18002035
S214010DD0ECD30400F0D30400E8D40400F8D30400F4
S214010DE03CD4040048D4040078D4040090D4040011
S214010DF0B8D40400BCD40400D4D4040008110020E4
S214010E0008B5102000F0F0FF024B00221A7000BF58
S214010E1008BD00BF0811002000B585B00190009103
S214010E20032303930D4B1B78002B10D0102000F0EA
S214010E3051FB0290029802F03AF90346002B08D0C3
S214010E40009A0199029802F0C0F9039001E011237B
S214010E500393039B184605B05DF804FB08110020B8
S214010E6000B589B0474A03AB07CA83E807000820E4
S214010E7000F030FB0690082000F018FF0790079B53
S214010E80002B02D1069B002B2ED13F4B1B683F49FE
S214010E9018460CF0A5FE3C4B1B683D4918460CF065
S214010EA09FFE00BF00F05CFE00F05CFE364B18684B
S214010EB0384B00934123384A38490CF091FE324BA7
S214010EC01B68374A374918460CF08AFE2E4B1B68BA
S214010ED0079A354918460CF083FE2B4B1B682B49A5
S214010EE018460CF07DFEFEE7069805F0C6FC079056
S214010EF0079B002B3DD103AB1946069805F0E5FC90
S214010F000790079B002B30D01F4B1B681F491846C4
S214010F100CF066FE1C4B1B681D4918460CF060FE63
S214010F2000BF00F01DFE00F01DFE174B1868194BA0
S214010F3000934823184A19490CF052FE124B1868C0
S214010F40079B1A4A1A490CF04BFE079800F0E0FD81
S214010F500D4B1B68174918460CF042FE0A4B1B68DE
S214010F600A4918460CF03CFEFEE7134B01221A70A4
S214010F7002E0114B00221A70079B184609B05DF873
S214010F8004FB00BFFCD50400EC180020FCD40400D0
S214010F9000D5040008D6040008D5040050D5040086
S214010FA05CD504008CD50400A4D50400CCD504007F
S214010FB0D0D50400E8D504000911002008B50820A2
S214010FC000F012FF024B00221A7000BF08BD00BFDE
S214010FD00911002000B589B0039002910192284BB7
S214010FE01B78002B45D0082000F074FA0690039A6F
S214010FF044F62061069805F017FD0790079B002B25
S21401100001D0079B38E0039B1B68184639F062FE47
S2140110100590DDED057AB0EE047AF4EEC77AF1EECE
S21401102010FA03D5174B00221A700BE0DDED057A96
S214011030B0EE0C7AF4EEC77AF1EE10FA02DD114B3F
S21401104001221A700F4B1A78029B1A7005F018FDD0
S21401105007EE100ADDED057AF4EEC77AF1EE10FA26
S21401106003DD019B01221A7005E0019B00221A7024
S21401107001E011230793079B184609B05DF804FBAE
S214011080091100200A11002008B5202000F00EFEEC
S21401109000BF08BD08B5202000F0A6FE024B0022C6
S2140110A01A7000BF08BD00BF0B11002000B585B047
S2140110B003468DF807300023039303F04BFD0346E8
S2140110C08DF80B309DF80730002B14D09DF80B30AF
S2140110D0002B10D103F0F2FC0390039B002B06D1EA
S2140110E00E4803F03DFD0E4B01221A7010E00C4B2A
S2140110F000221A700CE09DF8073083F00103DBB282
S214011100002B05D09DF80B30012B01D103F012FD09
S214011110039B184605B05DF804FB00BF0000A04025
S2140111200B11002000B585B00190009103230393B5
S2140111300D4B1B78002B0FD003F07AFE0346002BD5
S2140111400CD003F031FE019803F0CAFD009803F0BD
S21401115059FD0023039301E011230393039B1846D3
S21401116005B05DF804FB00BF0B11002008B5054B68
S2140111701B78002B03D003F0FDFD034600E011238E
S214011180184608BD0B11002000B585B0022000F0FE
S214011190A1F90390022000F089FD0290029B002B2A
S2140111A002D1039B002B2ED1204B1B6820491846E9
S2140111B00CF016FD1D4B1B681E4918460CF010FD61
S2140111C000BF00F0CDFC00F0CDFC184B18681A4BA0
S2140111D000933323194A1A490CF002FD134B1B687E
S2140111E0184A194918460CF0FBFC104B1B68029A6A
S2140111F0164918460CF0F4FC0C4B1B680C491846B3
S2140112000CF0EEFCFEE7039804F035FD0290029B1D
S214011210002B03D10E4B01221A7002E00C4B002268
S2140112201A70029B184605B05DF804FBEC18002006
S2140112301CD6040020D60400ECD6040028D60400F0
S21401124070D604007CD60400ACD60400C4D60400D4
S2140112500C11002008B5022000F0C6FD024B00224A
S2140112601A7000BF08BD00BF0C11002000B585B084
S214011270019000910A4B1B78002B0AD0022000F047
S21401128029F90290009A0199029804F087FD0390CB
S21401129001E011230393039B184605B05DF804FB98
S2140112A00C11002000B585B0042000F013F903905E
S2140112B0012000F0FBFC0290029B002B02D1039B55
S2140112C0002B2ED1204B1B68204918460CF088FCB9
S2140112D01D4B1B681E4918460CF082FC00BF00F02F
S2140112E03FFC00F03FFC184B18681A4B0093332361
S2140112F0194A1A490CF074FC134B1B68184A194911
S21401130018460CF06DFC104B1B68029A16491846DD
S2140113100CF066FC0C4B1B680C4918460CF060FC84
S214011320FEE7039804F08EFC0290029B002B03D18B
S2140113300E4B01221A7002E00C4B00221A70029B1F
S214011340184605B05DF804FBEC18002004D704002D
S21401135008D70400E4D7040010D7040060D70400BF
S2140113606CD70400A0D70400B8D704000D110020E4
S21401137008B5042000F038FD024B00221A7000BFA9
S21401138008BD00BF0D11002000B585B001900A4BC5
S2140113901B78002B09D0042000F09CF802900199DC
S2140113A0029804F05AFC039001E011230393039B77
S2140113B0184605B05DF804FB0D11002000B585B098
S2140113C0012000F087F80390012000F06FFC039BDA
S2140113D0002B2DD1204B1B68204918460CF000FC31
S2140113E01D4B1B681E4918460CF0FAFB00BF00F0A7
S2140113F0B7FB00F0B7FB184B18681A4B009338235D
S214011400194A1A490CF0ECFB134B1B68184A194988
S21401141018460CF0E5FB104B1B68174918460CF0F4
S214011420DFFB0D4B1B680D4918460CF0D9FBFEE798
S2140114304021039805F024F90290029B002B03D16A
S2140114400E4B01221A7002E00C4B00221A70029B0E
S214011450184605B05DF804FBEC180020FCD7040024
S21401146000D80400A4D8040008D804004CD804000E
S21401147058D804006CD8040084D804000E1100204B
S21401148008B5012000F0B0FC024B00221A7000BF24
S21401149008BD00BF0E11002000B585B00190009177
S2140114A00B4B1B78002B0BD0012000F013F8029099
S2140114B0009B019A4021029805F00EF9039001E085
S2140114C011230393039B184605B05DF804FB00BF88
S2140114D00E11002000B585B00190234B1B680393C5
S2140114E0019B013B0F2B37D801A252F823F000BF16
S2140114F0311501003915010059150100411501008A
S2140115005915010059150100591501004915010029
S2140115105915010059150100591501005915010009
S2140115205915010059150100591501005115010001
S214011530012000F049FB12E0012000F045FB0EE01F
S214011540012000F041FB0AE0042000F03DFB06E02C
S214011550022000F039FB02E00023039300BF039B47
S214011560184605B05DF804FBC00B002000B583B03B
S214011570402000F09BFB32200EF014FB01214AF6BE
S214011580444003F0B9FE0190019B002B08D14FF4B3
S2140115907A71074803F0ACFF064B01221A7002E08D
S2140115A0044B00221A70019B184603B05DF804FB39
S2140115B0141100200F11002008B5054B00221A70E7
S2140115C003F062FF402000F00FFC00BF08BD00BF23
S2140115D00F11002082B00190064B1A68019B1A6019
S2140115E0054B1B78002B01D0002300E01123184681
S2140115F002B07047101100200F11002000B583B013
S214011600164B1B78002B25D004F0EAF80346002B76
S21401161020D001A800234FF47A72114904F046F84D
S2140116200346002B11D1DDED017A9FED0E7A27EEF0
S214011630877A0D4BD3ED007ADFED0C6A67EEA67A5A
S21401164077EE277A084BC3ED007A4FF47A71044897
S21401165003F04EFF00BF03B05DF804FB0F1100203E
S21401166014110020CDCCCC3D101100206666663FDB
S21401167000B589B0059004910392029306AB194612
S21401168004980EF0D1FA0790079B002B01D0079B18
S2140116900CE00699BDF82C3001939DF82830009394
S2140116A0029B039A05980EF0FFF80346184609B008
S2140116B05DF804FB00B589B005900491039202938E
S2140116C006AB194604980EF0AFFA0790079B002B5D
S2140116D001D0079B0CE00699BDF82C3001939DF8CC
S2140116E028300093029B039A05980EF02BF90346C7
S2140116F0184609B05DF804FB2DE9F04F8DB0059052
S214011700049103920293049B002B05D19DF8583057
S214011710002B01D0212391E0059800F095F80B905D
S2140117200B9B002B01D00B9B88E0059B002283F8C6
S2140117302820059B00221A86059B00225A860EF059
S214011740ADFA0246049B934248D90EF025FA0A9058
S214011750049B0022984691460A9B00221E46174685
S21401176006FB09F208FB07F31344A8FB06452B44C6
S2140117701D4640F2E73314EB030A45F1000B4FF424
S2140117807A724FF000035046594638F05FFC024625
S2140117900B46CDE90823DDE908014FF0FF324FF093
S2140117A0000338F053FC13460793DDE908014FF0B8
S2140117B0FF324FF0000338F049FC02460B4692B266
S2140117C0059B5A8605980023019300230093059BE9
S2140117D01C4A07990EF0B6F80B901AE09DF858309F
S2140117E0002B0BD005980023019300230093059B43
S2140117F0144A0499FFF75EFF0B900AE00598002350
S214011800019300230093059B0E4A0499FFF730FFCE
S2140118100B900B9B002B10D1059B039ADA61059B5D
S214011820029A1A62059B9DF8582083F82920059B89
S214011830049ADA62059800F0EBF80B9B18460DB097
S214011840BDE8F08F6919010000B585B00190019BD4
